:100000000C94A2020C94CA020C94CA020C94CA0268
:100010000C94CA020C94CA020C94CA020C94CA0230
:100020000C94CA020C94CA020C94CA020C94CA0220
:100030000C94CA020C94CA020C94CA020C94CA0210
:100040000C9447030C94CA020C947E050C94C105D1
:100050000C94CA020C94CA020C94CA020C94CA02F0
:100060000C94CA020C94CA024572726F723A200054
:100070004572726F723A20004572726F723A2000B8
:100080004572726F723A20004572726F723A2000A8
:100090004572726F723A20004572726F723A200098
:1000A0004572726F723A20007C198002DE13BC1711
:1000B0003C02F413E216EB010C14BA189A01241452
:1000C00072183A013C14FE16D2005414EF1BEF03D1
:1000D0006C14616E616C6F67777269746500616E34
:1000E000616C6F677772697465203C70696E3E2041
:1000F0003C76616C75653E00447269766520746873
:100100006520676976656E2050574D2070696E20B6
:100110007769746820612070756C736520776964F5
:10012000746820696E207468652072616E6765204E
:100130005B302C20323536292E00616E616C6F6782
:100140007265616400616E616C6F677265616420E5
:100150003C70696E3E0053686F772074686520615B
:100160006E616C6F6720766F6C7461676520726575
:100170006164696E6720696E207468652072616EC3
:100180006765205B302C20313032342920666F7255
:10019000207468652070696E2E00646967697461F7
:1001A0006C7772697465006469676974616C7772F1
:1001B000697465203C70696E3E203C76616C7565A3
:1001C0003E004472697665207468652067697665CB
:1001D0006E2070696E204849474820283129206FD9
:1001E00072204C4F57202830292E006469676974AB
:1001F000616C72656164006469676974616C7265E1
:100200006164203C70696E3E0052656164207768CD
:1002100065746865722074686520676976656E200C
:1002200070696E2069732048494748202831292089
:100230006F72204C4F57202830292E0070696E6D48
:100240006F64650070696E6D6F6465203C70696EE7
:100250003E205B6D6F64655D00476574206F7220A2
:1002600073657420746865206D6F646520666F72B5
:100270002074686520676976656E2070696E2E004F
:1002800068656C700068656C70005072696E7420EF
:10029000746869732068656C70206D656E752E00DA
:1002A000206973206F75742D6F662D72616E67659E
:1002B00020666F7220616E616C6F6777726974651A
:1002C00020286D75737420626520696E20746865DE
:1002D0002072616E6765205B0027206173206120BA
:1002E000646563696D616C20696E74656765722011
:1002F000696E20616E616C6F6777726974652E003C
:10030000206973206E6F7420696E20494E505554D9
:10031000206F7220494E5055545F50554C4C5550EB
:10032000206D6F64652E00206973206E6F742061EC
:100330006E20616E616C6F672070696E2E0020699F
:1003400073206E6F742063757272656E746C7920A1
:10035000696E204F5554505554206D6F64652E00C2
:10036000496E76616C6964206C6F676963206C65A7
:1003700076656C202700496E76616C69642070692F
:100380006E206D6F6465202700496E76616C69642C
:100390002070696E206E616D652027002061726794
:1003A000756D656E74732E002720657870656374B3
:1003B00073206174206D6F73742000436F6D6D61E5
:1003C0006E6420270020617267756D656E74732EF0
:1003D00000272065787065637473206174206C65F4
:1003E0006173742000436F6D6D616E64202700732C
:1003F0007465707065720073746570706572205BEF
:10040000706F736974696F6E5D00476574206F72F9
:1004100020736574207468652073746570706572EC
:1004200020706F736974696F6E20776974682061DA
:100430002076616C75652066726F6D203020746F58
:100440002039392E004572726F723A20004572725F
:100450006F723A2000412076616C75652062657488
:100460007765656E203020616E64203939206973AC
:100470002072657175697265642E00272061732092
:100480006120646563696D616C20696E7465676580
:100490007220696E20636F6D6D616E6420277374C6
:1004A0006570706572272E0043616E6E6F742070E8
:1004B00061727365202700436F6D6D616E64202744
:1004C00073746570706572272074616B6573206149
:1004D00074206D6F7374206F6E6520617267756D27
:1004E000656E7400000000070002010000030406AE
:1004F00000000000000000000102040810204080FD
:10050000010204081020010204081020040404045D
:1005100004040404020202020202030303030303AD
:100520000000000023002600290000000000250034
:1005300028002B0000000000240027002A003F1B99
:10054000891C8E1C11241FBECFEFD8E0DEBFCDBFAB
:1005500013E0A0E0B1E0E6E4F8E402C005900D92FB
:10056000A038B107D9F724E0A0E8B3E001C01D929C
:10057000A73DB207E1F712E0C2EAD2E004C021973A
:10058000FE010E940C1DCF39D107C9F70E94D1137B
:100590000C9421240C9400008093000108958E3067
:1005A00008F08E502091000190E4299F90011124C1
:1005B0008770822B80937C0080917A008064809386
:1005C0007A0080917A0086FDFCCF8091780090912E
:1005D000790008951F93CF93DF93182FEB0161E00B
:1005E0000E945604209739F460E0812FDF91CF916B
:1005F0001F910C949204CF3FD10511F461E0F5CF27
:10060000E12FF0E0EC51FB4FE491E33031F140F4A5
:10061000E130B1F0E230E1F0C038D1052CF3EECF9B
:10062000E63029F1E73059F1E430B1F780918000EC
:10063000806280938000D0938B00C0938A0004C0B6
:1006400084B5806884BDC7BDDF91CF911F910895A7
:1006500084B5806284BDC8BDF7CF8091800080687A
:1006600080938000D0938900C0938800EDCF809163
:10067000B00080688093B000C093B300E5CF809154
:10068000B00080628093B000C093B400DDCF1F92B1
:100690000F920FB60F9211242F933F938F939F9336
:1006A000AF93BF938091800390918103A0918203C7
:1006B000B09183033091880323E0230F2D3758F541
:1006C0000196A11DB11D2093880380938003909310
:1006D0008103A0938203B09383038091840390915C
:1006E0008503A0918603B09187030196A11DB11DDA
:1006F0008093840390938503A0938603B09387032C
:10070000BF91AF919F918F913F912F910F900FBE0D
:100710000F901F90189526E8230F0296A11DB11D7A
:10072000D2CF2FB7F89460918003709181038091AC
:100730008203909183032FBF08953FB7F89480916F
:10074000840390918503A0918603B091870326B519
:10075000A89B05C02F3F19F00196A11DB11D3FBFF9
:10076000BA2FA92F982F8827BC01CD01620F711DC8
:10077000811D911D42E0660F771F881F991F4A95C2
:10078000D1F70895CF92DF92EF92FF92CF93DF934C
:100790006B017C010E949D03EB01C114D104E104B3
:1007A000F10439F4DF91CF91FF90EF90DF90CF907B
:1007B00008950E949D036C1B7D0B683E734068F397
:1007C00081E0C81AD108E108F108C851DC4FE5CF33
:1007D000019739F0880F991F880F991F0297019789
:1007E000F1F70895789484B5826084BD84B5816002
:1007F00084BD85B5826085BD85B5816085BDEEE629
:10080000F0E0808181608083E1E8F0E01082808107
:1008100082608083808181608083E0E8F0E0808175
:1008200081608083E1EBF0E0808184608083E0EB95
:10083000F0E0808181608083EAE7F0E0808184607D
:1008400080838081826080838081816080838081D9
:10085000806880831092C1000895833081F028F46D
:10086000813099F08230A9F008958630A9F0873060
:10087000C9F08430B1F4809180008F7D03C08091F5
:1008800080008F7780938000089584B58F7784BD32
:10089000089584B58F7DFBCF8091B0008F778093D2
:1008A000B00008958091B0008F7DF9CFCF93DF9392
:1008B00090E0FC01E850FB4F2491845F9A4FFC01CB
:1008C00084918823C9F090E0880F991FFC01EC5CAB
:1008D000FA4FA591B491FC01E65DFA4FC591D49110
:1008E00061110DC09FB7F8948C91209582238C9351
:1008F0008881282328839FBFDF91CF91089562309C
:1009000051F49FB7F8943C91822F809583238C9368
:10091000E8812E2BEFCF8FB7F894EC912E2B2C93F0
:100920008FBFEACF1F93CF93DF93162F282F30E08E
:10093000F901EC51FB4F8491F901E850FB4FD49140
:10094000F901E45FFA4FC491CC23A1F081110E9418
:100950002D04EC2FF0E0EE0FFF1FE65DFA4FA5919E
:10096000B4918FB7F894EC91111108C0D095DE23A3
:10097000DC938FBFDF91CF911F910895DE2BF8CFCD
:10098000CF93DF93282F30E0F901EC51FB4F849196
:10099000F901E850FB4FD491F901E45FFA4FC4919B
:1009A000CC23A1F081110E942D04EC2FF0E0EE0F7A
:1009B000FF1FE05EFA4FA591B491EC91ED2381E029
:1009C00090E009F480E0DF91CF91089580E090E01D
:1009D000FACFFC0124853585F901E05CFF4F808169
:1009E00091812E5B3F4FF90120813181821B930B56
:1009F0008F7399270895FC0184859585FC01E05C3F
:100A0000FF4F408151813296208131814217530737
:100A100041F020813181820F931FFC01808190E0A1
:100A200008958FEF9FEF0895DC011C968D919C91A6
:100A3000FC01E05CFF4F4081518132962081318181
:100A40004217530781F020813181820F931FDC010F
:100A50008C91208131812F5F3F4F2F73332731835A
:100A6000208390E008958FEF9FEF0895FC0191A1FE
:100A7000992329F0A489B5898C9186FFF9CF11A219
:100A80000895CF93DF93FC0126853785D901A05CBB
:100A9000BF4F8D919C91119701968F739927E90112
:100AA000CE5BDF4F4881598148175907D9F34D91E3
:100AB0005C91240F351FD9016C93A685B785A05C86
:100AC000BF4F11969C938E93A689B7898C91978D71
:100AD00021E030E001C0220F9A95EAF7822B8C9337
:100AE00081E081A30488F589E02D80818064808382
:100AF00081E090E0DF91CF91089508951F920F92C9
:100B00000FB60F9211242F934F935F938F939F9360
:100B1000EF93FF938091C00082FD27C02091C60013
:100B200080912F049091300440913104509132040F
:100B300001968F7399274817590759F0E0912F04B0
:100B4000F0913004E151FC4F208390933004809366
:100B50002F04FF91EF919F918F915F914F912F9172
:100B60000F900FBE0F901F9018958091C600F1CF87
:100B700089E893E00E94E904892B11F00C947D052B
:100B800008951F920F920FB60F9211242F933F9347
:100B90008F939F93EF93FF932091EB033091EC039E
:100BA0008091ED039091EE032817390781F480912D
:100BB000C1008F7D8093C100FF91EF919F918F9134
:100BC0003F912F910F900FBE0F901F901895E091BD
:100BD000ED03F091EE03E555FC4F20818091ED038C
:100BE0009091EE0301968F7399279093EE03809373
:100BF000ED032093C600E0CF8F929F92AF92BF92F9
:100C0000CF92DF92EF92FF920F931F93CF93DF93D8
:100C1000CDB7DEB7FC011382128288EE93E0A0E02C
:100C2000B0E084839583A683B78380E693E09183C5
:100C300080837587648757874687318B208B138B1A
:100C4000028BF58AE48AD78AC68AB18EA08E938EEB
:100C5000828E8F85848F8889858F8989868F8A89FE
:100C6000878F8B8980A3DF91CF911F910F91FF9088
:100C7000EF90DF90CF90BF90AF909F908F900895AE
:100C8000CF92DF92EF92FF92CF93DF93EC016A0154
:100C90007B01C11481EED806E104F10409F04FC0D4
:100CA000EC89FD89108260E874E88EE190E0A7018C
:100CB00096010E94EA1C21503109410951095695BB
:100CC000479537952795E889F9893083EA89FB8923
:100CD000208319A2EE89FF8920813C8D81E090E07C
:100CE000AC0101C0440F3A95EAF7242B2083EE892A
:100CF000FF8920813D8DAC0101C0440F3A95EAF790
:100D0000242B2083EE89FF8920813E8DAC0101C018
:100D1000440F3A95EAF7242B2083EE89FF8920813E
:100D20003F8D01C0880F3A95EAF780958223808332
:100D3000DF91CF91FF90EF90DF90CF900895EC89F5
:100D4000FD8928A181E090E001C0880F2A95EAF78B
:100D5000808360E079E08DE390E0A70196010E9436
:100D6000EA1C21503109410951095695479537959B
:100D70002795211580E1380708F092CFA4CFCF92B4
:100D8000DF92EF92FF921F93CF93DF93EC016A0102
:100D90007B01122FC11481EED806E104F10409F0A1
:100DA00052C0EC89FD89108260E874E88EE190E021
:100DB000A70196010E94EA1C2150310941095109FD
:100DC0005695479537952795E889F9893083EA89BB
:100DD000FB892083E88DF98D1083EE89FF892081BE
:100DE0003C8D81E090E0AC0101C0440F3A95EAF7F8
:100DF000242B2083EE89FF8920813D8DAC0101C029
:100E0000440F3A95EAF7242B2083EE89FF8920814D
:100E10003E8DAC0101C0440F3A95EAF7242B2083A4
:100E2000EE89FF8920813F8D01C0880F3A95EAF74E
:100E3000809582238083DF91CF911F91FF90EF9067
:100E4000DF90CF900895EC89FD8928A181E090E0A2
:100E500001C0880F2A95EAF7808360E079E08DE38E
:100E600090E0A70196010E94EA1C21503109410936
:100E700051095695479537952795211580E13807F3
:100E800008F08FCFA1CFCF93DF93FC0186859785A4
:100E9000DC01A05CBF4F8E5B9F4F4D915C91119721
:100EA000EC012881398142175307B9F7A689B78920
:100EB0004C91248D81E090E0BC0102C0660F771F49
:100EC0002A95E2F79B01209524232C93A689B789C4
:100ED0004C91258DEC0102C0CC0FDD1F2A95E2F765
:100EE0009E01209524232C93A689B7894C91268DA9
:100EF000BC0102C0660F771F2A95E2F79B0120957F
:100F000024232C93A689B7892C91378D01C0880F93
:100F10003A95EAF7809582238C9384859585FC0128
:100F2000EE5BFF4F20813181805C9F4FEC01398364
:100F30002883DF91CF91089581E00895CF92DF92C9
:100F4000EF92FF920F931F93CF93DF936C017B017E
:100F5000E40EF51E10E000E06E157F0571F0EB0168
:100F6000D601ED91FC910190F081E02D6991C601CF
:100F70000995080F191FBE01EFCFC801DF91CF916E
:100F80001F910F91FF90EF90DF90CF900895EF9217
:100F9000FF920F931F93CF93DF937C018B01D0E0DF
:100FA000C0E0F80164910F5F1F4F662359F0D7012D
:100FB000ED91FC910190F081E02DC7010995C80FDA
:100FC000D91FEFCFCE01DF91CF911F910F91FF90ED
:100FD000EF900895AF92BF92CF92DF92EF92FF927F
:100FE0000F931F93CF93DF937C016B01D0E0C0E0A0
:100FF00010E000E0D60114968D919C91C817D90796
:1010000088F4D701ED91FC91A080B180BE01C601AA
:101010000E94B70F682FC701F5010995080F191F26
:101020002196E8CFC801DF91CF911F910F91FF90DA
:10103000EF90DF90CF90BF90AF9008950C94C91CB3
:10104000DC01ED91FC910190F081E02D0994DB0130
:10105000ED91FC9111970190F081E02DBC01CD0143
:1010600009940F931F93CF93DF93EC016DE00E94DF
:1010700020088C016AE0CE010E942008800F911F99
:10108000DF91CF911F910F9108950F931F93CF93ED
:10109000DF93EC010E94C7078C01CE010E9431084A
:1010A000800F911FDF91CF911F910F9108950F93A2
:1010B0001F93CF93DF93EC010E94EA078C01CE01CE
:1010C0000E943108800F911FDF91CF911F910F91E6
:1010D00008950F931F93CF93DF93EC010E94C91CD7
:1010E0008C01CE010E943108800F911FDF91CF91BA
:1010F0001F910F9108950F931F93CF93DF93EC01EE
:101100000E9420088C01CE010E943108800F911F9F
:10111000DF91CF911F910F9108950F931F93CF935C
:10112000DF93EC010E9427088C01CE010E94310858
:10113000800F911FDF91CF911F910F9108954F92D2
:101140005F926F927F929F92AF92BF92CF92DF9207
:10115000EF92FF920F931F93CF93DF93CDB7DEB73C
:10116000A1970FB6F894DEBF0FBECDBF5C016A0138
:101170007B01922E19A281E0821710F08AE0982E4E
:101180008E010F5D1F4F492C512C712C612CC70112
:10119000B601A30192010E94EA1C8C2D929E801937
:1011A00011248A3034F5805DF80182938F01C414D4
:1011B000D504E604F704D0F4BF01C5010E94C91CA0
:1011C000A1960FB6F894DEBF0FBECDBFDF91CF91D1
:1011D0001F910F91FF90EF90DF90CF90BF90AF9055
:1011E0009F907F906F905F904F90089569017A0172
:1011F000CECF895CD9CFCF92DF92EF92FF920F933F
:101200001F93CF93DF93EC016A017B012115310518
:1012100079F4E881F9810190F081E02D642FDF916C
:10122000CF911F910F91FF90EF90DF90CF90099495
:101230002A303105E9F42AE0F7FE1AC06DE20E9477
:1012400020088C0144275527BA014C195D096E0905
:101250007F092AE0CE010E949F08800F911FDF9135
:10126000CF911F910F91FF90EF90DF90CF90089555
:10127000B701A601CE01DF91CF911F910F91FF9091
:10128000EF90DF90CF900C949F089A01AB01770FFD
:10129000660B770B0C94FB080F931F93CF93DF9390
:1012A000EC010E9445098C01CE010E943108800F9B
:1012B000911FDF91CF911F910F9108950F931F936D
:1012C000CF93DF93EC010E94FB088C01CE010E94BA
:1012D0003108800F911FDF91CF911F910F910895D9
:1012E0002115310541F4DC01ED91FC910190F08173
:1012F000E02D642F09940C949F089A01462F50E02A
:1013000070E060E00C9470090F931F93CF93DF930C
:10131000EC010E947D098C01CE010E943108800FF2
:10132000911FDF91CF911F910F9108959A01AB0109
:1013300070E060E00C9470090F931F93CF93DF93DC
:10134000EC010E9496098C01CE010E943108800FA9
:10135000911FDF91CF911F910F9108950F931F93CC
:10136000CF93DF93EC010E9470098C01CE010E94A3
:101370003108800F911FDF91CF911F910F91089538
:101380004F925F926F927F928F929F92AF92BF9295
:10139000CF92DF92EF92FF921F93CF93DF93EC01F6
:1013A0006A017B01122FAB019601CB01B6010E94AD
:1013B000501F6CE673E0811126C046015701E89486
:1013C000B7F82FEF3FEF4FE75FE7C501B4010E9489
:1013D000501F81110CC02FEF3FEF4FE75FE7C501B2
:1013E000B4010E947F1D60E773E0181664F02FEFD0
:1013F0003FEF4FE75FE4C701B6010E94DE1E1816FB
:10140000A4F464E773E0CE01DF91CF911F91FF90C8
:10141000EF90DF90CF90BF90AF909F908F907F9094
:101420006F905F904F900C94C91C2FEF3FEF4FE7E8
:101430005FECC701B6010E947F1D87FDE2CF20E06F
:1014400030E0A901C701B6010E947F1DB12CA12C7B
:1014500087FF09C06DE2CE010E9420085C01F7FA07
:10146000F094F7F8F094912C60E070E080E09FE356
:10147000191541F020E030E040E251E40E94841D63
:101480009394F6CFA70196010E94131D2B013C01F6
:101490000E94FD1D6B017C010E942C1E9B01AC0172
:1014A000C301B2010E94121D2B013C012AE0B701C9
:1014B000A601CE010E949F087C01EA0CFB1C1123AF
:1014C00039F068EF71E0CE010E94C91CE80EF91EE8
:1014D000115018F120E030E040E251E4C301B201C4
:1014E0000E94E31E2B013C010E94F61D4B014AE0C5
:1014F00050E0CE010E944509E80EF91EB401990C96
:10150000880B990B0E942E1E9B01AC01C301B201F6
:101510000E94121D2B013C01DBCFC701DF91CF914F
:101520001F91FF90EF90DF90CF90BF90AF909F9072
:101530008F907F906F905F904F9008950C94C009AA
:101540000F931F93CF93DF93EC010E94C0098C018E
:10155000CE010E943108800F911FDF91CF911F9122
:101560000F910895FC01808191810C94EE1FCF931F
:10157000DF93EC0188819981009711F00E94EE1FA2
:10158000198218821D821C821B821A82DF91CF91E0
:1015900008950F931F93CF93DF93EC018B016F5F3F
:1015A0007F4F888199810E947F20009751F0998315
:1015B00088831B830A8381E0DF91CF911F910F9174
:1015C000089580E0F9CFCF93DF93EC018881998172
:1015D000892B49F08A819B818617970720F081E04B
:1015E000DF91CF910895CE010E94C90A8823C1F3EB
:1015F0008C819D81892B99F7E881F9811082EFCF49
:10160000EF92FF920F931F93CF93DF93EC017B0137
:101610008A01BA010E94E30A81110BC0CE010E9427
:10162000B70ACE01DF91CF911F910F91FF90EF90FC
:1016300008951D830C83B701888199810E94CD2272
:10164000F0CFFC0111821082138212821582148263
:1016500016826115710551F0FB0101900020E9F738
:101660003197AF01461B570B0C94000B08950F9355
:101670001F93CF93DF938C01EB01FC01808191815B
:101680000097C9F0428153812C813D814217530755
:1016900080F0688179810E94CD228C819D81F80142
:1016A000958384831D821C82DF91CF911F910F91BE
:1016B00008950E94EE1F88819981F80191838083AB
:1016C0008A819B81938382838C819D81958384838E
:1016D000198218821B821A82E5CFFC0111821082C6
:1016E000138212821582148216820C94370BFC012D
:1016F00011821082138212821582148216820C9437
:10170000370BCF93DF93EC01FB018617970749F066
:10171000608171816115710541F0448155810E949C
:10172000000BCE01DF91CF9108950E94B70AF9CF47
:10173000FC01118210821382128215821482168299
:101740000C94810BCF93DF93EC018617970711F070
:101750000E94370BCE01DF91CF910895CF93DF9395
:10176000EC016817790711F00E94370BCE01DF9169
:10177000CF910895CF93DF93EC016115710571F05E
:10178000FB0101900020E9F73197AF01461B570B91
:101790000E94000BCE01DF91CF9108950E94B70AFD
:1017A000F9CFCF93DF9300D0CDB7DEB7FC01118224
:1017B00010821382128215821482168269831A8221
:1017C000BE016F5F7F4F0E94BA0B0F900F90DF91A9
:1017D000CF9108950F931F93CF93DF93CDB7DEB7CB
:1017E00029970FB6F894DEBF0FBECDBF8C01862FB0
:1017F000F8011182108213821282158214821682DD
:1018000050E0BE016F5F7F4F90E00E948823BE01D1
:101810006F5F7F4FC8010E94BA0B29960FB6F894EC
:10182000DEBF0FBECDBFDF91CF911F910F91089505
:101830000F931F93CF93DF93CDB7DEB762970FB6A9
:10184000F894DEBF0FBECDBF8C01CB01F801118231
:1018500010821382128215821482168250E0BE0119
:101860006F5F7F4F0E941623BE016F5F7F4FC801DD
:101870000E94BA0B62960FB6F894DEBF0FBECDBFC2
:10188000DF91CF911F910F9108950F931F93CF93E5
:10189000DF93CDB7DEB761970FB6F894DEBF0FBE0A
:1018A000CDBF8C01CB01F80111821082138212820C
:1018B00015821482168250E0BE016F5F7F4F0E9436
:1018C0008823BE016F5F7F4FC8010E94BA0B6196EB
:1018D0000FB6F894DEBF0FBECDBFDF91CF911F9141
:1018E0000F9108950F931F93CF93DF93CDB7DEB77A
:1018F000A2970FB6F894DEBF0FBECDBF8C01CB010F
:10190000BA01F801118210821382128215821482A8
:10191000168230E0AE014F5F5F4F0E942C23BE0164
:101920006F5F7F4FC8010E94BA0BA2960FB6F89462
:10193000DEBF0FBECDBFDF91CF911F910F910895F4
:101940000F931F93CF93DF93CDB7DEB7A1970FB659
:10195000F894DEBF0FBECDBF8C01CB01BA01F801F8
:10196000118210821382128215821482168230E054
:10197000AE014F5F5F4F0E945B23BE016F5F7F4FE1
:10198000C8010E94BA0BA1960FB6F894DEBF0FBE35
:10199000CDBFDF91CF911F910F910895EF92FF92EC
:1019A0000F931F93CF93DF93EC017B01672B41F4DF
:1019B00080E0DF91CF911F910F91FF90EF900895FC
:1019C00041155105A1F00C811D81040F151FB801AF
:1019D0000E94E30A882361F3288139818C819D81EB
:1019E000B701820F931F0E94CD221D830C8381E0DB
:1019F000E0CFFB0144815581608171810C94CE0C54
:101A00006115710551F0FB0101900020E9F7319754
:101A1000AF01461B570B0C94CE0C80E00895CF937A
:101A2000DF9300D0CDB7DEB769831A8241E050E082
:101A3000BE016F5F7F4F0E94CE0C0F900F90DF9121
:101A4000CF910895EF92FF920F931F93CF93DF935F
:101A500000D000D0CDB7DEB77C01862F4AE08E01E2
:101A60000F5F1F4FB80190E00E942123F801019001
:101A70000020E9F73197AF01401B510BB801C701B6
:101A80000E94CE0C0F900F900F900F90DF91CF918E
:101A90001F910F91FF90EF900895EF92FF920F9397
:101AA0001F93CF93DF9300D000D000D00F92CDB71B
:101AB000DEB77C01CB014AE08E010F5F1F4FB801FA
:101AC0000E942123F80101900020E9F73197AF012E
:101AD000401B510BB801C7010E94CE0C27960FB6D0
:101AE000F894DEBF0FBECDBFDF91CF911F910F9154
:101AF000FF90EF900895EF92FF920F931F93CF9373
:101B0000DF9300D000D000D0CDB7DEB77C01CB0191
:101B10004AE08E010F5F1F4FB8010E949323F80126
:101B200001900020E9F73197AF01401B510BB8013C
:101B3000C7010E94CE0C26960FB6F894DEBF0FBEEA
:101B4000CDBFDF91CF911F910F91FF90EF9008953E
:101B5000EF92FF920F931F93CF93DF93CDB7DEB732
:101B60002C970FB6F894DEBF0FBECDBF7C01CB0122
:101B7000BA012AE08E010F5F1F4FA8010E94372390
:101B8000F80101900020E9F73197AF01401B510B9C
:101B9000B801C7010E94CE0C2C960FB6F894DEBF98
:101BA0000FBECDBFDF91CF911F910F91FF90EF90AE
:101BB0000895EF92FF920F931F93CF93DF93CDB7CA
:101BC000DEB72B970FB6F894DEBF0FBECDBF7C01FA
:101BD000CB01BA012AE08E010F5F1F4FA8010E94BE
:101BE0006623F80101900020E9F73197AF01401B0F
:101BF000510BB801C7010E94CE0C2B960FB6F8947A
:101C0000DEBF0FBECDBFDF91CF911F910F91FF902F
:101C1000EF900895CF93DF93EC01FB014481558150
:101C2000608171810E94CE0C811103C0CE010E949F
:101C3000B70ACE01DF91CF910895CF93DF93EC01E6
:101C40006115710539F4CE010E94B70ACE01DF910A
:101C5000CF910895FB0101900020E9F73197AF0182
:101C6000461B570B0E94CE0C882369F3EFCFCF930E
:101C7000DF93EC010E940F0D811103C0CE010E9481
:101C8000B70ACE01DF91CF910895CF93DF93EC0196
:101C90000E94220D811103C0CE010E94B70ACE011D
:101CA000DF91CF910895CF93DF93EC010E944D0D0A
:101CB000811103C0CE010E94B70ACE01DF91CF91FE
:101CC0000895CF93DF93EC010E947B0D811103C037
:101CD000CE010E94B70ACE01DF91CF910895CF9334
:101CE000DF93EC010E94A80D811103C0CE010E9478
:101CF000B70ACE01DF91CF910895CF93DF93EC0126
:101D00000E94D90D811103C0CE010E94B70ACE01F5
:101D1000DF91CF910895CF93DF93EC01A881B98132
:101D2000EB01E881F9811097F1F03097B1F4EC0103
:101D30008C819D81892BC9F08C9190E00BC0DB01D7
:101D400014968D919C91892B81F0808190E09195E2
:101D500081959109DF91CF910895BF01CD01DF9168
:101D6000CF910C94C422309751F790E080E0F2CFED
:101D7000FC0144815581FB012481358142175307C1
:101D800029F40E948B0E21E0892B09F020E0822F9C
:101D90000895FC0124813581232B31F421E0FB01DE
:101DA000672B49F4822F0895808191816115710517
:101DB00039F421E0FC0180818823A1F320E0F2CFF7
:101DC0000E94C42221E0892B69F3F8CF0E948B0E78
:101DD000892F881F8827881F08950E948B0E21E075
:101DE000181619060CF020E0822F08950E948B0E21
:101DF00021E0181619060CF420E0822F08950E94A5
:101E00008B0E892F8095881F8827881F0895CF9271
:101E1000DF92EF92FF920F931F93CF93DF93FB011B
:101E20008617970789F1DC0114962D913C9115973F
:101E30004481558124173507D9F4232B29F10081DA
:101E40001181ED90FC90F70181917F018823E1F0F1
:101E5000082E000C990B0E9485226C01E8018991E3
:101E6000082E000C990B0E948522C816D90651F045
:101E700080E0DF91CF911F910F91FF90EF90DF9065
:101E8000CF9008958E01DFCF81E0F3CFFA01DB011F
:101E900014964D915C91DC0114962D913C9115970F
:101EA000241B350B2E173F0788F08D919C910097CE
:101EB00069F0DB016D917C916115710539F08E0F30
:101EC0009F1F0E94D42221E0892B09F020E0822F5D
:101ED0000895FC0144815581FB012481358142171D
:101EE000530720F050E040E00C94460F80E0089546
:101EF000FC0124813581FB0144815581241735077C
:101F0000A0F0FC0180819181009779F0FB01608154
:101F100071816115710549F0241B350B820F931FE8
:101F20000E94C42221E0892B09F020E0822F08952D
:101F3000FC01248135816217730730F4808191811F
:101F4000860F971FFC0140830895FC012481358191
:101F50006217730720F480819181009729F4109211
:101F6000330483E394E00895860F971F0895FC01DE
:101F7000248135816217730748F48081918100972D
:101F800029F0860F971FFC018081089580E0089555
:101F90000C94B70F0F931F93CF93DF938B014115D1
:101FA000510559F06115710541F0FC01C481D581DD
:101FB0002C173D0738F0FB011082DF91CF911F9164
:101FC0000F91089541505109C21BD30B4C175D0767
:101FD00008F4EA01FC0160817181620F731FAE0198
:101FE000C8010E94E222C00FD11F1882E6CFCF9312
:101FF000DF93FC01248135814217530788F4C081A7
:10200000D181062E000C770BCE01840F951F0E9404
:10201000B922009729F08C1B9D0BDF91CF91089579
:102020008FEF9FEFFACF50E040E00C94F70FCF9383
:10203000DF93FC01248135814217530788F4C08166
:10204000D181FB0160817181CE01840F951F0E94B7
:10205000FC22009729F08C1B9D0BDF91CF910895F6
:102060008FEF9FEFFACF50E040E00C941710DF9213
:10207000EF92FF920F931F93CF93DF938C01DC01BC
:1020800014968D919C9115974817590750F08FEF32
:102090009FEFDF91CF911F910F91FF90EF90DF9015
:1020A0000895EA012196ED91FC911197EC0FFD1F27
:1020B000D0801082ED90FC90062E000C770BC701AB
:1020C0000E94F122CE0DDF1DD882009701F3F801A6
:1020D00020813181821B930BDCCFFC01448155812F
:1020E000415051090C943710AF92BF92CF92DF92BA
:1020F000EF92FF920F931F93CF93DF936B01EA014F
:10210000FB01448155814115510561F1FC01248198
:1021100035812115310531F12417350718F1C21722
:10212000D30710F0E9012197FC0100811181C8015A
:10213000AA24AA94BB24BA947801EC0EFD1EE816DA
:10214000F906A0F0F601608171810E94FC220097DF
:1021500069F09C01201B310BC217D30708F059010D
:102160000196EDCFAA24AA94BB24BA94C501DF91AD
:10217000CF911F910F91FF90EF90DF90CF90BF9084
:10218000AF900895FC0144815581FB012481358184
:10219000421B530B0C947410AF92BF92CF92DF92FC
:1021A000EF92FF920F931F93CF93DF935C016B012C
:1021B0007A0189012417350720F48F2D7901042F26
:1021C000182F65E272E0C5010E94210BD60114961A
:1021D000CD91DC91CE15DF05C8F00C171D0708F472
:1021E000E801D601ED91FC911197EC0FFD1F1081D4
:1021F00010826D917C916E0D7F1DC5010E94BA0BFE
:10220000F60180819181C80FD91F1883C501DF9124
:10221000CF911F910F91FF90EF90DF90CF90BF90E3
:10222000AF900895CF93DF93EC01FB0124813581BA
:102230000E94CC10CE01DF91CF910895DC01ED9189
:10224000FC91309749F08191882331F08613FBCFC0
:10225000DF0111974C93F7CF08952F923F924F9241
:102260005F926F927F928F929F92AF92BF92CF9226
:10227000DF92EF92FF920F931F93CF93DF938C0126
:102280005B017A01FC01448055804114510409F43A
:10229000CCC0FB01648075806114710409F4C5C071
:1022A000FA01C480D580C618D708FC01C081D1814D
:1022B000C114D104B9F4F50160817181CE010E948D
:1022C000FC22EC01009709F4B0C0F7016081718134
:1022D000448155810E949E22F70184819581C80F17
:1022E000D91FE9CFD7FC11C0FB012080318042010A
:1022F000B101CE010E94FC22009709F44AC0EC0112
:10230000C60DD71D8C0C9D1CF3CF3E01F5016081DD
:102310007181CE010E94FC222C01009721F14C0119
:102320008C1A9D0AA401BE01C3010E949E22680C62
:10233000791CF7016081718144815581C3010E943C
:102340009E22F70184809580680C791CF501C48178
:10235000D581C40DD51DF801848195818C0D9D1DFD
:1023600095838483D3CFBE01C301DF91CF911F91A9
:102370000F91FF90EF90DF90CF90BF90AF909F9024
:102380008F907F906F905F904F903F902F900C9424
:10239000CD224814590409F448C0F8018281938180
:1023A00088159905E0F1F8014481558141505109A2
:1023B00057FD3BC0B501C8010E947410EC0197FDA8
:1023C00034C0F50124813581280F391FF80180813F
:1023D0009181820F931F44815581421B530BBC0195
:1023E0008C0D9D1D0E94A722F801848195818C0D82
:1023F0009D1D9583848320813181820F931FFC0171
:102400001082F80180819181F7016081718144819E
:1024100055818C0F9D1F0E949E22AE01C7CFB40133
:10242000C8010E94C90A8111BECFDF91CF911F91CF
:102430000F91FF90EF90DF90CF90BF90AF909F9063
:102440008F907F906F905F904F903F902F90089566
:10245000CF93DF93FC01C081D181209761F08991F6
:10246000882349F0082E000C990B0E948522FE015A
:1024700031978083F4CFDF91CF910895CF93DF938D
:10248000FC01C081D181209761F08991882349F0B6
:10249000082E000C990B0E948D22FE01319780833B
:1024A000F4CFDF91CF910895AF92BF92CF92DF9298
:1024B000EF92FF920F931F93CF93DF938C01DC0178
:1024C000ED90FC901197E114F104E1F11496CD9197
:1024D000DC912097B9F157016501F50181915F0108
:1024E000082E000C990B0E947C22892BA9F72197BA
:1024F000CE0DDF1D8881082E000C990B0E947C22D6
:10250000892B29F0CC15DD0510F02197F3CFAE0112
:102510004F5F5F4F4C195D09D80115965C934E9340
:102520001497EC14FD0420F4B601C7010E949E220A
:10253000D801ED91FC91119714968D919C91E80F23
:10254000F91F1082DF91CF911F910F91FF90EF90B3
:10255000DF90CF90BF90AF900895FC018081918172
:10256000009711F00C94552260E070E0CB010895C3
:102570000C94551F0C94551F0C94EE1F0C94EE1FD9
:10258000FC0181E090E02081222311F090E080E0C6
:10259000089521E0FC012083089508950895CF93C4
:1025A000DF9300D0CDB7DEB78C0169017A0189E8ED
:1025B00093E00E941E0867E071E089E893E00E94C2
:1025C0001E082AE030E0B701A60189E893E00E94E6
:1025D0005E096EE071E089E893E00E941E08B80190
:1025E00089E893E00E941E086BE171E089E893E0BE
:1025F0000E9469081A82198289819A8101969A83B8
:102600008983FACFCF93DF93EC0186179707D1F038
:1026100028812A3049F423E130E040E050E06FE3C4
:1026200071E081E591E00CC0FC013196211110C0F0
:1026300024E130E040E050E06FE371E08BE591E0B1
:102640000E94CF1260E070E0CB01DF91CF9108953E
:10265000DF016E177F0799F021912A3029F420E2DB
:1026600030E040E050E0DBCF211105C021E230E056
:1026700040E050E0E1CF203211F0293049F7BE01AF
:10268000CD018C1B9D0BE1CF40E052EC61E070E08E
:1026900089E893E00E94400665E671E089E893E0EE
:1026A0000C946908CF92DF92EF92FF920F931F93E1
:1026B000CF93DF9365E771E089E893E00E941E08FD
:1026C000C8E4D4E089E893E00E9414058F3F98079E
:1026D000C9F381110AC02CE430E040E050E06FE320
:1026E00071E08BE791E00E94CF128A3081F5188269
:1026F000C854D440D7FD38C084E3C82E84E0D82E17
:1027000008E414E0F12CE12C2097F1F1B8016C0FF2
:102710007D1FC8010E94021361157105A9F1F60120
:10272000619371936F01080F191FC81BD90BFFEF3D
:10273000EF1AFF0A209741F1F80111928F012197BA
:10274000FAE0EF16F10401F763EB71E00FC0883097
:10275000C9F4F4E0C834DF0711F008F0219724E051
:10276000C83CD20708F4AECF6AE971E089E893E08B
:10277000DF91CF911F910F91FF90EF90DF90CF905D
:102780000C9469088993EBCF64E374E0C701DF918F
:10279000CF911F910F91FF90EF90DF90CF900C940D
:1027A000FC190E94F2030E944413C8EBD5E00E947A
:1027B00052132097E1F30E94B805F9CF61307105FB
:1027C00049F06230710551F0672B71F4BC0184E06F
:1027D00090E00895BC016B5F7F4FF9CFBC01665F4D
:1027E0007F4F85E190E008956130710549F06230D6
:1027F000710561F0672B81F4BC0187E090E00895DA
:10280000BC01685F7F4F84E190E00895BC01635E86
:102810007F4F86E290E008956130710549F06230A3
:10282000710561F0672B81F4BC018BE090E00895A5
:10283000BC01645F7F4F81E190E00895BC01625E5E
:102840007F4F82E390E008956130710549F0623076
:10285000710561F0672B81F4BC018CE090E0089574
:10286000BC01635F7F4F8AE190E00895BC01685D21
:102870007F4F88E290E008956130710549F0623041
:10288000710561F0672B81F4BC018AE090E0089546
:10289000BC01655F7F4F80E190E00895BC01645EFC
:1028A0007F4F83E490E008956130710549F0623014
:1028B000710561F0672B81F4BC018BE090E0089515
:1028C000BC01645F7F4F89E190E00895BC016A5DBF
:1028D0007F4F81E490E008956130710549F06230E6
:1028E000710561F0672B81F4BC0187E090E00895E9
:1028F000BC01685F7F4F82E190E00895BC01655E96
:102900007F4F8AE390E00895EF92FF920F931F9319
:10291000CF93DF938C017B01BC0189E893E00E9497
:102920001E08E80109900020E9F72197C01BD10B90
:10293000CE15DF0538F460E289E893E00E942008B4
:102940002196F6CFDF91CF911F910F91FF90EF90DD
:102950000895EF92FF920F931F93CF93DF9300D0D0
:1029600000D000D0CDB7DEB77A018C0126E433E089
:102970003A8329836B837C838D839E83BE016F5F43
:102980007F4F89E893E00E9427080E151F0540F449
:1029900060E289E893E00E9420080F5F1F4FF5CFA7
:1029A00026960FB6F894DEBF0FBECDBFDF91CF9154
:1029B0001F910F91FF90EF900895DC01EC91E431AD
:1029C00040F4F0E0E052FD4F8081082E000C990B9E
:1029D000089529E530E040E050E066ED71E08DEDCE
:1029E00091E00E94CF12DC01EC91E43140F4F0E080
:1029F000E453FD4F8081082E000C990B089525E7C4
:102A000030E040E050E066ED71E08DED91E00E9435
:102A1000CF12CF93DF93EC010E94F314FC0133E05B
:102A2000F695E7953A95E1F7E553FB4F2081022EA5
:102A3000000C330B8770992702C0359527958A952E
:102A4000E2F781E090E020FF1CC0CE010E94F31469
:102A5000FC0123E0F695E7952A95E1F7E853FB4F53
:102A60002081022E000C330B8770992702C0359508
:102A700027958A95E2F790E080E020FF02C082E08F
:102A800090E0DF91CF910895DC011296ED91FC91D9
:102A900013974D915C911197CA018770992721E096
:102AA00030E002C0220F331F8A95E2F783E056958B
:102AB00047958A95E1F7E40FF51F9081662321F091
:102AC000922B9083CD010895209530959223F9CFD4
:102AD000EF92FF920F931F93CF93DF9300D000D01C
:102AE000CDB7DEB78C017B0161307105D9F1623061
:102AF000710561F0672BC1F027E930E040E050E05C
:102B000066ED71E08DED91E00E94CF12C8010E9448
:102B1000F31428EC34E03C832B839A83898361E0AF
:102B2000CE0101960E944415C8010E94F3142BECBB
:102B300034E03C832B839A83898361E0CE01019644
:102B40000E9444156E2DF80180810E9456040F905A
:102B50000F900F900F90DF91CF911F910F91FF90E9
:102B6000EF900895C8010E94F31428EC34E03C83F0
:102B70002B839A83898360E0CE0101960E944415DD
:102B8000C8010E94F3142BEC34E03C832B839A831E
:102B9000898360E0D3CFAF92BF92CF92DF92EF9262
:102BA000FF920F931F93CF93DF935C016B017A0128
:102BB000E90160EA70E089E893E00E94C707F50147
:102BC0006081718189E893E00E94C707F601608106
:102BD000718189E893E00E941E08F701608171818C
:102BE00089E893E00E94C707688179814AE050E054
:102BF00089E893E00E944509F8016081718189E8C4
:102C000093E00E94C70789E893E00E9431088FEFA4
:102C10009FEFDF91CF911F910F91FF90EF90DF9089
:102C2000CF90BF90AF900895EF92FF920F931F93B4
:102C3000CF93DF937C018B01EA0168E970E089E8BA
:102C400093E00E94C707F7016081718189E893E0F2
:102C50000E94C707F8016081718189E893E00E94B2
:102C60001E08BE0189E893E00E941E0889E893E0EF
:102C70000E9431088FEF9FEFDF91CF911F910F914D
:102C8000FF90EF9008958F929F92AF92BF92CF9254
:102C9000DF92EF92FF920F931F93CF93DF93CDB705
:102CA000DEB728970FB6F894DEBF0FBECDBF7B010D
:102CB00084179507B4F585EC93E09A838983415096
:102CC00051095C834B8381ED93E09E838D8385EE78
:102CD00093E098878F838E010F5F1F4F9E012D5FBA
:102CE0003F4FAE014B5F5F4FB701CE0107960E9489
:102CF000CB15892BE9F0D12CC12CC60128960FB633
:102D0000F894DEBF0FBECDBFDF91CF911F910F9121
:102D1000FF90EF90DF90CF90BF90AF909F908F90FB
:102D200008952F3F320709F0A9014817590704F108
:102D3000D70112968D909C9008E413E09CE5A92E93
:102D400093E0B92E6801D801ED918D01E431F8F4DA
:102D5000F0E0EE0FFF1FE65EFC4FB4018081918131
:102D60000E94C422892BE9F4C114D10431F61CC09D
:102D70008CE993E09A838983415051095C834B83AA
:102D800088EA93E09E838D838BEB93E0A2CF2DE3C3
:102D900030E040E050E066ED71E08DED91E00E94A2
:102DA000CF12A016B10671F689E893E09A83898361
:102DB000B7016E5F7F4F47EF51E0CE0101960E9451
:102DC000141699CF2FEF3FEF42E050E00E944316D8
:102DD000009789F0FC0180810E94C0046DEF72E0D1
:102DE000019711F460E073E089E893E00E946908BC
:102DF00090E080E008958FEF9FEF0895CF92DF92EB
:102E0000EF92FF920F931F93CF93DF93EB012FEF7E
:102E10003FEF43E050E00E9443168C01892B81F183
:102E20004AE050E070E060E08C819D810E94452185
:102E30006B017C01C114D104E104F10421F5EC81A2
:102E4000FD8180818033F9F068E870E089E893E0E3
:102E50000E94C7076AEF71E089E893E00E941E08AC
:102E60006C817D8189E893E00E941E0869ED72E023
:102E700089E893E00E94C70789E893E00E9431083F
:102E80008FEF9FEF30C0C8010E94DD140197C9F099
:102E900068E770E089E893E00E94C70769E072E0A4
:102EA00089E893E00E941E086A817B8189E893E0AB
:102EB0000E941E086EE072E089E893E00E941E08FE
:102EC000DBCFC8010E940915019709F040C08FEFC0
:102ED000C816D10409F080F4B601F80180810E947F
:102EE000EA0290E080E0DF91CF911F910F91FF9077
:102EF000EF90DF90CF90089560E870E089E893E06C
:102F00000E94C7076C817D8189E893E00E941E08BA
:102F100060EA72E089E893E00E94C7074AE050E067
:102F200070E060E089E893E00E94450963E272E0A6
:102F300089E893E00E941E084AE050E060E071E0FA
:102F400089E893E00E94450966E272E0B5CF60E748
:102F500070E089E893E00E94C70769E072E089E8C1
:102F600093E00E941E086A817B8189E893E00E94B9
:102F70001E086BE272E0A0CFCF92DF92EF92FF9239
:102F80000F931F93CF93DF9300D0CDB7DEB78C01A3
:102F90007B0123E030E042E050E00E9443166C01E8
:102FA0008FEF9FEFC114D10409F463C00230110503
:102FB000D1F4C6010E9409158130910589F0823053
:102FC000910539F063E472E0892B29F090E080E00C
:102FD00050C069E472E089E893E00E946908F6CF86
:102FE00066E572E0F8CFF7010481158163E472E0D1
:102FF000C8010E94C422892B39F06DE572E0C80136
:103000000E94C422892B31F470E060E0C6010E9466
:103010006815DCCF66E572E0C8010E94C422892BE6
:1030200039F063E672E0C8010E94C422892B19F4CA
:1030300061E070E0EBCF69E472E0C8010E94C42255
:10304000892B39F06AE672E0C8010E94C422892BFC
:1030500019F462E070E0DACF86E793E09A8389831F
:10306000B7016C5F7F4F47EF51E0CE0101960E94A0
:1030700014160F900F90DF91CF911F910F91FF9039
:10308000EF90DF90CF900895EF92FF920F931F93F0
:10309000CF93DF937C018B01EA0160E970E089E85E
:1030A00093E00E94C707B70189E893E00E941E08D9
:1030B000F8016081718189E893E00E941E086881AF
:1030C000798189E893E00E94C70789E893E00E942C
:1030D00031088FEF9FEFDF91CF911F910F91FF90FC
:1030E000EF900895EF92FF920F931F93CF93DF938A
:1030F00000D0CDB7DEB78B012FEF3FEF42E050E0BD
:103100000E9443167C018FEF9FEFE114F10431F12F
:10311000C7010E94DD14029779F087E293E09A8359
:103120008983B8016E5F7F4FAE014F5F5F4F89E0CB
:1031300092E00E94441812C0C7010E94091501972D
:10314000B1F0F70180810E94CF024AE050E0BC015B
:1031500089E893E00E944C0990E080E00F900F9086
:10316000DF91CF911F910F91FF90EF90089580E034
:1031700093E0D5CFCF92DF92EF92FF920F931F9300
:10318000CF93DF9300D0CDB7DEB78B012FEF3FEFAA
:1031900043E050E00E9443166C018FEF9FEFC11493
:1031A000D104D1F1F801E480F58067E772E0C7014E
:1031B0000E94C422892BD9F16BE772E0C7010E94FB
:1031C000C422892BA1F16DEF72E0C7010E94C422D5
:1031D000892B69F16FE772E0C7010E94C422892B35
:1031E000D9F164E872E0C7010E94C422892BA1F1E1
:1031F00060E073E0C7010E94C422892B69F180E678
:1032000093E09A838983B8016C5F7F4F47EF51E069
:10321000CE0101960E9414160F900F90DF91CF916E
:103220001F910F91FF90EF90DF90CF900895F12CB8
:10323000C6010E940915019791F08EE393E09A83ED
:103240008983B8016E5F7F4FAE014F5F5F4F89E0AA
:1032500092E00E944418E0CFFF24F394E9CF6F2D51
:10326000F60180810E94920490E080E0D5CFCF9358
:10327000DF93CDB7DEB762970FB6F894DEBF0FBE0F
:10328000CDBFFC016081718118861F821A86198664
:103290001C861B8646E050E0CE0107960E949522D0
:1032A00086E0FE013796DE01119601900D928A9517
:1032B000E1F786E0FE013196DE01179601900D924E
:1032C0008A95E1F786E0FE013796DE011D960190B2
:1032D0000D928A95E1F72D853E854F85588969893C
:1032E0007A8980E090E062960FB6F894DEBF0FBE58
:1032F000CDBFDF91CF910895CF92DF92EF92FF92F1
:103300000F931F93CF93DF93CDB7DEB728970FB6F8
:10331000F894DEBF0FBECDBF6DE070E089E892E0AB
:103320000E9484146BE170E08EE892E00E948414A5
:1033300064E470E084E992E00E94841465E272E043
:1033400089E893E00E94690809E610E06DE289E8E7
:1033500093E00E94200801501109C1F765E272E074
:1033600089E893E00E94690808EA10E018870F8353
:10337000CE0107960E9437194B835C836D837E8351
:10338000ED80FE80CB80DC8070E060E0C601F7015C
:1033900009954DE050E00E94A91461E070E0C6017B
:1033A000F70109954BE150E00E94A91462E070E03A
:1033B000C601F701099544E450E00E94A91465E2B2
:1033C00072E089E893E00E9469080A5F1F4FF0E00D
:1033D000023D1F0759F690E080E028960FB6F8945A
:1033E000DEBF0FBECDBFDF91CF911F910F91FF9038
:1033F000EF90DF90CF9008956F927F92AF92BF923F
:10340000CF92DF92EF92FF920F931F93CF93DF93B0
:10341000CDB7DEB72E970FB6F894DEBF0FBECDBF87
:103420007C016B01892B09F491C0FB0180819181A2
:1034300008EA10E0892B51F429EA31E040E050E03D
:1034400060EA72E08CEA92E00E94CF1218870F8344
:10345000CE0107960E94371929833A834B835C83F8
:103460006D837E83F601A080B180ED81FE8170E0E6
:1034700060E08B819C810995AB019C01D501712C89
:10348000612CBD9026153705C1F1FA01E60DF71D37
:10349000E491EB1134C0E1112CC09C0121503109A1
:1034A0006216730661F5E0E0023D1E0779F11E87A2
:1034B0000D87CE010D960E9437192F8338874987D3
:1034C0005A876B877C87EF81F885309749F089852B
:1034D0009A85892B29F08B859C85892B09F04AC018
:1034E00020E230E040E050E060EA72E086EC92E0FA
:1034F000ABCFFFEF6F1A7F0AC4CFBB20A1F20A5FE8
:103500001F4F80E0023D180709F0A0CF68E670E089
:1035100089E893E00E94C70764EB72E089E893E0D2
:103520000E941E08F6016081718189E893E00E9483
:103530001E0867EF71E089E893E00E941E0889E8A1
:1035400093E00E943108EE24EA94FE2CC7012E96E7
:103550000FB6F894DEBF0FBECDBFDF91CF911F91A4
:103560000F91FF90EF90DF90CF90BF90AF907F9042
:103570006F900895B601C70109957C01E7CF6F925E
:103580007F928F929F92AF92BF92CF92DF92EF92F3
:10359000FF920F931F93CF93DF93CDB7DEB7A09722
:1035A0000FB6F894DEBF0FBECDBF7B01DC016D907E
:1035B0007C90119712960D911C9163014801B12CDA
:1035C000A12CB601B0E2CB0ED11CE0E28E16910424
:1035D000C8F040E250E0CE0101960E949522D7014A
:1035E000ED91FC910280F381E02D40E250E0BE01BC
:1035F0006F5F7F4FC7010995A80EB91EB0E28B1A05
:103600009108DFCF980185E0369527958A95E1F7F7
:1036100040EE42036001439FD00C1124C00ED11E26
:10362000007EB301600F711FA601CE0101960E94BA
:103630009522D701ED91FC910280F381E02DA60146
:10364000BE016F5F7F4FC70109958A0D9B1DA09634
:103650000FB6F894DEBF0FBECDBFDF91CF911F91A3
:103660000F91FF90EF90DF90CF90BF90AF909F9021
:103670008F907F906F90089502960C94BF1AEBEC98
:10368000F4E0108211821282E8ECF4E010821182E0
:1036900012820895CF93DF93EC016DE474E089E822
:1036A00093E00E94C7076881798189E893E00E94CE
:1036B000C70789E893E00E9431088FEF9FEFDF9101
:1036C000CF910895FC0180818370823069F083304E
:1036D00089F060E0813009F461E084E00E949204A6
:1036E00060E087E00C94920461E084E00E94920420
:1036F00061E0F7CF60E0F9CFFC018181811102C068
:1037000084E681838181815081838081815080839F
:10371000CF010C94621B0F931F93CF93DF93EC01A7
:10372000862F64E60E94DE1C192F4981842F90E0C9
:10373000212F30E0411760F5281B390B223331056A
:10374000B4F404E689811817F1F08F5F602F0E94AE
:10375000DE1C998388818F5F8883CE010E94621B63
:1037600064E070E080E090E00E94C203EBCFCE0105
:103770000E947C1B64E070E080E090E00E94C20345
:1037800089811813F4CFDF91CF911F910F91089584
:10379000821B930B04E6C2976CF48981181799F386
:1037A000CE010E947C1B64E070E080E090E00E940B
:1037B000C203F3CF8981181731F38F5F602F0E9406
:1037C000DE1C998388818F5F8883CE010E94621BF3
:1037D00064E070E080E090E00E94C203EBCFEF92E3
:1037E000FF920F931F93CF93DF9300D0CDB7DEB737
:1037F0007C018B018091CE04811123C061E084E0C3
:103800000E94560461E087E00E94560461E085E072
:103810000E94560461E086E00E94560460E084E065
:103820000E94920460E087E00E94920461E085E0DB
:103830000E94920461E086E00E94920481E08093FD
:10384000CE0481E0E816F10409F445C087EB94E06A
:10385000A2E0EA16F10409F050C04AE050E070E03E
:1038600060E0F801828193810E9445216115710514
:1038700081059105D9F5D8011296ED91FC91208131
:10388000203309F441C065E474E089E893E00E94C4
:10389000C70768EA74E089E893E00E94C707F80167
:1038A0006281738189E893E00E941E086BE774E0EF
:1038B00089E893E00E94C70789E893E00E943108F5
:1038C0008FEF9FEF0F900F90DF91CF911F910F918E
:1038D000FF90EF9008954AE050E06091D00489E8AD
:1038E00093E00E94840990E080E0ECCF643671059B
:1038F0008105910548F085E594E09A838983CE019E
:1039000001960E944A1BDECF8FEC94E00E948B1B35
:10391000EACFEFECF4E0108211820895E9E8F3E0D9
:103920001382128288EE93E0A0E0B0E08483958356
:10393000A683B78380E693E0918380838FEE93E044
:10394000958784878BEA93E09787868785EC90E05C
:10395000918B808B84EC90E0938B828B80EC90E059
:10396000958B848B81EC90E0978B868B82EC90E03A
:10397000918F808F86EC90E0938F828F84E0848F8C
:1039800083E0858F87E0868F85E0878F81E080A345
:1039900008956115710579F0FB0101900020E9F7A8
:1039A0003197AF01461B570BDC01ED91FC91028072
:1039B000F381E02D099490E080E00895991B79E06F
:1039C00004C0991F961708F0961B881F7A95C9F7AF
:1039D00080950895A1E21A2EAA1BBB1BFD010DC004
:1039E000AA1FBB1FEE1FFF1FA217B307E407F507AF
:1039F00020F0A21BB30BE40BF50B661F771F881F8B
:103A0000991F1A9469F760957095809590959B0120
:103A1000AC01BD01CF010895EE0FFF1F0590F49199
:103A2000E02D09945058BB27AA270E942A1D0C9408
:103A3000A41E0E94961E38F00E949D1E20F039F4AC
:103A40009F3F19F426F40C94931E0EF4E095E7FBC7
:103A50000C948D1EE92F0E94B51E58F3BA17620709
:103A600073078407950720F079F4A6F50C94D71E08
:103A70000EF4E0950B2EBA2FA02D0B01B901900189
:103A80000C01CA01A0011124FF27591B99F0593FCD
:103A900050F4503E68F11A16F040A22F232F342F15
:103AA0004427585FF3CF469537952795A795F04063
:103AB0005395C9F77EF41F16BA0B620B730B840B78
:103AC000BAF09150A1F0FF0FBB1F661F771F881F30
:103AD000C2F70EC0BA0F621F731F841F48F4879588
:103AE00077956795B795F7959E3F08F0B0CF93957A
:103AF000880F08F09927EE0F9795879508950E94F3
:103B0000691E08F481E008950E94981D0C94A41E7B
:103B10000E949D1E58F00E94961E40F029F45F3FBF
:103B200029F00C948D1E51110C94D81E0C94931EE8
:103B30000E94B51E68F39923B1F3552391F3951BA9
:103B4000550BBB27AA2762177307840738F09F5FBE
:103B50005F4F220F331F441FAA1FA9F335D00E2E2B
:103B60003AF0E0E832D091505040E695001CCAF798
:103B70002BD0FE2F29D0660F771F881FBB1F26175B
:103B800037074807AB07B0E809F0BB0B802DBF0132
:103B9000FF2793585F4F3AF09E3F510578F00C9401
:103BA0008D1E0C94D81E5F3FE4F3983ED4F38695A7
:103BB00077956795B795F7959F5FC9F7880F911D22
:103BC0009695879597F90895E1E0660F771F881F0E
:103BD000BB1F621773078407BA0720F0621B730BC1
:103BE000840BBA0BEE1F88F7E09508950E94FD1D27
:103BF0006894B1110C94D81E08950E94BD1E88F0DF
:103C00009F5798F0B92F9927B751B0F0E1F0660FA0
:103C1000771F881F991F1AF0BA95C9F714C0B130E1
:103C200091F00E94D71EB1E008950C94D71E672F23
:103C3000782F8827B85F39F0B93FCCF38695779510
:103C40006795B395D9F73EF49095809570956195F9
:103C50007F4F8F4F9F4F0895E89409C097FB3EF424
:103C600090958095709561957F4F8F4F9F4F9923C9
:103C7000A9F0F92F96E9BB279395F6958795779547
:103C80006795B795F111F8CFFAF4BB0F11F460FF07
:103C90001BC06F5F7F4F8F4F9F4F16C0882311F05F
:103CA00096E911C0772321F09EE8872F762F05C073
:103CB000662371F096E8862F70E060E02AF09A950E
:103CC000660F771F881FDAF7880F9695879597F903
:103CD0000895990F0008550FAA0BE0E8FEEF16169D
:103CE0001706E807F907C0F012161306E407F507F0
:103CF00098F0621B730B840B950B39F40A2661F064
:103D0000232B242B252B21F408950A2609F4A14006
:103D1000A6958FEF811D811D089597F99F6780E813
:103D200070E060E008959FEF80EC089500240A940D
:103D30001616170618060906089500240A94121686
:103D40001306140605060895092E0394000C11F4B9
:103D5000882352F0BB0F40F4BF2B11F460FF04C066
:103D60006F5F7F4F8F4F9F4F089557FD9058440FBF
:103D7000551F59F05F3F71F04795880F97FB991FCA
:103D800061F09F3F79F08795089512161306140687
:103D9000551FF2CF4695F1DF08C016161706180614
:103DA000991FF1CF86957105610508940895E894EF
:103DB000BB2766277727CB0197F908950E94691ED4
:103DC00008F48FEF08950E94F61E0C94A41E0E9422
:103DD000961E38F00E949D1E20F0952311F00C9441
:103DE0008D1E0C94931E11240C94D81E0E94B51E97
:103DF00070F3959FC1F3950F50E0551F629FF0013E
:103E0000729FBB27F00DB11D639FAA27F00DB11D56
:103E1000AA1F649F6627B00DA11D661F829F2227DF
:103E2000B00DA11D621F739FB00DA11D621F839F66
:103E3000A00D611D221F749F3327A00D611D231F3C
:103E4000849F600D211D822F762F6A2F11249F578A
:103E500050409AF0F1F088234AF0EE0FFF1FBB1F8D
:103E6000661F771F881F91505040A9F79E3F51054C
:103E700080F00C948D1E0C94D81E5F3FE4F3983EA6
:103E8000D4F3869577956795B795F795E7959F5FF6
:103E9000C1F7FE2B880F911D9695879597F9089588
:103EA0000E94691E880B990B08950F931F93CF935F
:103EB000DF938230910510F482E090E0E091D3042A
:103EC000F091D40430E020E0B0E0A0E0309799F425
:103ED0002115310509F447C0281B390B2430310561
:103EE000C0F58A819B816115710571F1FB01938396
:103EF0008283FE0111C040815181028113814817E4
:103F00005907F8F04817590799F4109761F012967D
:103F10000C93129713961C933296CF01DF91CF9199
:103F20001F910F9108950093D3041093D404F4CFFC
:103F30002115310519F04217530718F49A01BD01F4
:103F4000EF01DF01F801C2CF9093D4048093D30432
:103F5000D0CFFE01E20FF31F8193919322503109DC
:103F600039832883DACF2091D1043091D204232BD6
:103F700041F420910301309104013093D204209345
:103F8000D10420910101309102012115310541F444
:103F90002DB73EB74091050150910601241B350B0A
:103FA000E091D104F091D204E217F307A0F42E1BA4
:103FB0003F0B2817390778F0AC014E5F5F4F24178D
:103FC000350748F04E0F5F1F5093D2044093D10441
:103FD00081939193A2CFF0E0E0E09FCFCF93DF9366
:103FE0000097E9F0FC01329713821282C091D3044A
:103FF000D091D404DE0130E020E02097A1F42081AC
:104000003181820F931F2091D1043091D20428175F
:10401000390709F067C0F093D204E093D104DF912F
:10402000CF910895DA01AE17BF0708F040C012968D
:104030004D915C9113979D014115510599F7D90157
:104040001396FC93EE9312974D915D91A40FB51FBB
:10405000EA17FB0779F4808191810296840F951FFE
:10406000D90111969C938E938281938113969C9390
:104070008E931297B0E0A0E08A819B810097B9F5FA
:10408000FE0181919191E80FF91F8091D1049091E7
:10409000D2048E179F0719F6109761F51092D40479
:1040A0001092D304D093D204C093D104B8CFB38379
:1040B000A28340815181840F951FA817B90771F41D
:1040C0004E5F5F4F8D919C911197480F591F5183FF
:1040D000408312968D919C919383828321153105A3
:1040E00009F0ADCFF093D404E093D30498CFDE0170
:1040F000EC01C2CF13961C921E921297D3CFB0E060
:10410000A0E0E5E8F0E20C94DF238C01009751F485
:10411000CB010E94551F8C01C801CDB7DEB7EEE080
:104120000C94FB23FC01E60FF71F9C012250310980
:10413000E217F30708F4A6C0D901CD91DC911197DD
:10414000C617D70798F0C530D10530F3CE010497D4
:104150008617970708F3C61BD70B2297C193D193F5
:104160006D937C93CF010E94EE1FD6CF4B018C1A2A
:104170009D0A5C01AC0EBD1EA091D304B091D40485
:10418000712C612CF12CE12C109731F58091D10428
:104190009091D2048A159B0509F065C066167706D2
:1041A00008F061C08091010190910201009741F4F3
:1041B0008DB79EB74091050150910601841B950B68
:1041C000E817F90708F05EC0F093D204E093D10439
:1041D000F90171836083A0CF8D919C911197AA15ED
:1041E000BB05B9F56C0142E0C40ED11CC814D9045A
:1041F00080F1AE01461B570B480F591F1296DC90F9
:1042000012971396AC915A01B2E0AB0EB11CB5E017
:10421000AB16B10480F0D282A38351834083D901CD
:104220006D937C93E114F10479F0D7011396FC931C
:10423000EE93129771CF22968C0F9D1FF9019183F7
:104240008083ED2DFA2FEECFF093D404E093D304C6
:1042500063CF6816790608F43C017D0112960D9033
:10426000BC91A02D91CFCB010E94551F7C010097DE
:1042700049F0AE01B8010E949E22C8010E94EE1FC3
:1042800087014ACF10E000E047CFB0E0A0E0EBE4C8
:10429000F1E20C94DD235C016B018A01611571056B
:1042A00019F0FB01918380830115110551F0C801BC
:1042B0000297839730F040E030E020E090E0B6C015
:1042C0005E01E501F9908F2D90E00E947C22892B00
:1042D000B9F7FDE2FF1256C0F880E5012296EE2400
:1042E000E3940115110509F4D2C00031110509F05C
:1042F00051C020E3F21273C088818F7D883509F0A8
:10430000BAC0F9802296EE2DE26000E110E0812C27
:10431000912CA12C58E0B52E20E060E070E0CB019C
:104320002801012E000C66087708F0EDFF0DFA3029
:1043300060F03FEB3F0DF9EC3A3130F03FE93F0DD3
:104340003A3108F055C0F9EAFF0DF01711060CF0EC
:104350004FC027FD15C086169706A806B90678F047
:10436000A30192010E94C0236F0F711D811D911D39
:1043700021E0613071058105F0E89F0708F02FEF1B
:10438000F990D3CF2BE2F21203C0F880E501229618
:10439000E12CA7CF0830110521F1CCF4EE2D812CB2
:1043A000912CA12C40E4B42E0230110509F4B4CFB5
:1043B00060E070E080E090E89801012E000C440B72
:1043C000550B0E94EA1C49015A01EE2DA5CFEE2D96
:1043D0000A30110509F462C00031110549F7EE2DCC
:1043E00094CFEE2D812C912CA12C20E1B22E94CFD4
:1043F000C114D10431F0222309F12197F601D183B0
:10440000C08327FF21C06FEF7FEF8FEF9FE7EE2084
:1044100021F060E070E080E090E822E230E030934C
:10442000D6042093D504462F372F282F642F732FBF
:10443000822FCDB7DEB7E0E10C94F923E1FF04C091
:104440002297F601D183C083EE2041F090958095AC
:10445000709561957F4F8F4F9F4FE5CF97FFE3CFCB
:1044600082E290E09093D6048093D5046FEF7FEFC3
:104470008FEF9FE7D8CF90E3F92E0115110509F0D2
:1044800089CFEE2D30E3F32E08E010E0ABCFF0E360
:10449000FF1609F431CFEE2D0AE010E08CEC882EE7
:1044A000982CA82C8CE0B82E37CF1F93FC019927AD
:1044B0008827BC01E89411911032E9F3193010F00B
:1044C0001E30C8F31B3251F01D3249F4689406C007
:1044D0000E944623610F711D811D911D1191105382
:1044E0001A30B0F33EF490958095709561957F4FAA
:1044F0008F4F9F4F1F91089591110C94AD238032DF
:1045000019F089508550C8F7089591110895815484
:104510008A5108F4805E855A089591110895815654
:104520008A5108F4805285580895FB01DC0102C0CD
:1045300005900D9241505040D8F70895FB01DC01E1
:1045400002C001900D9241505040D8F7089568176D
:10455000790768F4FB01DC01E40FF51FA40FB51F18
:1045600002C002900E9241505040D8F708950C942A
:104570009E22FC018191861721F08823D9F7992783
:1045800008953197CF010895FB01DC018D910190D1
:1045900080190110D9F3990B0895FB01DC010190FA
:1045A0000D920020E1F70895FB01DC0141505040DD
:1045B00030F08D910190801919F40020B9F7881B13
:1045C000990B0895FB01DC014150504048F00190E7
:1045D0000D920020C9F701C01D9241505040E0F7F4
:1045E0000895FC0181E090E00190061609F4CF01E6
:1045F0000020D1F701970895FB0151915523A9F0AF
:10460000BF01DC014D9145174111E1F759F4CD018E
:104610000190002049F04D9140154111C9F3FB0173
:104620004111EFCF81E090E00197089545325105A7
:1046300020F4423010F00C942123FB011082CB01B6
:104640000895BB274A3031F4992322F4BDE29095B6
:1046500081959F4F0C9494232532310520F422300C
:1046600010F00C943723FA011082CA010895BB2779
:104670002A3051F4992342F4BDE2909580957095CB
:1046800061957F4F8F4F9F4F0C946723592F482F71
:10469000372F262F660F771F881F991F660F771FEA
:1046A000881F991F620F731F841F951F660F771F46
:1046B000881F991F08952532310520F4223010F00B
:1046C0000C946623FA011082CA010895BB27FA01EF
:1046D000A62F6217710581059105330B30FB66F03B
:1046E000AA27660F771F881F991FAA1FA21710F00D
:1046F000A21B63953850A9F7A05DAA3308F0A95D05
:10470000A19336F7B111B1931082CA010C94B02372
:104710004532510520F4423010F00C949323FB01F4
:104720001082CB010895BB27FB015527AA27880FCC
:10473000991FAA1FA41710F0A41B83955051B9F715
:10474000A05DAA3308F0A95DA193009779F7B11194
:10475000B1931192CB010C94B02399278827089527
:10476000DC01FC01672F71917723E1F7329704C0D8
:104770007C916D9370836291AE17BF07C8F3089563
:10478000DB018F939F930E94D023BF91AF91A29F93
:10479000800D911DA39F900DB29F900D112408953F
:1047A0000E941224A59F900DB49F900DA49F800D90
:1047B000911D112408952F923F924F925F926F9214
:1047C0007F928F929F92AF92BF92CF92DF92EF92A1
:1047D000FF920F931F93CF93DF93CDB7DEB7CA1B22
:1047E000DB0B0FB6F894DEBF0FBECDBF09942A884D
:1047F000398848885F846E847D848C849B84AA84F5
:10480000B984C884DF80EE80FD800C811B81AA8181
:10481000B981CE0FD11D0FB6F894DEBF0FBECDBF4C
:10482000ED010895A29FB001B39FC001A39F700D39
:10483000811D1124911DB29F700D811D1124911DA8
:064840000895F894FFCF7B
:10484600010000D7042000206C696E6520004173CA
:1048560073657274696F6E3A202200222066616960
:104866006C65642E20476F696E6720696E746F20D1
:10487600696E66696E697465206C6F6F702E006371
:104886006F6D6D616E645F70617273696E672E68BD
:10489600006320213D20275C6E27006320213D20F8
:1048A600275C302700496E697469616C697A696EA4
:1048B600672E2E2E00696E6F3E2000737461746938
:1048C600635F636173743C636861723E28636872F8
:1048D6002920213D20275C3027004572726F723AED
:1048E60020436F6D6D616E6420746F6F206C6F6E08
:1048F600672E004572726F723A20546F6F206D6199
:104906006E7920746F6B656E7320696E20636F6DB0
:104916006D616E642E0050696E732E6800212255FB
:104926006E726561636861626C6520636F646520A1
:10493600706174682E2200272E0043616E6E6F74BC
:1049460020706172736520270050696E200020690F
:1049560073206E6F742050574D2D656E61626C65C5
:10496600642E002C20002920292E00206973206E39
:104976006F7420696E204F5554505554206D6F64E6
:10498600652E00494E50555400494E5055545F50BF
:10499600554C4C5550004F555450555400696E7047
:1049A6007574006F757470757400696E7075745FD8
:1049B60070756C6C7570006C6F77004C4F570068A3
:1049C6006967680048494748004E616D6500557340
:1049D600616765004465736372697074696F6E0020
:1049E600436F6D6D616E642E6370700061726776E1
:1049F6005B305D00556E6B6E6F776E20636F6D6D0D
:104A0600616E642027002A7468697300000102033E
:104A16000405060708090A0B0C0D0E0F10111213D8
:104A26000000000100010100000001010000020277
:104A360002020202360037003800390031300031F8
:104A46003100313200313300413000413100413212
:104A560000413300413400413500FD0200030303E9
:104A6600060315031803F402F602F802FA02FC0222
:104A7600FF020203050308030B030E0311031403CD
:104A86001703000000003C1B000102030405060793
:104A960008090A0B0C0D0E0F10111213000000006E
:104AA60041059E07E9041405FB0436056E616E0098
:104AB600696E66006F76660000000000CE129E07E3
:00000001FF
