:100000000C94A7030C9402040C942F040C94CF03BB
:100010000C94CF030C94CF030C94CF030C94CF0318
:100020000C94CF030C94CF030C94CF030C94CF0308
:100030000C94CF030C94CF030C94CF030C94CF03F8
:100040000C94D7040C94CF030C940E070C94510716
:100050000C94CF030C94CF030C94CF030C94CF03D8
:100060000C94CF030C94CF034572726F723A200048
:100070004572726F723A20004572726F723A2000B8
:100080008D17BC00B5150B1D1804CD15531BC703E8
:10009000E515601A7603FD15971C16031516761BD9
:1000A000AE022D161A2042014516B01E62025D16E0
:1000B000531FE2017516921F7D018D1668656C70E5
:1000C0000068656C70005072696E742074686973A2
:1000D0002068656C70206D656E752E00496E7661C6
:1000E0006C69642070696E206E616D652027002048
:1000F000617267756D656E74732E00272065787068
:1001000065637473206174206D6F73742000436F96
:100110006D6D616E6420270020617267756D656E7C
:1001200074732E0027206578706563747320617482
:10013000206C656173742000436F6D6D616E642087
:10014000270077696E646F770077696E646F772038
:100150005B4F50454E2F434C4F53455D00476574F0
:10016000206F7220736574207468652077696E64EF
:100170006F7720706F736974696F6E2E00636865A6
:10018000636B656E67696E655F6C69676874006351
:100190006865636B656E67696E655F6C69676874D7
:1001A000205B4F4E2F4F46465D00476574206F72AF
:1001B000207365742077686574686572207468655B
:1001C00020636865636B20656E67696E65206C6986
:1001D000676874206973206F6E206F72206F666687
:1001E0002E00636865636B656E67696E655F737427
:1001F0006174757300636865636B656E67696E65CE
:100200005F73746174757300436865636B2077680E
:100210006574686572207468657265206973206111
:100220002070726F626C656D2077697468207468E5
:100230006520656E67696E65206576656E207768F6
:10024000656E2074686520636865636B20656E6702
:10025000696E65206C69676874206973206F6666D3
:100260002E00686561646C69676874730068656115
:10027000646C6967687473205B4F4E2F4F46465D10
:10028000004D6F64696679206F72207175657279AF
:1002900020746865207374617465206F66207468CB
:1002A0006520686561646C69676874732E00616EAF
:1002B000616C6F67777269746500616E616C6F67FE
:1002C0007772697465203C70696E3E203C76616C83
:1002D00075653E00447269766520746865206769BB
:1002E00076656E2050574D2070696E20776974686E
:1002F00020612070756C736520776964746820696B
:100300006E207468652072616E6765205B302C20FA
:10031000323536292E00616E616C6F6772656164DB
:1003200000616E616C6F6772656164203C70696E1C
:100330003E0053686F772074686520616E616C6F52
:100340006720766F6C746167652072656164696EA1
:100350006720696E207468652072616E6765205B36
:10036000302C20313032342920666F722074686559
:100370002070696E2E006469676974616C777269B8
:100380007465006469676974616C7772697465206B
:100390003C70696E3E203C76616C75653E0044722F
:1003A0006976652074686520676976656E20706976
:1003B0006E204849474820283129206F72204C4F31
:1003C00057202830292E006469676974616C726552
:1003D0006164006469676974616C72656164203C82
:1003E00070696E3E00526561642077686574686567
:1003F000722074686520676976656E2070696E206A
:100400006973204849474820283129206F72204CC1
:100410004F57202830292E0070696E6D6F6465007B
:1004200070696E6D6F6465203C70696E3E205B6D17
:100430006F64655D00476574206F7220736574207A
:10044000746865206D6F646520666F7220746865DE
:1004500020676976656E2070696E2E004572726F36
:10046000723A2000206973206E6F74206375727277
:10047000656E746C7920696E204F55545055542028
:100480006D6F64652E00496E76616C6964206C6FD7
:10049000676963206C6576656C2027004572726F12
:1004A000723A20004572726F723A20004572726F84
:1004B000723A20004572726F723A200020697320F0
:1004C0006F75742D6F662D72616E676520666F7231
:1004D00020616E616C6F67777269746520286D7535
:1004E000737420626520696E207468652072616E85
:1004F0006765205B00272061732061206465636964
:100500006D616C20696E746567657220696E20612B
:100510006E616C6F6777726974652E002069732055
:100520006E6F7420696E20494E505554206F7220B2
:10053000494E5055545F50554C4C5550206D6F648A
:10054000652E00206973206E6F7420616E20616ECD
:10055000616C6F672070696E2E00496E76616C6900
:10056000642070696E206D6F64652027004572728B
:100570006F723A20004578706563746564206F6E11
:1005800065206F6620276F6E272C20274F4E272C63
:1005900020276F6666272C206F7220274F4646273C
:1005A0002E00436F6D6D616E642027686561646C19
:1005B0006967687473272074616B657320617420A8
:1005C0006D6F7374203120617267756D656E742E66
:1005D000004578706563746564206F6E65206F6692
:1005E00020276F6E272C20274F4E272C20276F6641
:1005F00066272C206F7220274F4646272E00436F18
:100600006D6D616E642027636865636B656E6769F5
:100610006E655F6C69676874272074616B65732011
:100620006174206D6F7374203120617267756D6520
:100630006E742E00436F6D6D616E64202763686574
:10064000636B656E67696E655F737461747573273C
:100650002074616B6573206E6F20617267756D65C4
:100660006E74732E00496E76616C696420617267E6
:10067000756D656E7420746F20636F6D6D616E644F
:10068000202777696E646F77272E202056616C696A
:10069000642076616C7565732061726520274F5008
:1006A000454E272C20276F70656E272C2027434C42
:1006B0004F5345272C206F722027636C6F7365277B
:1006C0002E00436F6D6D616E64202777696E646FD5
:1006D00077272074616B6573206174206D6F73746C
:1006E000206F6E6520617267756D656E7400000025
:1006F00000070002010000030406000000000000E3
:1007000000000102040810204080010204081020AB
:100710000102040810200404040404040404020276
:10072000020202020303030303030000000023008C
:100730002600290000000000250028002B000000F2
:100740000000240027002A00551AAA21AF211124F5
:100750001FBECFEFD8E0DEBFCDBF14E0A0E0B1E018
:10076000E0E8F2E502C005900D92A837B107D9F78D
:1007700025E0A8E7B4E001C01D92AF33B207E1F76E
:1007800013E0C7EAD3E004C02197FE010E942122B2
:10079000C43AD107C9F70E94A4150C943E290C94C1
:1007A00000008230E8F4E82FF0E0EE0FFF1FE85879
:1007B000FB4F71836083813041F0909169009C7F91
:1007C000942B90936900E89A089580916900837F43
:1007D000440F551F440F551F842B80936900E99ADD
:1007E0000895823060F4282F30E0813049F0E89895
:1007F000220F331FF901E858FB4F11821082089530
:10080000E998F6CF1F920F920FB60F9211242F93F3
:100810003F934F935F936F937F938F939F93AF9388
:10082000BF93EF93FF938091780490917904892B83
:1008300029F0E0917804F09179040995FF91EF9106
:10084000BF91AF919F918F917F916F915F914F91E8
:100850003F912F910F900FBE0F901F9018951F92F0
:100860000F920FB60F9211242F933F934F935F93E4
:100870006F937F938F939F93AF93BF93EF93FF9368
:1008800080917A0490917B04892B29F0E0917A047D
:10089000F0917B040995FF91EF91BF91AF919F91EA
:1008A0008F917F916F915F914F913F912F910F9019
:1008B0000FBE0F901F9018958093000108958E3001
:1008C00008F08E502091000190E4299F900111249E
:1008D0008770822B80937C0080917A008064809363
:1008E0007A0080917A0086FDFCCF8091780090910B
:1008F000790008951F93CF93DF93182FEB0161E0E8
:100900000E94E605209739F460E0812FDF91CF91B6
:100910001F910C942206CF3FD10511F461E0F5CF71
:10092000E12FF0E0E251F94FE491E33031F140F48E
:10093000E130B1F0E230E1F0C038D1052CF3EECF78
:10094000E63029F1E73059F1E430B1F780918000C9
:10095000806280938000D0938B00C0938A0004C093
:1009600084B5806884BDC7BDDF91CF911F91089584
:1009700084B5806284BDC8BDF7CF80918000806857
:1009800080938000D0938900C0938800EDCF809140
:10099000B00080688093B000C093B300E5CF809131
:1009A000B00080628093B000C093B400DDCF1F928E
:1009B0000F920FB60F9211242F933F938F939F9313
:1009C000AF93BF9380917C0490917D04A0917E04AD
:1009D000B0917F043091840423E0230F2D3758F524
:1009E0000196A11DB11D2093840480937C049093F3
:1009F0007D04A0937E04B0937F0480918004909145
:100A00008104A0918204B09183040196A11DB11DBF
:100A10008093800490938104A0938204B093830414
:100A2000BF91AF919F918F913F912F910F900FBEEA
:100A30000F901F90189526E8230F0296A11DB11D57
:100A4000D2CF2FB7F89460917C0470917D0480918F
:100A50007E0490917F042FBF08953FB7F894809152
:100A6000800490918104A0918204B091830426B502
:100A7000A89B05C02F3F19F00196A11DB11D3FBFD6
:100A8000BA2FA92F982F8827BC01CD01620F711DA5
:100A9000811D911D42E0660F771F881F991F4A959F
:100AA000D1F70895CF92DF92EF92FF92CF93DF9329
:100AB0006B017C010E942D05EB01C114D104E104FE
:100AC000F10439F4DF91CF91FF90EF90DF90CF9058
:100AD00008950E942D056C1B7D0B683E734068F3E2
:100AE00081E0C81AD108E108F108C851DC4FE5CF10
:100AF000019739F0880F991F880F991F0297019766
:100B0000F1F70895789484B5826084BD84B58160DE
:100B100084BD85B5826085BD85B5816085BDEEE605
:100B2000F0E0808181608083E1E8F0E010828081E4
:100B300082608083808181608083E0E8F0E0808152
:100B400081608083E1EBF0E0808184608083E0EB72
:100B5000F0E0808181608083EAE7F0E0808184605A
:100B600080838081826080838081816080838081B6
:100B7000806880831092C1000895833081F028F44A
:100B8000813099F08230A9F008958630A9F087303D
:100B9000C9F08430B1F4809180008F7D03C08091D2
:100BA00080008F7780938000089584B58F7784BD0F
:100BB000089584B58F7DFBCF8091B0008F778093AF
:100BC000B00008958091B0008F7DF9CFCF93DF936F
:100BD00090E0FC01EE5FF84F24918A5E984FFC0193
:100BE00084918823C9F090E0880F991FFC01E25C92
:100BF000F84FA591B491FC01EC5CF84FC591D491EC
:100C000061110DC09FB7F8948C91209582238C932D
:100C10008881282328839FBFDF91CF910895623078
:100C200051F49FB7F8943C91822F809583238C9345
:100C3000E8812E2BEFCF8FB7F894EC912E2B2C93CD
:100C40008FBFEACF1F93CF93DF93162F282F30E06B
:100C5000F901E251F94F8491F901EE5FF84FD49117
:100C6000F901EA5EF84FC491CC23A1F081110E94F2
:100C7000BD05EC2FF0E0EE0FFF1FEC5CF84FA591E7
:100C8000B4918FB7F894EC91111108C0D095DE2380
:100C9000DC938FBFDF91CF911F910895DE2BF8CFAA
:100CA000CF93DF93282F30E0F901E251F94F84917F
:100CB000F901EE5FF84FD491F901EA5EF84FC49163
:100CC000CC23A1F081110E94BD05EC2FF0E0EE0FC6
:100CD000FF1FE65DF84FA591B491EC91ED2381E003
:100CE00090E009F480E0DF91CF91089580E090E0FA
:100CF000FACFFC0124853585F901E05CFF4F808146
:100D000091812E5B3F4FF90120813181821B930B32
:100D10008F7399270895FC0184859585FC01E05C1B
:100D2000FF4F408151813296208131814217530714
:100D300041F020813181820F931FFC01808190E07E
:100D400008958FEF9FEF0895DC011C968D919C9183
:100D5000FC01E05CFF4F408151813296208131815E
:100D60004217530781F020813181820F931FDC01EC
:100D70008C91208131812F5F3F4F2F733327318337
:100D8000208390E008958FEF9FEF0895FC0191A1DB
:100D9000992329F0A489B5898C9186FFF9CF11A2F6
:100DA0000895CF93DF93FC0126853785D901A05C98
:100DB000BF4F8D919C91119701968F739927E901EF
:100DC000CE5BDF4F4881598148175907D9F34D91C0
:100DD0005C91240F351FD9016C93A685B785A05C63
:100DE000BF4F11969C938E93A689B7898C91978D4E
:100DF00021E030E001C0220F9A95EAF7822B8C9314
:100E000081E081A30488F589E02D8081806480835E
:100E100081E090E0DF91CF91089508951F920F92A5
:100E20000FB60F9211242F934F935F938F939F933D
:100E3000EF93FF938091C00082FD27C02091C600F0
:100E400080912B0590912C0540912D0550912E05F8
:100E500001968F7399274817590759F0E0912B0590
:100E6000F0912C05E551FB4F208390932C05809346
:100E70002B05FF91EF919F918F915F914F912F9152
:100E80000F900FBE0F901F9018958091C600F1CF64
:100E900085E894E00E947906892B11F00C940D07E7
:100EA00008951F920F920FB60F9211242F933F9324
:100EB0008F939F93EF93FF932091E7043091E80481
:100EC0008091E9049091EA042817390781F4809110
:100ED000C1008F7D8093C100FF91EF919F918F9111
:100EE0003F912F910F900FBE0F901F901895E0919A
:100EF000E904F091EA04E955FB4F20818091E9046F
:100F00009091EA0401968F7399279093EA04809355
:100F1000E9042093C600E0CF8F929F92AF92BF92D8
:100F2000CF92DF92EF92FF920F931F93CF93DF93B5
:100F3000CDB7DEB7FC011382128288EE93E0A0E009
:100F4000B0E084839583A683B78388E594E091839A
:100F500080837587648757874687318B208B138BF7
:100F6000028BF58AE48AD78AC68AB18EA08E938EC8
:100F7000828E8F85848F8889858F8989868F8A89DB
:100F8000878F8B8980A3DF91CF911F910F91FF9065
:100F9000EF90DF90CF90BF90AF909F908F9008958B
:100FA000CF92DF92EF92FF92CF93DF93EC016A0131
:100FB0007B01C11481EED806E104F10409F04FC0B1
:100FC000EC89FD89108260E874E88EE190E0A70169
:100FD00096010E94FF21215031094109510956957E
:100FE000479537952795E889F9893083EA89FB8900
:100FF000208319A2EE89FF8920813C8D81E090E059
:10100000AC0101C0440F3A95EAF7242B2083EE8906
:10101000FF8920813D8DAC0101C0440F3A95EAF76C
:10102000242B2083EE89FF8920813E8DAC0101C0F5
:10103000440F3A95EAF7242B2083EE89FF8920811B
:101040003F8D01C0880F3A95EAF78095822380830F
:10105000DF91CF91FF90EF90DF90CF900895EC89D2
:10106000FD8928A181E090E001C0880F2A95EAF768
:10107000808360E079E08DE390E0A70196010E9413
:10108000FF2121503109410951095695479537955E
:101090002795211580E1380708F092CFA4CFCF9291
:1010A000DF92EF92FF921F93CF93DF93EC016A01DF
:1010B0007B01122FC11481EED806E104F10409F07E
:1010C00052C0EC89FD89108260E874E88EE190E0FE
:1010D000A70196010E94FF212150310941095109C0
:1010E0005695479537952795E889F9893083EA8998
:1010F000FB892083E88DF98D1083EE89FF8920819B
:101100003C8D81E090E0AC0101C0440F3A95EAF7D4
:10111000242B2083EE89FF8920813D8DAC0101C005
:10112000440F3A95EAF7242B2083EE89FF8920812A
:101130003E8DAC0101C0440F3A95EAF7242B208381
:10114000EE89FF8920813F8D01C0880F3A95EAF72B
:10115000809582238083DF91CF911F91FF90EF9044
:10116000DF90CF900895EC89FD8928A181E090E07F
:1011700001C0880F2A95EAF7808360E079E08DE36B
:1011800090E0A70196010E94FF21215031094109F9
:1011900051095695479537952795211580E13807D0
:1011A00008F08FCFA1CFCF93DF93FC018685978581
:1011B000DC01A05CBF4F8E5B9F4F4D915C911197FE
:1011C000EC012881398142175307B9F7A689B789FD
:1011D0004C91248D81E090E0BC0102C0660F771F26
:1011E0002A95E2F79B01209524232C93A689B789A1
:1011F0004C91258DEC0102C0CC0FDD1F2A95E2F742
:101200009E01209524232C93A689B7894C91268D85
:10121000BC0102C0660F771F2A95E2F79B0120955B
:1012200024232C93A689B7892C91378D01C0880F70
:101230003A95EAF7809582238C9384859585FC0105
:10124000EE5BFF4F20813181805C9F4FEC01398341
:101250002883DF91CF91089581E00895CF92DF92A6
:10126000EF92FF920F931F93CF93DF936C017B015B
:10127000E40EF51E10E000E06E157F0571F0EB0145
:10128000D601ED91FC910190F081E02D6991C601AC
:101290000995080F191FBE01EFCFC801DF91CF914B
:1012A0001F910F91FF90EF90DF90CF900895EF92F4
:1012B000FF920F931F93CF93DF937C018B01D0E0BC
:1012C000C0E0F80164910F5F1F4F662359F0D7010A
:1012D000ED91FC910190F081E02DC7010995C80FB7
:1012E000D91FEFCFCE01DF91CF911F910F91FF90CA
:1012F000EF900895AF92BF92CF92DF92EF92FF925C
:101300000F931F93CF93DF937C016B01D0E0C0E07C
:1013100010E000E0D60114968D919C91C817D90772
:1013200088F4D701ED91FC91A080B180BE01C60187
:101330000E944711682FC701F5010995080F191F71
:101340002196E8CFC801DF91CF911F910F91FF90B7
:10135000EF90DF90CF90BF90AF9008950C94EA216A
:10136000DC01ED91FC910190F081E02D0994DB010D
:10137000ED91FC9111970190F081E02DBC01CD0120
:1013800009940F931F93CF93DF93EC016DE00E94BC
:10139000B0098C016AE0CE010E94B009800F911F54
:1013A000DF91CF911F910F9108950F931F93CF93CA
:1013B000DF93EC010E9457098C01CE010E94C10904
:1013C000800F911FDF91CF911F910F9108950F937F
:1013D0001F93CF93DF93EC010E947A098C01CE0119
:1013E0000E94C109800F911FDF91CF911F910F9132
:1013F00008950F931F93CF93DF93EC010E94EA218E
:101400008C01CE010E94C109800F911FDF91CF9105
:101410001F910F9108950F931F93CF93DF93EC01CA
:101420000E94B0098C01CE010E94C109800F911F5A
:10143000DF91CF911F910F9108950F931F93CF9339
:10144000DF93EC010E94B7098C01CE010E94C10913
:10145000800F911FDF91CF911F910F9108954F92AF
:101460005F926F927F929F92AF92BF92CF92DF92E4
:10147000EF92FF920F931F93CF93DF93CDB7DEB719
:10148000A1970FB6F894DEBF0FBECDBF5C016A0115
:101490007B01922E19A281E0821710F08AE0982E2B
:1014A0008E010F5D1F4F492C512C712C612CC701EF
:1014B000B601A30192010E94FF218C2D929E8019FA
:1014C00011248A3034F5805DF80182938F01C414B1
:1014D000D504E604F704D0F4BF01C5010E94EA2157
:1014E000A1960FB6F894DEBF0FBECDBFDF91CF91AE
:1014F0001F910F91FF90EF90DF90CF90BF90AF9032
:101500009F907F906F905F904F90089569017A014E
:10151000CECF895CD9CFCF92DF92EF92FF920F931B
:101520001F93CF93DF93EC016A017B0121153105F5
:1015300079F4E881F9810190F081E02D642FDF9149
:10154000CF911F910F91FF90EF90DF90CF90099472
:101550002A303105E9F42AE0F7FE1AC06DE20E9454
:10156000B0098C0144275527BA014C195D096E0951
:101570007F092AE0CE010E942F0A800F911FDF9180
:10158000CF911F910F91FF90EF90DF90CF90089532
:10159000B701A601CE01DF91CF911F910F91FF906E
:1015A000EF90DF90CF900C942F0A9A01AB01770F48
:1015B000660B770B0C948B0A0F931F93CF93DF93DB
:1015C000EC010E94D50A8C01CE010E94C109800F56
:1015D000911FDF91CF911F910F9108950F931F934A
:1015E000CF93DF93EC010E948B0A8C01CE010E9405
:1015F000C109800F911FDF91CF911F910F91089525
:101600002115310541F4DC01ED91FC910190F0814F
:10161000E02D642F09940C942F0A9A01462F50E074
:1016200070E060E00C94000B0F931F93CF93DF9357
:10163000EC010E940D0B8C01CE010E94C109800FAC
:10164000911FDF91CF911F910F9108959A01AB01E6
:1016500070E060E00C94000B0F931F93CF93DF9327
:10166000EC010E94260B8C01CE010E94C109800F63
:10167000911FDF91CF911F910F9108950F931F93A9
:10168000CF93DF93EC010E94000B8C01CE010E94EE
:10169000C109800F911FDF91CF911F910F91089584
:1016A0004F925F926F927F928F929F92AF92BF9272
:1016B000CF92DF92EF92FF921F93CF93DF93EC01D3
:1016C0006A017B01122FAB019601CB01B6010E948A
:1016D000652464E674E0811126C046015701E89450
:1016E000B7F82FEF3FEF4FE75FE7C501B4010E9466
:1016F000652481110CC02FEF3FEF4FE75FE7C50175
:10170000B4010E94942268E674E0181664F02FEF8A
:101710003FEF4FE75FE4C701B6010E94F3231816BD
:10172000A4F46CE674E0CE01DF91CF911F91FF909D
:10173000EF90DF90CF90BF90AF909F908F907F9071
:101740006F905F904F900C94EA212FEF3FEF4FE79F
:101750005FECC701B6010E94942287FDE2CF20E032
:1017600030E0A901C701B6010E949422B12CA12C3E
:1017700087FF09C06DE2CE010E94B0095C01F7FA53
:10178000F094F7F8F094912C60E070E080E09FE333
:10179000191541F020E030E040E251E40E94992226
:1017A0009394F6CFA70196010E9428222B013C01B9
:1017B0000E9412236B017C010E9441239B01AC011A
:1017C000C301B2010E9427222B013C012AE0B7018C
:1017D000A601CE010E942F0A7C01EA0CFB1C1123FA
:1017E00039F063ED71E0CE010E94EA21E80EF91EA6
:1017F000115018F120E030E040E251E4C301B201A1
:101800000E94F8232B013C010E940B234B014AE06C
:1018100050E0CE010E94D50AE80EF91EB401990CE1
:10182000880B990B0E9443239B01AC01C301B201B9
:101830000E9427222B013C01DBCFC701DF91CF9112
:101840001F91FF90EF90DF90CF90BF90AF909F904F
:101850008F907F906F905F904F9008950C94500BF5
:101860000F931F93CF93DF93EC010E94500B8C01D9
:10187000CE010E94C109800F911FDF91CF911F916E
:101880000F910895FC01808191810C94FF24CF93E6
:10189000DF93EC0188819981009711F00E94FF2469
:1018A000198218821D821C821B821A82DF91CF91BD
:1018B00008950F931F93CF93DF93EC018B016F5F1C
:1018C0007F4F888199810E949725009751F09983D5
:1018D00088831B830A8381E0DF91CF911F910F9151
:1018E000089580E0F9CFCF93DF93EC01888199814F
:1018F000892B49F08A819B818617970720F081E028
:10190000DF91CF910895CE010E94590C8823C1F335
:101910008C819D81892B99F7E881F9811082EFCF25
:10192000EF92FF920F931F93CF93DF93EC017B0114
:101930008A01BA010E94730C81110BC0CE010E9472
:10194000470CCE01DF91CF911F910F91FF90EF9047
:1019500008951D830C83B701888199810E94EA272D
:10196000F0CFFC0111821082138212821582148240
:1019700016826115710551F0FB0101900020E9F715
:101980003197AF01461B570B0C94900C08950F93A1
:101990001F93CF93DF938C01EB01FC018081918138
:1019A0000097C9F0428153812C813D814217530732
:1019B00080F0688179810E94EA278C819D81F801FD
:1019C000958384831D821C82DF91CF911F910F919B
:1019D00008950E94FF2488819981F8019183808372
:1019E0008A819B81938382838C819D81958384836B
:1019F000198218821B821A82E5CFFC0111821082A3
:101A0000138212821582148216820C94C70CFC0178
:101A100011821082138212821582148216820C9413
:101A2000C70CCF93DF93EC01FB018617970749F0B2
:101A3000608171816115710541F0448155810E9479
:101A4000900CCE01DF91CF9108950E94470CF9CF01
:101A5000FC01118210821382128215821482168276
:101A60000C94110DCF93DF93EC018617970711F0BB
:101A70000E94C70CCE01DF91CF910895CF93DF93E1
:101A8000EC016817790711F00E94C70CCE01DF91B5
:101A9000CF910895CF93DF93EC016115710571F03B
:101AA000FB0101900020E9F73197AF01461B570B6E
:101AB0000E94900CCE01DF91CF9108950E94470CB7
:101AC000F9CFCF93DF9300D0CDB7DEB7FC01118201
:101AD00010821382128215821482168269831A82FE
:101AE000BE016F5F7F4F0E944A0D0F900F90DF91F4
:101AF000CF9108950F931F93CF93DF93CDB7DEB7A8
:101B000029970FB6F894DEBF0FBECDBF8C01862F8C
:101B1000F8011182108213821282158214821682B9
:101B200050E0BE016F5F7F4F90E00E94A528BE018C
:101B30006F5F7F4FC8010E944A0D29960FB6F89437
:101B4000DEBF0FBECDBFDF91CF911F910F910895E2
:101B50000F931F93CF93DF93CDB7DEB762970FB686
:101B6000F894DEBF0FBECDBF8C01CB01F80111820E
:101B700010821382128215821482168250E0BE01F6
:101B80006F5F7F4F0E943328BE016F5F7F4FC80198
:101B90000E944A0D62960FB6F894DEBF0FBECDBF0D
:101BA000DF91CF911F910F9108950F931F93CF93C2
:101BB000DF93CDB7DEB761970FB6F894DEBF0FBEE7
:101BC000CDBF8C01CB01F8011182108213821282E9
:101BD00015821482168250E0BE016F5F7F4F0E9413
:101BE000A528BE016F5F7F4FC8010E944A0D619614
:101BF0000FB6F894DEBF0FBECDBFDF91CF911F911E
:101C00000F9108950F931F93CF93DF93CDB7DEB756
:101C1000A2970FB6F894DEBF0FBECDBF8C01CB01EB
:101C2000BA01F80111821082138212821582148285
:101C3000168230E0AE014F5F5F4F0E944928BE011F
:101C40006F5F7F4FC8010E944A0DA2960FB6F894AD
:101C5000DEBF0FBECDBFDF91CF911F910F910895D1
:101C60000F931F93CF93DF93CDB7DEB7A1970FB636
:101C7000F894DEBF0FBECDBF8C01CB01BA01F801D5
:101C8000118210821382128215821482168230E031
:101C9000AE014F5F5F4F0E947828BE016F5F7F4F9C
:101CA000C8010E944A0DA1960FB6F894DEBF0FBE80
:101CB000CDBFDF91CF911F910F910895EF92FF92C9
:101CC0000F931F93CF93DF93EC017B01672B41F4BC
:101CD00080E0DF91CF911F910F91FF90EF900895D9
:101CE00041155105A1F00C811D81040F151FB8018C
:101CF0000E94730C882361F3288139818C819D8136
:101D0000B701820F931F0E94EA271D830C8381E095
:101D1000E0CFFB0144815581608171810C945E0E9E
:101D20006115710551F0FB0101900020E9F7319731
:101D3000AF01461B570B0C945E0E80E00895CF93C5
:101D4000DF9300D0CDB7DEB769831A8241E050E05F
:101D5000BE016F5F7F4F0E945E0E0F900F90DF916C
:101D6000CF910895EF92FF920F931F93CF93DF933C
:101D700000D000D0CDB7DEB77C01862F4AE08E01BF
:101D80000F5F1F4FB80190E00E943E28F8010190BC
:101D90000020E9F73197AF01401B510BB801C70193
:101DA0000E945E0E0F900F900F900F90DF91CF91D9
:101DB0001F910F91FF90EF900895EF92FF920F9374
:101DC0001F93CF93DF9300D000D000D00F92CDB7F8
:101DD000DEB77C01CB014AE08E010F5F1F4FB801D7
:101DE0000E943E28F80101900020E9F73197AF01E9
:101DF000401B510BB801C7010E945E0E27960FB61B
:101E0000F894DEBF0FBECDBFDF91CF911F910F9130
:101E1000FF90EF900895EF92FF920F931F93CF934F
:101E2000DF9300D000D000D0CDB7DEB77C01CB016E
:101E30004AE08E010F5F1F4FB8010E94B028F801E1
:101E400001900020E9F73197AF01401B510BB80119
:101E5000C7010E945E0E26960FB6F894DEBF0FBE35
:101E6000CDBFDF91CF911F910F91FF90EF9008951B
:101E7000EF92FF920F931F93CF93DF93CDB7DEB70F
:101E80002C970FB6F894DEBF0FBECDBF7C01CB01FF
:101E9000BA012AE08E010F5F1F4FA8010E9454284B
:101EA000F80101900020E9F73197AF01401B510B79
:101EB000B801C7010E945E0E2C960FB6F894DEBFE3
:101EC0000FBECDBFDF91CF911F910F91FF90EF908B
:101ED0000895EF92FF920F931F93CF93DF93CDB7A7
:101EE000DEB72B970FB6F894DEBF0FBECDBF7C01D7
:101EF000CB01BA012AE08E010F5F1F4FA8010E949B
:101F00008328F80101900020E9F73197AF01401BC9
:101F1000510BB801C7010E945E0E2B960FB6F894C4
:101F2000DEBF0FBECDBFDF91CF911F910F91FF900C
:101F3000EF900895CF93DF93EC01FB01448155812D
:101F4000608171810E945E0E811103C0CE010E94EA
:101F5000470CCE01DF91CF910895CF93DF93EC0131
:101F60006115710539F4CE010E94470CCE01DF9155
:101F7000CF910895FB0101900020E9F73197AF015F
:101F8000461B570B0E945E0E882369F3EFCFCF9359
:101F9000DF93EC010E949F0E811103C0CE010E94CD
:101FA000470CCE01DF91CF910895CF93DF93EC01E1
:101FB0000E94B20E811103C0CE010E94470CCE01D7
:101FC000DF91CF910895CF93DF93EC010E94DD0E56
:101FD000811103C0CE010E94470CCE01DF91CF9149
:101FE0000895CF93DF93EC010E940B0F811103C082
:101FF000CE010E94470CCE01DF91CF910895CF937F
:10200000DF93EC010E94380F811103C0CE010E94C2
:10201000470CCE01DF91CF910895CF93DF93EC0170
:102020000E94690F811103C0CE010E94470CCE01AE
:10203000DF91CF910895CF93DF93EC01A881B9810F
:10204000EB01E881F9811097F1F03097B1F4EC01E0
:102050008C819D81892BC9F08C9190E00BC0DB01B4
:1020600014968D919C91892B81F0808190E09195BF
:1020700081959109DF91CF910895BF01CD01DF9145
:10208000CF910C94E127309751F790E080E0F2CFA8
:10209000FC0144815581FB0124813581421753079E
:1020A00029F40E941B1021E0892B09F020E0822FE7
:1020B0000895FC0124813581232B31F421E0FB01BB
:1020C000672B49F4822F08958081918161157105F4
:1020D00039F421E0FC0180818823A1F320E0F2CFD4
:1020E0000E94E12721E0892B69F3F8CF0E941B10A1
:1020F000892F881F8827881F08950E941B1021E0C0
:10210000181619060CF020E0822F08950E941B106B
:1021100021E0181619060CF420E0822F08950E9481
:102120001B10892F8095881F8827881F0895CF92BC
:10213000DF92EF92FF920F931F93CF93DF93FB01F8
:102140008617970789F1DC0114962D913C9115971C
:102150004481558124173507D9F4232B29F10081B7
:102160001181ED90FC90F70181917F018823E1F0CE
:10217000082E000C990B0E94A2276C01E80189919E
:10218000082E000C990B0E94A227C816D90651F000
:1021900080E0DF91CF911F910F91FF90EF90DF9042
:1021A000CF9008958E01DFCF81E0F3CFFA01DB01FC
:1021B00014964D915C91DC0114962D913C911597EC
:1021C000241B350B2E173F0788F08D919C910097AB
:1021D00069F0DB016D917C916115710539F08E0F0D
:1021E0009F1F0E94F12721E0892B09F020E0822F18
:1021F0000895FC0144815581FB01248135814217FA
:10220000530720F050E040E00C94D61080E0089591
:10221000FC0124813581FB01448155812417350758
:10222000A0F0FC0180819181009779F0FB01608131
:1022300071816115710549F0241B350B820F931FC5
:102240000E94E12721E0892B09F020E0822F0895E8
:10225000FC01248135816217730730F480819181FC
:10226000860F971FFC0140830895FC01248135816E
:102270006217730720F480819181009729F41092EE
:102280002F058FE295E00895860F971F0895FC01B2
:10229000248135816217730748F48081918100970A
:1022A00029F0860F971FFC018081089580E0089532
:1022B0000C9447110F931F93CF93DF938B0141151C
:1022C000510559F06115710541F0FC01C481D581BA
:1022D0002C173D0738F0FB011082DF91CF911F9141
:1022E0000F91089541505109C21BD30B4C175D0744
:1022F00008F4EA01FC0160817181620F731FAE0175
:10230000C8010E94FF27C00FD11F1882E6CFCF93CC
:10231000DF93FC01248135814217530788F4C08183
:10232000D181062E000C770BCE01840F951F0E94E1
:10233000D627009729F08C1B9D0BDF91CF91089534
:102340008FEF9FEFFACF50E040E00C948711CF93CE
:10235000DF93FC01248135814217530788F4C08143
:10236000D181FB0160817181CE01840F951F0E9494
:102370001928009729F08C1B9D0BDF91CF910895B0
:102380008FEF9FEFFACF50E040E00C94A711DF925F
:10239000EF92FF920F931F93CF93DF938C01DC0199
:1023A00014968D919C9115974817590750F08FEF0F
:1023B0009FEFDF91CF911F910F91FF90EF90DF90F2
:1023C0000895EA012196ED91FC911197EC0FFD1F04
:1023D000D0801082ED90FC90062E000C770BC70188
:1023E0000E940E28CE0DDF1DD882009701F3F80160
:1023F00020813181821B930BDCCFFC01448155810C
:10240000415051090C94C711AF92BF92CF92DF9205
:10241000EF92FF920F931F93CF93DF936B01EA012B
:10242000FB01448155814115510561F1FC01248175
:1024300035812115310531F12417350718F1C217FF
:10244000D30710F0E9012197FC0100811181C80137
:10245000AA24AA94BB24BA947801EC0EFD1EE816B7
:10246000F906A0F0F601608171810E941928009799
:1024700069F09C01201B310BC217D30708F05901EA
:102480000196EDCFAA24AA94BB24BA94C501DF918A
:10249000CF911F910F91FF90EF90DF90CF90BF9061
:1024A000AF900895FC0144815581FB012481358161
:1024B000421B530B0C940412AF92BF92CF92DF9247
:1024C000EF92FF920F931F93CF93DF935C016B0109
:1024D0007A0189012417350720F48F2D7901042F03
:1024E000182F62EB72E0C5010E94B10CD601149660
:1024F000CD91DC91CE15DF05C8F00C171D0708F44F
:10250000E801D601ED91FC911197EC0FFD1F1081B0
:1025100010826D917C916E0D7F1DC5010E944A0D48
:10252000F60180819181C80FD91F1883C501DF9101
:10253000CF911F910F91FF90EF90DF90CF90BF90C0
:10254000AF900895CF93DF93EC01FB012481358197
:102550000E945C12CE01DF91CF910895DC01ED91D4
:10256000FC91309749F08191882331F08613FBCF9D
:10257000DF0111974C93F7CF08952F923F924F921E
:102580005F926F927F928F929F92AF92BF92CF9203
:10259000DF92EF92FF920F931F93CF93DF938C0103
:1025A0005B017A01FC01448055804114510409F417
:1025B000CCC0FB01648075806114710409F4C5C04E
:1025C000FA01C480D580C618D708FC01C081D1812A
:1025D000C114D104B9F4F50160817181CE010E946A
:1025E0001928EC01009709F4B0C0F70160817181EE
:1025F000448155810E94BB27F70184819581C80FD2
:10260000D91FE9CFD7FC11C0FB01208031804201E6
:10261000B101CE010E941928009709F44AC0EC01CB
:10262000C60DD71D8C0C9D1CF3CF3E01F5016081BA
:102630007181CE010E9419282C01009721F14C01D3
:102640008C1A9D0AA401BE01C3010E94BB27680C1D
:10265000791CF7016081718144815581C3010E9419
:10266000BB27F70184809580680C791CF501C48133
:10267000D581C40DD51DF801848195818C0D9D1DDA
:1026800095838483D3CFBE01C301DF91CF911F9186
:102690000F91FF90EF90DF90CF90BF90AF909F9001
:1026A0008F907F906F905F904F903F902F900C9401
:1026B000EA274814590409F448C0F801828193813B
:1026C00088159905E0F1F80144815581415051097F
:1026D00057FD3BC0B501C8010E940412EC0197FDF3
:1026E00034C0F50124813581280F391FF80180811C
:1026F0009181820F931F44815581421B530BBC0172
:102700008C0D9D1D0E94C427F801848195818C0D3C
:102710009D1D9583848320813181820F931FFC014D
:102720001082F80180819181F7016081718144817B
:1027300055818C0F9D1F0E94BB27AE01C7CFB401EE
:10274000C8010E94590C8111BECFDF91CF911F911A
:102750000F91FF90EF90DF90CF90BF90AF909F9040
:102760008F907F906F905F904F903F902F90089543
:10277000CF93DF93FC01C081D181209761F08991D3
:10278000882349F0082E000C990B0E94A227FE0115
:1027900031978083F4CFDF91CF910895CF93DF936A
:1027A000FC01C081D181209761F08991882349F093
:1027B000082E000C990B0E94AA27FE0131978083F6
:1027C000F4CFDF91CF910895AF92BF92CF92DF9275
:1027D000EF92FF920F931F93CF93DF938C01DC0155
:1027E000ED90FC901197E114F104E1F11496CD9174
:1027F000DC912097B9F157016501F50181915F01E5
:10280000082E000C990B0E949927892BA9F7219774
:10281000CE0DDF1D8881082E000C990B0E94992790
:10282000892B29F0CC15DD0510F02197F3CFAE01EF
:102830004F5F5F4F4C195D09D80115965C934E931D
:102840001497EC14FD0420F4B601C7010E94BB27C5
:10285000D801ED91FC91119714968D919C91E80F00
:10286000F91F1082DF91CF911F910F91FF90EF9090
:10287000DF90CF90BF90AF900895FC01808191814F
:10288000009711F00C94722760E070E0CB0108957E
:102890000C946A240C946A240C94FF240C94FF2456
:1028A000FC0181E090E02081222311F090E080E0A3
:1028B000089521E0FC012083089508950895CF93A1
:1028C000DF9300D0CDB7DEB78C0169017A0185E8CE
:1028D00094E00E94AE0967E071E085E894E00E9410
:1028E000AE092AE030E0B701A60185E894E00E9435
:1028F000EE0A6EE071E085E894E00E94AE09B8014E
:1029000085E894E00E94AE096BE171E085E894E00F
:102910000E94F9091A82198289819A8101969A8303
:102920008983FACFDC018617970789F19C919A3049
:10293000E1F1992381F1CD0101966817790701F141
:1029400011968C9111978A3009F443C08823B9F10C
:102950008032B1F0FD013296893091F09F016E17FF
:102960007F0799F091919A30A1F1992341F190322A
:1029700011F0993099F72A1B3B0BBD01C90108954D
:1029800021E030E0BD01C90108959B01F4CF60E072
:1029900070E0CB01089524E130E040E050E06FE3C7
:1029A00071E08BE591E00E945F1423E130E040E0AC
:1029B00050E06FE371E081E591E00E945F1421E255
:1029C00030E040E050E06FE371E08BE591E00E9481
:1029D0005F1420E230E040E050E06FE371E081E519
:1029E00091E00E945F14CF93DF9340E052EC61E0EE
:1029F00070E085E894E00E94D00765E671E085E824
:102A000094E00E94F909C3E3D5E08881846088835B
:102A100060E082E00E94E60588818860888360E04B
:102A200083E00E94E60588818061888360E084E01D
:102A30000E94E60588818062888360E085E00E94CC
:102A4000E60588818064888360E086E00E94E60570
:102A500088818068888360E087E00E94E60589813C
:102A60008160898360E088E00E94E6058981826058
:102A7000898360E089E00E94E6058981846089831A
:102A800060E08AE00E94E60589818860898360E0D1
:102A90008BE00E94E60589818061898360E08CE09B
:102AA0000E94E60589818062898360E08DE00E9452
:102AB000E60589818064898360E08EE00E94E605F6
:102AC00089818068898360E08FE00E94E6058A81C1
:102AD00081608A8360E080E10E94E6058A818260ED
:102AE0008A8360E081E10E94E6058A8184608A83AE
:102AF00060E082E10E94E6058A8188608A8360E066
:102B000083E10E94E6058A8188608A8360E084E12F
:102B10000E94E6058A8188608A8360E085E10E94E0
:102B2000E60541E050E063E27FE180E0DF91CF9194
:102B30000C94D1038EE00E945F044AE050E0BC0197
:102B400085E894E00C94DC0A0E9482050E94F3144C
:102B5000C8E4D7E00E949A152097E1F30E94480745
:102B60000E949A152097D1F7F5CF6130710559F081
:102B70006230710531F4BC01665F7F4F85E190E002
:102B80000895672B31F0BC016B5F7F4F84E090E0CC
:102B90000895BC0184E090E008956130710559F01A
:102BA0006230710531F4BC01635E7F4F86E290E0D4
:102BB0000895672B31F0BC01685F7F4F84E190E09E
:102BC0000895BC0187E090E008956130710559F0E7
:102BD0006230710531F4BC01625E7F4F82E390E0A8
:102BE0000895672B31F0BC01645F7F4F81E190E075
:102BF0000895BC018BE090E008956130710559F0B3
:102C00006230710531F4BC01685D7F4F88E290E06D
:102C10000895672B31F0BC01635F7F4F8AE190E03C
:102C20000895BC018CE090E008956130710559F081
:102C30006230710531F4BC01645E7F4F83E490E043
:102C40000895672B31F0BC01655F7F4F80E190E014
:102C50000895BC018AE090E008956130710559F053
:102C60006230710531F4BC016A5D7F4F81E490E010
:102C70000895672B31F0BC01645F7F4F89E190E0DC
:102C80000895BC018BE090E008956130710559F022
:102C90006230710531F4BC01655E7F4F8FE190E0D9
:102CA0000895672B31F0BC01695F7F4F83E190E0AD
:102CB0000895BC0186E090E008956130710559F0F7
:102CC0006230710531F4BC01615E7F4F8CE290E0AF
:102CD0000895672B31F0BC01655F7F4F83E190E081
:102CE0000895BC018AE090E008956130710559F0C3
:102CF0006230710531F4BC016A5D7F4F89E590E077
:102D00000895672B31F0BC016D5E7F4F82E190E04A
:102D10000895BC0182E190E008956130710559F099
:102D20006230710531F4BC01635D7F4F87E390E051
:102D30000895672B31F0BC016E5E7F4F8AE190E011
:102D40000895BC0181E190E00895EF92FF920F9306
:102D50001F93CF93DF937C018B01BC0185E894E046
:102D60000E94AE09E70109900020E9F72197CE19EA
:102D7000DF09C017D10748F460E285E894E00E94BB
:102D8000B00921960C171D07B9F7DF91CF911F915C
:102D90000F91FF90EF900895EF92FF920F931F9382
:102DA000CF93DF9300D000D000D0CDB7DEB77A014B
:102DB0008C0127E232E03A8329836B837C838D8305
:102DC0009E83BE016F5F7F4F85E894E00E94B70944
:102DD0000E151F0550F460E285E894E00E94B009EA
:102DE0000F5F1F4FE016F106B1F726960FB6F89465
:102DF000DEBF0FBECDBFDF91CF911F910F91FF902E
:102E0000EF9008952F923F924F925F926F927F9230
:102E10008F929F92AF92BF92CF92DF92EF92FF92EA
:102E20000F931F93CF93DF93CDB7DEB7A0970FB665
:102E3000F894DEBF0FBECDBF6B01DC011296ED90A2
:102E4000FC90139714960D911C910032110508F413
:102E50005EC037012801B0E24B1A5108C201807EE2
:102E60001701E0E22E0E311C280E391E912C812C08
:102E7000CE0101965C0140E250E0B301C5010E9421
:102E8000B227D601ED91FC910280F381E02D40E262
:102E900050E0B501C6010995880E991EB0E26B0E8F
:102EA000711C6214730439F70F711127E0EE4E2282
:102EB000F0E24F0E511CE40CF51CA801B701C5014E
:102EC0000E94B227D601ED91FC910280F381E02DA2
:102ED000A801B501C6010995880D991DA0960FB6E8
:102EE000F894DEBF0FBECDBFDF91CF911F910F9140
:102EF000FF90EF90DF90CF90BF90AF909F908F901A
:102F00007F906F905F904F903F902F900895912CFD
:102F1000812CCE0101965C01D0CFCF92DF92EF924F
:102F2000FF920F931F93CF93DF93CDB7DEB76897D0
:102F30000FB6F894DEBF0FBECDBF63E170E085E74A
:102F400091E00E94A5166BE170E08AE791E00E9493
:102F5000A5166AE570E080E891E00E94A51662EB94
:102F600072E085E894E00E94F90905E810E06DE25E
:102F700085E894E00E94B00901501109C1F762EBA5
:102F800072E085E894E00E94F90900E810E01886F4
:102F90001F821A8619861C861B8646E050E0B801FF
:102FA000CE0107960E94B22786E0FE013796DE0129
:102FB000119601900D928A95E1F786E0FE01319617
:102FC000DE01539601900D928A95E1F786E0FE01AD
:102FD0007396DE011D9601900D928A95E1F7CF84DC
:102FE000D888E988FA8870E060E0C601F7010995A1
:102FF00043E150E00E94CC1661E070E0C601F701A9
:1030000009954BE150E00E94CC1662E070E0C601E9
:10301000F70109954AE550E00E94CC1662EB72E098
:1030200085E894E00E94F9090A5F1F4FF0E00C3B2D
:103030001F0709F0ACCF90E080E068960FB6F894D7
:10304000DEBF0FBECDBFDF91CF911F910F91FF90DB
:10305000EF90DF90CF9008950F931F93CF93DF935E
:103060008C018EED91E0C9E2D2E00AC0E881E43142
:10307000C8F4F0E0EE0FFF1FE550FE4F8081918114
:10308000B8010E94E127892B39F0219682E0CD33E7
:10309000D80761F7D0E0C0E0CE01DF91CF911F915A
:1030A0000F9108952FE330E040E050E061E572E0D9
:1030B0008CE891E00E945F146F927F92AF92BF9272
:1030C000CF92DF92EF92FF920F931F93CF93DF93F4
:1030D000CDB7DEB7AA970FB6F894DEBF0FBECDBF4F
:1030E0005C016B01892B09F4DBC0DB018D919C91A4
:1030F000892B09F4EDC080E8E82E80E0F82E1A82D2
:1031000019821C821B821E821D8246E050E0B7019C
:10311000CE0101960E94B22786E0FE013196DE01C3
:10312000599601900D928A95E1F786E0FE01799615
:10313000DE01959601900D928A95E1F786E0FE01F9
:10314000B596DE015F9601900D928A95E1F7F60142
:1031500000811181EBA1FCA170E060E089A19AA13E
:1031600009959C01009709F4B0C0AB01FB01749074
:10317000D801FC917F1218C0772009F43EC0119647
:10318000712C612C08C0F301E40FF51FE491E113E9
:103190000BC0EE23A1F1EFEF6E1A7E0A1D916216AD
:1031A000730689F7112389F1F6E0EF0EF11C8CEB21
:1031B000E81680E0F80609F0A2CF68E670E085E83E
:1031C00094E00E94570960EC71E085E894E00E9469
:1031D000AE09D6016D917C9185E894E00E94AE091C
:1031E00062ED71E085E894E00E94AE0985E894E024
:1031F0000E94C1098FEF9FEF55C0712C612C9C017B
:10320000215031092615370579F618861F821A864E
:1032100019861C861B8646E050E0B701CE01079652
:103220000E94B22786E0FE013796DE0111960190DA
:103230000D928A95E1F786E0FE013196DE011D963A
:1032400001900D928A95E1F786E0FE013D96DE0140
:10325000179601900D928A95E1F786E0FE01379668
:10326000DE01539601900D928A95E1F7EB89FC8976
:103270008D899E892F89388D309741F0892B31F0C7
:10328000232B21F0B601C50109950CC02EE530E0D5
:1032900040E050E066EA71E08AEB91E00E945F1442
:1032A00090E080E0AA960FB6F894DEBF0FBECDBFC7
:1032B000DF91CF911F910F91FF90EF90DF90CF9012
:1032C000BF90AF907F906F900895D8011C916ACF06
:1032D0002BEE30E040E050E066EA71E082EB91E0F6
:1032E0000E945F14AF92BF92CF92DF92EF92FF9253
:1032F0000F931F93CF93DF935C016B017A01E90178
:1033000068E770E085E894E00E945709F501608164
:10331000718185E894E00E945709F601608171810E
:1033200085E894E00E94AE09F7016081718185E82B
:1033300094E00E945709688179814AE050E085E86D
:1033400094E00E94D50AF8016081718185E894E0DB
:103350000E94570985E894E00E94C1098FEF9FEF12
:10336000DF91CF911F910F91FF90EF90DF90CF9061
:10337000BF90AF9008950F931F93CF93DF93CDB776
:10338000DEB728970FB6F894DEBF0FBECDBF841707
:10339000950794F12F3F320709F0A9014817590703
:1033A0006CF090E080E028960FB6F894DEBF0FBE78
:1033B000CDBFDF91CF911F910F9108958FEE90E0D7
:1033C0009A838983415051095C834B838BEF90E052
:1033D0009E838D838EE091E098878F838E010F5FAF
:1033E0001F4F9E012D5F3F4FAE014B5F5F4FCE01E0
:1033F00007960E947219D7CF88E191E098878F8352
:10340000415051095E834D8384E291E09C838B831C
:1034100088E391E09A8389838E01095F1F4F9E01A3
:103420002B5F3F4FAE014D5F5F4FCE0101960E9473
:103430007219B9CF0F931F93CF93DF93EB010E94C3
:10344000BB19892B69F48A819B810E942C188C01FD
:10345000892B71F0C801DF91CF911F910F910895D1
:1034600010E000E0C801DF91CF911F910F91089506
:1034700060E770E085E894E00E9457096CED70E029
:1034800085E894E00E9457096A817B8185E894E091
:103490000E94AE0962ED71E085E894E00E94AE09F9
:1034A00085E894E00E94C109D5CFE3E3F5E01082FE
:1034B00011821282E0E3F5E01082118212820895F7
:1034C000CF92DF92EF92FF920F931F93CF93DF93F0
:1034D00000D0CDB7DEB78B012FEF3FEF43E050E0D8
:1034E0000E941A1A6C01892B09F4A9C0F801E48022
:1034F000F5806DE372E0C7010E94E127892B41F05E
:1035000061E472E0C7010E94E127892B09F057C0EE
:1035100060E0F6018081863108F095C0E82FF0E088
:10352000EE0FFF1FE35AFD4F40815181FA01F695DE
:10353000E795F695E795F695E795ED5CFA4F2081CE
:10354000022E000C330B4770552702C03595279586
:103550004A95E2F77901F1E0EF22FF2420FD0EC049
:103560000E942206C7010F900F90DF91CF911F910B
:103570000F91FF90EF90DF90CF9008956CE574E08D
:1035800085E894E00E94570968E572E085E894E0D8
:103590000E94AE09F8016281738185E894E00E947F
:1035A000AE0964E674E085E894E00E94570985E876
:1035B00094E00E94C109EE24EA94FE2CD3CF6EED74
:1035C00071E0C7010E94E127892B09F4A1CF65E4CE
:1035D00072E0C7010E94E127892B79F16AE472E069
:1035E000C7010E94E127892B41F161EE71E0C7011B
:1035F0000E94E127892B09F160E770E085E894E0FB
:103600000E94570966E874E085E894E00E94570933
:10361000F8016481758185E894E00E94AE0962ED4D
:1036200071E085E894E00E94AE0985E894E00E948C
:10363000C109EE24EA94FE2C95CF61E06ACFEE2416
:10364000EA94FE2C8FCF6FE472E085E894E00E944C
:10365000AE0967E071E085E894E00E94AE092AE0D7
:1036600030E047E750E060E070E085E894E00E94D9
:10367000EE0A6EE071E085E894E00E94AE096CE825
:1036800071E085E894E00E94AE096BE171E085E8A5
:1036900094E00E94F9091A82198289819A8101961F
:1036A0009A838983FACF2FEF3FEF42E050E00E94E8
:1036B0001A1A0097C1F0FC0180810E945006019700
:1036C00049F06EED71E085E894E00E94F90990E020
:1036D00080E0089561EE71E085E894E00E94F909C8
:1036E00090E080E008958FEF9FEF08950F931F9370
:1036F000CF93DF93EB012FEF3FEF43E050E00E94C9
:103700001A1A8C01892B09F4D7C04AE050E070E006
:1037100060E08C819D810E946126611571058105A3
:10372000910529F4EC81FD8120812033B1F5D80188
:103730004C91443108F0C3C0242F30E0220F331FD6
:10374000F901E750FD4F0190F081E02D319709F428
:1037500048C064EA74E085E894E00E94570968E58F
:1037600072E085E894E00E94AE096A817B8185E879
:1037700094E00E94AE0968EB72E085E894E00E9454
:10378000AE0985E894E00E94C1090FEF1FEFC80160
:10379000DF91CF911F910F91089564EB74E085E85C
:1037A00094E00E94570969E872E085E894E00E947D
:1037B000AE096C817D8185E894E00E94AE0965EFD9
:1037C00074E085E894E00E94570985E894E00E943F
:1037D000C1090FEF1FEFC801DF91CF911F910F912A
:1037E000089523533D4FD901ED91FC91DF01B6952A
:1037F000A795B695A795B695A795AD5CBA4F2C91B0
:10380000022E000C330BE770FF2702C03595279579
:10381000EA95E2F789010170112720FD0DC06F3F85
:10382000710509F0F0F4842F0E947A04C801DF9139
:10383000CF911F910F9108956CE974E085E894E0B1
:103840000E94570968E572E085E894E00E94AE099D
:103850006A817B8185E894E00E94AE0968E972E0A4
:103860008CCF6CEA74E085E894E00E9457096C8183
:103870007D8185E894E00E94AE096CEB74E085E8F8
:1038800094E00E9457094AE050E070E060E085E86B
:1038900094E00E94D50A60EB72E085E894E00E9413
:1038A000AE094AE050E060E071E085E894E00E94F3
:1038B000D50A63EB72E061CF0FEF1FEF68CF2BE506
:1038C00030E040E050E06FE472E08CE891E00E946C
:1038D0005F14EF92FF920F931F93CF93DF937C01BE
:1038E0008B01EA016CE574E085E894E00E945709D9
:1038F000B70185E894E00E94AE09F801608171810A
:1039000085E894E00E94AE096881798185E894E0B9
:103910000E94570985E894E00E94C1098FEF9FEF4C
:10392000DF91CF911F910F91FF90EF9008950F932A
:103930001F93CF93DF9300D0CDB7DEB78B012FEF6E
:103940003FEF42E050E00E941A1A009709F456C077
:10395000FC018081843108F054C0282F30E0220F10
:10396000331FF901E35BFC4F408151814230510527
:10397000A9F083E495E09A838983B8016E5F7F4F55
:10398000AE014F5F5F4F88E592E00E94691C0F9087
:103990000F90DF91CF911F910F9108952F5D3C4FB4
:1039A000F90140815181FA01F695E795F695E79581
:1039B000F695E795ED5CFA4F2081022E000C330B53
:1039C0004770552702C0359527954A95E2F720FFA5
:1039D00012C00E945F044AE050E0BC0185E894E018
:1039E0000E94DC0A90E080E00F900F90DF91CF9171
:1039F0001F910F9108958CE195E0BDCF8FEF9FEF60
:103A0000C6CF2BE530E040E050E06FE472E08CE898
:103A100091E00E945F14EF92FF920F931F93CF9358
:103A2000DF938C017B0123E030E042E050E00E9414
:103A30001A1AEC01892B09F46EC10230110509F440
:103A40001CC1F701048115816CE773E0C8010E9475
:103A5000E127892B09F448C06FE873E0C8010E9490
:103A6000E127892B09F440C065E773E0C8010E9493
:103A7000E127892B09F465C065E973E0C8010E945C
:103A8000E127892B09F45DC062E873E0C8010E9458
:103A9000E127892B09F4A6C06CE973E0C8010E94F4
:103AA000E127892B09F49EC060E770E085E894E087
:103AB0000E9457096AE575E085E894E00E9457097D
:103AC000F7016481758185E894E00E94AE0962ED9A
:103AD00071E085E894E00E94AE0985E894E00E94D8
:103AE000C109CFEFDFEF25C0E881E63108F016C14C
:103AF000F0E0EE0FFF1FE755FC4F80819181FC0144
:103B0000F695E795F695E795F695E795ED5CFA4F0E
:103B10008770992721E030E001C0220F8A95EAF7EB
:103B20008081822B808360E088810E94E605D0E05E
:103B3000C0E0CE01DF91CF911F910F91FF90EF90E8
:103B40000895E881E63108F0E9C0F0E0EE0FFF1FCC
:103B5000E755FC4F20813181F901F695E795F695FF
:103B6000E795F695E795E05DFA4F2770332781E0FA
:103B700090E0AC0102C0440F551F2A95E2F7409532
:103B80005095208124232083E881E63108F0C6C0C7
:103B9000F0E0EE0FFF1FE755FC4F20813181F90166
:103BA000F695E795F695E795F695E795ED5CFA4F6E
:103BB0002770332702C0880F991F2A95E2F7809556
:103BC000909590818923808361E088810E94E60539
:103BD000D0E0C0E0CE01DF91CF911F910F91FF9017
:103BE000EF900895E881E63108F098C0F0E0EE0F1C
:103BF000FF1FE755FC4F20813181F901F695E795CC
:103C0000F695E795F695E795E05DFA4F277033272F
:103C100081E090E0AC0101C0440F2A95EAF72081D1
:103C2000242B2083E881E63108F078C0F0E0EE0F25
:103C3000FF1FE755FC4F20813181F901F695E7958B
:103C4000F695E795F695E795ED5CFA4F27703327E3
:103C500001C0880F2A95EAF79081892B808362E062
:103C600088810E94E605D0E0C0E0CE01DF91CF91CF
:103C70001F910F91FF90EF900895E881E63108F0D1
:103C80004DC0F0E0EE0FFF1FE755FC4F2081318162
:103C9000A90156954795569547955695479527708E
:103CA0003327FA01ED5CFA4F8081082E000C990B46
:103CB000022E02C0959587950A94E2F7EC01C17037
:103CC000DD2780FD07C065E773E085E894E00E948A
:103CD000F9092FCF405D5A4FFA018081082E000C60
:103CE000990B02C0959587952A95E2F7EC01C17072
:103CF000DD2780FD07C06CE773E085E894E00E9453
:103D0000F90917CF62E873E085E894E00E94F909A9
:103D1000D0E0C0E00ECFCFEFDFEF0BCF27E730E0F2
:103D200040E050E06FE472E08CE891E00E945F14A4
:103D3000CF93DF93EC016DE675E085E894E00E9497
:103D400057096881798185E894E00E94570985E8E0
:103D500094E00E94C1098FEF9FEFDF91CF9108950A
:103D6000EF92FF920F931F93CF93DF9300D0CDB7C5
:103D7000DEB78C017B0161E089E00E94E60501303D
:103D80001105B9F10230110589F082EA95E09A83B4
:103D90008983CE0101960E94981E0F900F90DF91AB
:103DA000CF911F910F91FF90EF900895F70102813D
:103DB000138165ED73E0C8010E94E127892B81F131
:103DC00069E871E0C8010E94E127892B49F168ED9B
:103DD00073E0C8010E94E127892B39F46CED73E090
:103DE000C8010E94E127892B29F160E089E00E9447
:103DF000220689E00E945006019749F068ED73E0C1
:103E000085E894E00E94F90990E080E0C6CF65ED76
:103E100073E085E894E00E94F90990E080E0BDCF6E
:103E200061E089E00E94220689E00E945006019725
:103E300029F7EDCF85E795E09A838983CE01019636
:103E40000E94981EAACF8091330584608093330529
:103E500060E082E00E94E605809131058B7F8093CF
:103E60003105809134058B7F8093340561E08AE0D1
:103E70000E94E60582E00E945006009741F00197FB
:103E800029F48091340582FF0AC008950895809135
:103E9000340582FDFACF60E08AE00C94220661E0EE
:103EA0008AE00C9422060F931F93CF93DF9300D0E8
:103EB000CDB7DEB78C0180913305846080933305E4
:103EC00060E082E00E94E6050130110579F084E3AC
:103ED00096E09A838983CE0101960E94981E0F90E6
:103EE0000F90DF91CF911F910F91089582E00E9472
:103EF00050064AE050E061E070E0019711F070E098
:103F000060E085E894E00E94D50A85E894E00E948C
:103F1000C10990E080E00F900F90DF91CF911F9149
:103F20000F910895EF92FF920F931F93CF93DF931A
:103F300000D0CDB7DEB78C017B01809131058B7F3E
:103F400080933105809134058B7F8093340561E047
:103F50008AE00E94E6050130110589F10230110561
:103F600089F08EEF95E09A838983CE0101960E94B5
:103F7000981E0F900F90DF91CF911F910F91FF909E
:103F8000EF900895F7010281138165ED73E0C80198
:103F90000E94E127892B39F069E871E0C8010E948D
:103FA000E127892B11F58091340582FD04C061E081
:103FB0008AE00E94220661E08AE00E9422068AE0EE
:103FC0000E9450064AE050E061E070E0019711F075
:103FD00070E060E085E894E00E94D50A85E894E00E
:103FE0000E94C10990E080E0C4CF68ED73E0C80191
:103FF0000E94E127892B39F46CED73E0C8010E941F
:10400000E127892B71F08091340582FF05C060E0C3
:104010008AE00E942206D3CF60E08AE00E94220656
:10402000F6CF81ED95E09A838983CE0101960E94B7
:10403000981E9FCFEF92FF920F931F93CF93DF9322
:1040400000D0CDB7DEB78C017B0180913605882387
:1040500009F43FC001301105A1F002301105E1F073
:1040600082EC96E09A838983CE0101960E94981E85
:104070000F900F90DF91CF911F910F91FF90EF90D4
:10408000089580913805882309F4A6C0823309F485
:1040900065C090E080E0ECCFF701028113816EEE05
:1040A00073E0C8010E94E127892BB9F5809138059A
:1040B00009E214E6882309F470C0823351F322E246
:1040C00030E040E050E068EF73E085E194E00E946A
:1040D0005F1461E084E00E94E60561E087E00E94F1
:1040E000E60561E085E00E94E60561E086E00E9469
:1040F000E60560E084E00E94220660E087E00E941E
:10410000220661E085E00E94220661E086E00E94CE
:10411000220681E0809336059DCF63EF73E0C801EE
:104120000E94E127892B11F26FE274E0C8010E941E
:10413000E127892B09F059C080913805823309F4B1
:1041400065C0882309F4A5CF2AE230E040E050E0C2
:1041500068EF73E08BE394E00E945F1467EE73E016
:1041600085E894E00E94F90990E080E081CF60E06A
:10417000813009F4A2C084E00E94220660E087E05A
:104180000E94220664E070E080E090E00E94520508
:1041900080913805893109F492C08F5F809F912DFD
:1041A000112492959F70919F801911248093380556
:1041B000809137058F5F809337058370823009F4D3
:1041C0007AC08330A1F660E084E00E94220661E0BC
:1041D00087E00E942206D6CF60EE73E085E894E087
:1041E0000E94F90990E080E043CF65E374E0C801E4
:1041F0000E94E127892B09F49FCF85E696E09A83F8
:104200008983CE0101960E94981E32CF81508093FF
:10421000380580913705815080933705837082304F
:1042200009F496C0833009F48AC060E0813009F453
:1042300084C084E00E94220660E087E00E9422069B
:1042400064E070E080E090E00E94520580913805C3
:104250008931D1F08111DACF84E6D8CF60E08130A6
:1042600009F469C084E00E94220660E087E00E94B1
:10427000220664E070E080E090E00E9452058091A8
:104280003805882309F405CF815080933805809143
:1042900037058150809337058370823009F449C017
:1042A0008330E1F660E084E00E94220661E087E06E
:1042B0000E942206DECF61E087CF61E05CCF09E299
:1042C00014E615C060E0813091F184E00E9422067E
:1042D00060E087E00E94220664E070E080E090E009
:1042E0000E94520580913805823309F4D2CE8F5F47
:1042F000809F912D112492959F70919F8019112478
:1043000080933805809137058F5F809337058370E0
:10431000823059F08330B1F660E084E00E942206DA
:1043200061E087E00E942206D7CF61E0F6CF61E02E
:10433000CCCF61E0B8CF61E095CF61E07ACF60E0AB
:1043400084E00E94220661E087E00E94220678CF86
:1043500061E0F6CFE7E3F5E0108211820895E5E829
:10436000F4E01382128288EE93E0A0E0B0E0848350
:104370009583A683B78388E594E0918380838BEE51
:1043800094E09587848787EA94E09787868785EC11
:1043900090E0918B808B84EC90E0938B828B80EC0F
:1043A00090E0958B848B81EC90E0978B868B82ECF0
:1043B00090E0918F808F86EC90E0938F828F84E0E5
:1043C000848F83E0858F87E0868F85E0878F81E00B
:1043D00080A308956115710579F0FB01019000201B
:1043E000E9F73197AF01461B570BDC01ED91FC91CA
:1043F0000280F381E02D099490E080E00895A1E22D
:104400001A2EAA1BBB1BFD010DC0AA1FBB1FEE1F4E
:10441000FF1FA217B307E407F50720F0A21BB30B99
:10442000E40BF50B661F771F881F991F1A9469F715
:1044300060957095809590959B01AC01BD01CF0171
:104440000895EE0FFF1F0590F491E02D0994505848
:10445000BB27AA270E943F220C94B9230E94AB23BA
:1044600038F00E94B22320F039F49F3F19F426F46B
:104470000C94A8230EF4E095E7FB0C94A223E92FFB
:104480000E94CA2358F3BA17620773078407950777
:1044900020F079F4A6F50C94EC230EF4E0950B2EA5
:1044A000BA2FA02D0B01B90190010C01CA01A00186
:1044B0001124FF27591B99F0593F50F4503E68F1E1
:1044C0001A16F040A22F232F342F4427585FF3CF22
:1044D000469537952795A795F0405395C9F77EF4F3
:1044E0001F16BA0B620B730B840BBAF09150A1F03C
:1044F000FF0FBB1F661F771F881FC2F70EC0BA0FC2
:10450000621F731F841F48F4879577956795B79549
:10451000F7959E3F08F0B0CF9395880F08F0992744
:10452000EE0F9795879508950E947E2308F481E009
:1045300008950E94AD220C94B9230E94B22358F032
:104540000E94AB2340F029F45F3F29F00C94A22392
:1045500051110C94ED230C94A8230E94CA2368F3F4
:104560009923B1F3552391F3951B550BBB27AA272C
:1045700062177307840738F09F5F5F4F220F331F66
:10458000441FAA1FA9F335D00E2E3AF0E0E832D02E
:1045900091505040E695001CCAF72BD0FE2F29D031
:1045A000660F771F881FBB1F261737074807AB0703
:1045B000B0E809F0BB0B802DBF01FF2793585F4F78
:1045C0003AF09E3F510578F00C94A2230C94ED2311
:1045D0005F3FE4F3983ED4F3869577956795B7955A
:1045E000F7959F5FC9F7880F911D9695879597F965
:1045F0000895E1E0660F771F881FBB1F62177307DE
:104600008407BA0720F0621B730B840BBA0BEE1FF2
:1046100088F7E09508950E9412236894B1110C94D4
:10462000ED2308950E94D22388F09F5798F0B92F68
:104630009927B751B0F0E1F0660F771F881F991FD7
:104640001AF0BA95C9F714C0B13091F00E94EC236A
:10465000B1E008950C94EC23672F782F8827B85F7A
:1046600039F0B93FCCF3869577956795B395D9F72F
:104670003EF490958095709561957F4F8F4F9F4F39
:104680000895E89409C097FB3EF490958095709545
:1046900061957F4F8F4F9F4F9923A9F0F92F96E98E
:1046A000BB279395F695879577956795B795F11103
:1046B000F8CFFAF4BB0F11F460FF1BC06F5F7F4FA0
:1046C0008F4F9F4F16C0882311F096E911C07723B2
:1046D00021F09EE8872F762F05C0662371F096E8BB
:1046E000862F70E060E02AF09A95660F771F881F8A
:1046F000DAF7880F9695879597F90895990F00082E
:10470000550FAA0BE0E8FEEF16161706E807F907A3
:10471000C0F012161306E407F50798F0621B730B3E
:10472000840B950B39F40A2661F0232B242B252BBF
:1047300021F408950A2609F4A140A6958FEF811D62
:10474000811D089597F99F6780E870E060E0089503
:104750009FEF80EC089500240A9416161706180699
:104760000906089500240A94121613061406050675
:104770000895092E0394000C11F4882352F0BB0F06
:1047800040F4BF2B11F460FF04C06F5F7F4F8F4F69
:104790009F4F089557FD9058440F551F59F05F3FA4
:1047A00071F04795880F97FB991F61F09F3F79F053
:1047B00087950895121613061406551FF2CF4695D5
:1047C000F1DF08C0161617061806991FF1CF869557
:1047D0007105610508940895E894BB27662777273B
:1047E000CB0197F908950E947E2308F48FEF089576
:1047F0000E940B240C94B9230E94AB2338F00E9432
:10480000B22320F0952311F00C94A2230C94A8233A
:1048100011240C94ED230E94CA2370F3959FC1F3D9
:10482000950F50E0551F629FF001729FBB27F00D5E
:10483000B11D639FAA27F00DB11DAA1F649F6627B3
:10484000B00DA11D661F829F2227B00DA11D621F02
:10485000739FB00DA11D621F839FA00D611D221FBC
:10486000749F3327A00D611D231F849F600D211DA0
:10487000822F762F6A2F11249F5750409AF0F1F023
:1048800088234AF0EE0FFF1FBB1F661F771F881F8C
:1048900091505040A9F79E3F510580F00C94A223FF
:1048A0000C94ED235F3FE4F3983ED4F3869577951F
:1048B0006795B795F795E7959F5FC1F7FE2B880F32
:1048C000911D9695879597F908950E947E23880BF0
:1048D000990B0895CF93DF938230910510F482E015
:1048E00090E0E0913B05F0913C0520E030E0C0E035
:1048F000D0E0309711F14081518148175907C0F03D
:104900004817590761F482819381209719F09B839E
:104910008A832BC090933C0580933B0526C02115CC
:10492000310519F04217530718F49A01BE01DF014F
:10493000EF010280F381E02DDCCF2115310509F173
:10494000281B390B2430310590F412968D919C91DF
:1049500013976115710521F0FB019383828304C0D5
:1049600090933C0580933B05FD01329644C0FD01C8
:10497000E20FF31F81939193225031092D933C93C1
:104980003AC02091390530913A05232B41F420910A
:1049900003013091040130933A05209339052091A9
:1049A0000101309102012115310541F42DB73EB7C7
:1049B0004091050150910601241B350BE09139050A
:1049C000F0913A05E217F307A0F42E1B3F0B2817CE
:1049D000390778F0AC014E5F5F4F2417350748F078
:1049E0004E0F5F1F50933A05409339058193919381
:1049F00002C0E0E0F0E0CF01DF91CF9108950F9386
:104A00001F93CF93DF93009709F48CC0FC0132977A
:104A10001382128200913B0510913C05011511058E
:104A200081F420813181820F931F209139053091CB
:104A30003A052817390779F5F0933A05E0933905D7
:104A400071C0D80140E050E0AE17BF0750F4129695
:104A50002D913C911397AD012115310509F1D90133
:104A6000F3CF9D01DA013383228360817181860F48
:104A7000971F8217930769F4EC0128813981260F6B
:104A8000371F2E5F3F4F318320838A819B81938321
:104A90008283452B29F4F0933C05E0933B0542C00B
:104AA0001396FC93EE931297ED01499159919E0153
:104AB000240F351FE217F30771F480819181840F71
:104AC000951F029611969C938E93828193811396E3
:104AD0009C938E931297E0E0F0E0D80112968D91AE
:104AE0009C911397009719F0F8018C01F6CF8D91E6
:104AF0009C9198012E5F3F4F820F931F20913905A3
:104B000030913A052817390769F4309729F4109243
:104B10003C0510923B0502C01382128210933A05A5
:104B200000933905DF91CF911F910F910895A0E077
:104B3000B0E0EDE9F5E20C94FC28EC01009721F4DB
:104B4000CB010E946A24B8C0FC01E60FF71F9C014C
:104B500022503109E217F30708F4ACC0D9010D91D6
:104B60001C91119706171707B0F00530110508F4CE
:104B70009FC0C80104978617970708F499C0025090
:104B80001109061B170B019311936D937C93CF01B1
:104B90000E94FF248DC05B01A01AB10A4C01800E57
:104BA000911EA0913B05B0913C0540E050E0E12C06
:104BB000F12C109709F44AC0A815B905D1F56D90EC
:104BC0007C901197630182E0C80ED11CCA14DB04EB
:104BD00080F1A3014A195B096A0182E0C80ED11C69
:104BE0001296BC9012971396AC91B5E0CB16D104F7
:104BF00040F0B282A38351834083D9016D937C93AB
:104C00000AC00E5F1F4FC301800F911FF9019183EE
:104C10008083EB2DFA2FE114F10431F0D7011396C4
:104C2000FC93EE93129744C0F0933C05E0933B0550
:104C30003FC08D919C9111974817590708F4AC011A
:104C40007D0112960D90BC91A02DB3CF80913905B6
:104C500090913A0588159905E1F446175707C8F46D
:104C60008091010190910201009741F48DB79EB7A8
:104C70004091050150910601841B950BE817F90737
:104C8000C8F4F0933A05E0933905F9017183608324
:104C90000FC0CB010E946A247C01009759F0A80143
:104CA000BE010E94BB27CE010E94FF24C70104C0A1
:104CB000CE0102C080E090E0CDB7DEB7EEE00C940C
:104CC0001829A0E0B0E0E7E6F6E20C94F8285C01D1
:104CD0006B017A016115710519F0FB0191838083E5
:104CE000E114F10429F0C7010297839708F0F1C09D
:104CF000E5012196F5011081812F90E00E9499270E
:104D0000892B11F05E01F4CF1D3229F42196F501B3
:104D1000118101E007C01B3221F4E5012296F50163
:104D2000118100E0E114F10459F1F0E1EF16F10412
:104D300061F41033E1F488818F7D883569F519813C
:104D40002296026070E1E72EF12C88E0E816F1046B
:104D500039F12CF4F2E0EF16F104C9F12AC08AE02F
:104D6000E816F10479F0E0E1EE16F10411F550E1F6
:104D7000E52EF12C812C912CA12C68E0B62E2CC0B4
:104D80001033C9F23AE0E32EF12C4CEC842E982C2F
:104D9000A82C4CE0B42E20C010E3E114F104A9F6D5
:104DA00098E0E92EF12C812C912CA12C20E1B22E3F
:104DB00013C060E070E080E090E897010F2C000CD9
:104DC000440B550B0E94FF2149015A0105C0812C5B
:104DD000912CA12C80E4B82E60E020E030E0A90105
:104DE00027010F2C000C660877081E01E0EDE10F8B
:104DF000EA3060F08FEB810F8A3110F4E9EC05C0E6
:104E00008FE9810F8A3128F5E9EAE10F8E2F90E0D2
:104E10008E159F05F4F467FD18C082169306A4064C
:104E2000B50690F0C301B2010E94DD289B01AC01E0
:104E30002E0F311D411D511D213031054105F0E876
:104E40005F0710F461E001C06FEF2196F10110815E
:104E5000CCCF802F8170C114D10471F0662329F06A
:104E60002197F601D183C08307C001FF19C02297A3
:104E7000F601D183C08314C067FF12C0811105C041
:104E80002FEF3FEF4FEF5FE704C020E030E040E05E
:104E900050E882E290E090933E0580933D0516C075
:104EA000882341F050954095309521953F4F4F4FC5
:104EB0005F4F0CC057FF0AC082E290E090933E051E
:104EC00080933D052FEF3FEF4FEF5FE7B901CA0138
:104ED00004C060E070E080E090E0CDB7DEB7E2E1D2
:104EE0000C9414291F93FC0199278827BC01E8948E
:104EF00011911032E9F3193010F01E30C8F31B3253
:104F000051F01D3249F4689406C00E946328610F75
:104F1000711D811D911D119110531A30B0F33EF493
:104F200090958095709561957F4F8F4F9F4F1F9102
:104F3000089591110C94CA28803219F08950855037
:104F4000C8F708959111089581548A5108F4805E3C
:104F5000855A08959111089581568A5108F4805216
:104F600085580895FB01DC0102C005900D92415067
:104F70005040D8F70895FB01DC0102C001900D926A
:104F800041505040D8F708956817790768F4FB013D
:104F9000DC01E40FF51FA40FB51F02C002900E92B2
:104FA00041505040D8F708950C94BB27FC018191E3
:104FB000861721F08823D9F7992708953197CF01D3
:104FC0000895FB01DC018D91019080190110D9F346
:104FD000990B0895FB01DC0101900D920020E1F78F
:104FE0000895FB01DC014150504030F08D9101905B
:104FF000801919F40020B9F7881B990B0895FB015B
:10500000DC014150504048F001900D920020C9F75A
:1050100001C01D9241505040E0F70895FC0181E02D
:1050200090E00190061609F4CF010020D1F7019716
:105030000895FB0151915523A9F0BF01DC014D9169
:1050400045174111E1F759F4CD010190002049F0D5
:105050004D9140154111C9F3FB014111EFCF81E0A2
:1050600090E0019708954532510520F4423010F048
:105070000C943E28FB011082CB010895BB274A30D7
:1050800031F4992322F4BDE2909581959F4F0C94C1
:10509000B1282532310520F4223010F00C94542828
:1050A000FA011082CA010895BB272A3051F49923CE
:1050B00042F4BDE290958095709561957F4F8F4F3A
:1050C0009F4F0C948428592F482F372F262F660F77
:1050D000771F881F991F660F771F881F991F620F00
:1050E000731F841F951F660F771F881F991F0895D0
:1050F0002532310520F4223010F00C948328FA0177
:105100001082CA010895BB27FA01A62F6217710504
:1051100081059105330B30FB66F0AA27660F771FD8
:10512000881F991FAA1FA21710F0A21B6395385061
:10513000A9F7A05DAA3308F0A95DA19336F7B111D4
:10514000B1931082CA010C94CD284532510520F448
:10515000423010F00C94B028FB011082CB0108956E
:10516000BB27FB015527AA27880F991FAA1FA41741
:1051700010F0A41B83955051B9F7A05DAA3308F035
:10518000A95DA193009779F7B111B1931192CB0169
:105190000C94CD28992788270895DC01FC01672FFE
:1051A00071917723E1F7329704C07C916D937083FE
:1051B0006291AE17BF07C8F30895DB018F939F93E9
:1051C0000E94ED28BF91AF91A29F800D911DA39FDA
:1051D000900DB29F900D112408950E942F29A59F34
:1051E000900DB49F900DA49F800D911D11240895E2
:1051F0002F923F924F925F926F927F928F929F92E7
:10520000AF92BF92CF92DF92EF92FF920F931F93D4
:10521000CF93DF93CDB7DEB7CA1BDB0B0FB6F89485
:10522000DEBF0FBECDBF09942A88398848885F84C5
:105230006E847D848C849B84AA84B984C884DF8036
:10524000EE80FD800C811B81AA81B981CE0FD11D1A
:105250000FB6F894DEBF0FBECDBFED010895A29F3B
:10526000B001B39FC001A39F700D811D1124911D3A
:10527000B29F700D811D1124911D0895F894FFCFE8
:105280000100003F052000206C696E65200041731D
:1052900073657274696F6E3A20220022206661691C
:1052A0006C65642E20476F696E6720696E746F208D
:1052B000696E66696E697465206C6F6F702E00632D
:1052C0006F6D6D616E645F70617273696E672E6879
:1052D000006320213D20275C6E27006320213D20B4
:1052E000275C302700496E697469616C697A696E60
:1052F000672E2E2E004E616D650055736167650047
:105300004465736372697074696F6E002122556E13
:10531000726561636861626C6520636F64652070AB
:105320006174682E2200436F6D6D616E642E637030
:105330007000617267765B305D002A746869730083
:10534000556E6B6E6F776E20636F6D6D616E64204E
:105350002700272E00360037003800390031300092
:1053600031310031320031330041300041310041F0
:105370003200413300413400413500DE01E101E4F7
:1053800001E701F601F901D501D701D901DB01DD02
:1053900001E001E301E601E901EC01EF01F201F5B1
:1053A00001F80100000000021700010203040506D5
:1053B0000708090A0B0C0D0E0F101112136C6F77F2
:1053C000004C4F5700686967680048494748002EFD
:1053D0002F50696E732E680050696E200000000126
:1053E0000002000300040005000600070008000991
:1053F000000A000B000C000D000E000F0010001141
:1054000000120013001300130043616E6E6F7420CE
:105410007061727365202700206973206E6F74209D
:10542000696E204F5554505554206D6F64652E00A1
:105430002C20002920292E00206973206E6F7420F3
:1054400050574D2D656E61626C65642E0000000141
:105450000002000300040005000600070008000920
:10546000000A000B000C000D000E000F00100011D0
:1054700000120013001300130000000000000001E0
:105480000000000100010000000000000001000118
:105490000000000000020002000200020002000200
:1054A00000000001000200030004000500060007E0
:1054B00000080009000A000B000C000D000E000F90
:1054C0000010001100120013001300130000000070
:1054D00000000001000000010001000000000000C9
:1054E00000010001000000000002000200020002B2
:1054F00000020002004F555450555400494E50557B
:105500005400494E5055545F50554C4C555000690D
:105510006E707574006F757470757400696E707557
:10552000745F70756C6C7570000000010002000300
:10553000000400050006000700080009000A000B2F
:10554000000C000D000E000F0010001100120013DF
:1055500000130013004F4E004F4646006F66660072
:10556000434C4F534544004F50454E4544004F5027
:10557000454E006F70656E00636F6D6D616E647394
:105580002F737465707065725F636F6E74726F6C89
:105590002E63707000737465707065722E706F7317
:1055A0006974696F6E2829203D3D203530750043B0
:1055B0004C4F534500636C6F736500737465707076
:1055C00065722E706F736974696F6E2829203D3D76
:1055D0002030750000000000D1062E097906A406CF
:1055E0008B06C6066E616E00696E66006F76660099
:0855F000000000005E142E090A
:00000001FF
