:100000000C94A7030C9402040C942F040C94CF03BB
:100010000C94CF030C94CF030C94CF030C94CF0318
:100020000C94CF030C94CF030C94CF030C94CF0308
:100030000C94CF030C94CF030C94CF030C94CF03F8
:100040000C94D7040C94CF030C940E070C94510716
:100050000C94CF030C94CF030C94CF030C94CF03D8
:100060000C94CF030C94CF034572726F723A200048
:100070004572726F723A20004572726F723A2000B8
:100080004572726F723A20004572726F723A2000A8
:100090004572726F723A20004572726F723A200098
:1000A0004572726F723A20004572726F723A200088
:1000B000461C9A028A16111A5602A0163719050212
:1000C000B8160F1BB401D016C71A5401E8165319FD
:1000D000EC000017961E96051817A41BBA023017DD
:1000E000A11F16054817CE1FB1045E17616E616C23
:1000F0006F67777269746500616E616C6F677772A4
:10010000697465203C70696E3E203C76616C756553
:100110003E0044726976652074686520676976657B
:100120006E2050574D2070696E2077697468206189
:100130002070756C736520776964746820696E201F
:100140007468652072616E6765205B302C203235E3
:1001500036292E00616E616C6F67726561640061A3
:100160006E616C6F6772656164203C70696E3E0001
:1001700053686F772074686520616E616C6F6720CB
:10018000766F6C746167652072656164696E672063
:10019000696E207468652072616E6765205B302C23
:1001A00020313032342920666F72207468652070E7
:1001B000696E2E006469676974616C777269746531
:1001C000006469676974616C7772697465203C705A
:1001D000696E3E203C76616C75653E0044726976BE
:1001E000652074686520676976656E2070696E2089
:1001F0004849474820283129206F72204C4F57200A
:100200002830292E006469676974616C72656164C5
:10021000006469676974616C72656164203C70692F
:100220006E3E00526561642077686574686572206F
:1002300074686520676976656E2070696E206973E1
:10024000204849474820283129206F72204C4F57B9
:10025000202830292E0070696E6D6F64650070690A
:100260006E6D6F6465203C70696E3E205B6D6F64DF
:10027000655D00476574206F722073657420746833
:1002800065206D6F646520666F72207468652067F5
:100290006976656E2070696E2E0068656C70006806
:1002A000656C70005072696E7420746869732068A0
:1002B000656C70206D656E752E00686561646C6993
:1002C0006768747300686561646C6967687473203B
:1002D0005B4F4E2F4F46465D004D6F646966792037
:1002E0006F7220717565727920746865207374610E
:1002F0007465206F662074686520686561646C6948
:10030000676874732E004578706563746564206F48
:100310006E65206F6620276F6E272C20274F4E2793
:100320002C20276F6666272C206F7220274F4646A9
:10033000272E00436F6D6D616E64202768656164D0
:100340006C6967687473272074616B6573206174CE
:10035000206D6F7374203120617267756D656E74E6
:100360002E00206973206F75742D6F662D72616E7B
:10037000676520666F7220616E616C6F6777726966
:10038000746520286D75737420626520696E207411
:1003900068652072616E6765205B002720617320AD
:1003A0006120646563696D616C20696E7465676561
:1003B0007220696E20616E616C6F67777269746517
:1003C0002E00206973206E6F7420696E20494E5094
:1003D0005554206F7220494E5055545F50554C4C27
:1003E0005550206D6F64652E00206973206E6F7408
:1003F00020616E20616E616C6F672070696E2E00E7
:10040000206973206E6F742063757272656E746CF0
:100410007920696E204F5554505554206D6F646596
:100420002E00496E76616C6964206C6F6769632089
:100430006C6576656C202700496E76616C69642076
:1004400070696E206D6F6465202700496E76616C5F
:1004500069642070696E206E616D652027002061DF
:100460007267756D656E74732E00272065787065F0
:10047000637473206174206D6F73742000436F6D1B
:100480006D616E6420270020617267756D656E7402
:10049000732E002720657870656374732061742063
:1004A0006C656173742000436F6D6D616E6420270D
:1004B00000636865636B656E67696E655F6C69672D
:1004C000687400636865636B656E67696E655F6C11
:1004D00069676874205B4F4E2F4F46465D00476545
:1004E00074206F7220736574207768657468657214
:1004F0002074686520636865636B20656E67696E4C
:1005000065206C69676874206973206F6E206F7254
:10051000206F66662E00636865636B656E67696E43
:10052000655F73746174757300636865636B656E92
:1005300067696E655F7374617475730043686563A2
:100540006B207768657468657220746865726520D1
:10055000697320612070726F626C656D20776974B9
:10056000682074686520656E67696E6520657665CC
:100570006E207768656E2074686520636865636BBC
:1005800020656E67696E65206C69676874206973A1
:10059000206F66662E0077696E646F770077696EEC
:1005A000646F77205B4F50454E2F434C4F53455D52
:1005B00000476574206F722073657420746865202D
:1005C00077696E646F7720706F736974696F6E2ED0
:1005D00000496E76616C696420617267756D656E45
:1005E0007420746F20636F6D6D616E64202777696E
:1005F0006E646F77272E202056616C6964207661C7
:100600006C7565732061726520274F50454E272C0D
:1006100020276F70656E272C2027434C4F534527AA
:100620002C206F722027636C6F7365272E00436F39
:100630006D6D616E64202777696E646F7727207413
:10064000616B6573206174206D6F7374206F6E65CC
:1006500020617267756D656E7400457870656374AE
:100660006564206F6E65206F6620276F6E272C20D3
:10067000274F4E272C20276F6666272C206F72206D
:10068000274F4646272E00436F6D6D616E6420270D
:10069000636865636B656E67696E655F6C696768E3
:1006A00074272074616B6573206174206D6F73749F
:1006B000203120617267756D656E742E00436F6D19
:1006C0006D616E642027636865636B656E67696E34
:1006D000655F737461747573272074616B65732033
:1006E0006E6F20617267756D656E74732E00000009
:1006F00000070002010000030406000000000000E3
:1007000000000102040810204080010204081020AB
:100710000102040810200404040404040404020276
:10072000020202020303030303030000000023008C
:100730002600290000000000250028002B000000F2
:100740000000240027002A00451F362041201124E4
:100750001FBECFEFD8E0DEBFCDBF14E0A0E0B1E018
:10076000ECEBFFE402C005900D92A833B107D9F776
:1007700025E0A8E3B4E001C01D92A339B207E1F778
:1007800013E0C7EAD3E004C02197FE010E94BF2016
:10079000C43AD107C9F70E947D160C94DC270C944B
:1007A00000008230E8F4E82FF0E0EE0FFF1FE85C75
:1007B000FB4F71836083813041F0909169009C7F91
:1007C000942B90936900E89A089580916900837F43
:1007D000440F551F440F551F842B80936900E99ADD
:1007E0000895823060F4282F30E0813049F0E89895
:1007F000220F331FF901E85CFB4F1182108208952C
:10080000E998F6CF1F920F920FB60F9211242F93F3
:100810003F934F935F936F937F938F939F93AF9388
:10082000BF93EF93FF938091380490913904892B03
:1008300029F0E0913804F09139040995FF91EF9186
:10084000BF91AF919F918F917F916F915F914F91E8
:100850003F912F910F900FBE0F901F9018951F92F0
:100860000F920FB60F9211242F933F934F935F93E4
:100870006F937F938F939F93AF93BF93EF93FF9368
:1008800080913A0490913B04892B29F0E0913A043D
:10089000F0913B040995FF91EF91BF91AF919F912A
:1008A0008F917F916F915F914F913F912F910F9019
:1008B0000FBE0F901F9018958093000108958E3001
:1008C00008F08E502091000190E4299F900111249E
:1008D0008770822B80937C0080917A008064809363
:1008E0007A0080917A0086FDFCCF8091780090910B
:1008F000790008951F93CF93DF93182FEB0161E0E8
:100900000E94E605209739F460E0812FDF91CF91B6
:100910001F910C942206CF3FD10511F461E0F5CF71
:10092000E12FF0E0E251F94FE491E33031F140F48E
:10093000E130B1F0E230E1F0C038D1052CF3EECF78
:10094000E63029F1E73059F1E430B1F780918000C9
:10095000806280938000D0938B00C0938A0004C093
:1009600084B5806884BDC7BDDF91CF911F91089584
:1009700084B5806284BDC8BDF7CF80918000806857
:1009800080938000D0938900C0938800EDCF809140
:10099000B00080688093B000C093B300E5CF809131
:1009A000B00080628093B000C093B400DDCF1F928E
:1009B0000F920FB60F9211242F933F938F939F9313
:1009C000AF93BF9380913C0490913D04A0913E046D
:1009D000B0913F043091440423E0230F2D3758F5A4
:1009E0000196A11DB11D2093440480933C04909373
:1009F0003D04A0933E04B0933F0480914004909145
:100A00004104A0914204B09143040196A11DB11D7F
:100A10008093400490934104A0934204B093430414
:100A2000BF91AF919F918F913F912F910F900FBEEA
:100A30000F901F90189526E8230F0296A11DB11D57
:100A4000D2CF2FB7F89460913C0470913D0480910F
:100A50003E0490913F042FBF08953FB7F8948091D2
:100A6000400490914104A0914204B091430426B502
:100A7000A89B05C02F3F19F00196A11DB11D3FBFD6
:100A8000BA2FA92F982F8827BC01CD01620F711DA5
:100A9000811D911D42E0660F771F881F991F4A959F
:100AA000D1F70895CF92DF92EF92FF92CF93DF9329
:100AB0006B017C010E942D05EB01C114D104E104FE
:100AC000F10439F4DF91CF91FF90EF90DF90CF9058
:100AD00008950E942D056C1B7D0B683E734068F3E2
:100AE00081E0C81AD108E108F108C851DC4FE5CF10
:100AF000019739F0880F991F880F991F0297019766
:100B0000F1F70895789484B5826084BD84B58160DE
:100B100084BD85B5826085BD85B5816085BDEEE605
:100B2000F0E0808181608083E1E8F0E010828081E4
:100B300082608083808181608083E0E8F0E0808152
:100B400081608083E1EBF0E0808184608083E0EB72
:100B5000F0E0808181608083EAE7F0E0808184605A
:100B600080838081826080838081816080838081B6
:100B7000806880831092C1000895833081F028F44A
:100B8000813099F08230A9F008958630A9F087303D
:100B9000C9F08430B1F4809180008F7D03C08091D2
:100BA00080008F7780938000089584B58F7784BD0F
:100BB000089584B58F7DFBCF8091B0008F778093AF
:100BC000B00008958091B0008F7DF9CFCF93DF936F
:100BD00090E0FC01EE5FF84F24918A5E984FFC0193
:100BE00084918823C9F090E0880F991FFC01E25C92
:100BF000F84FA591B491FC01EC5CF84FC591D491EC
:100C000061110DC09FB7F8948C91209582238C932D
:100C10008881282328839FBFDF91CF910895623078
:100C200051F49FB7F8943C91822F809583238C9345
:100C3000E8812E2BEFCF8FB7F894EC912E2B2C93CD
:100C40008FBFEACF1F93CF93DF93162F282F30E06B
:100C5000F901E251F94F8491F901EE5FF84FD49117
:100C6000F901EA5EF84FC491CC23A1F081110E94F2
:100C7000BD05EC2FF0E0EE0FFF1FEC5CF84FA591E7
:100C8000B4918FB7F894EC91111108C0D095DE2380
:100C9000DC938FBFDF91CF911F910895DE2BF8CFAA
:100CA000CF93DF93282F30E0F901E251F94F84917F
:100CB000F901EE5FF84FD491F901EA5EF84FC49163
:100CC000CC23A1F081110E94BD05EC2FF0E0EE0FC6
:100CD000FF1FE65DF84FA591B491EC91ED2381E003
:100CE00090E009F480E0DF91CF91089580E090E0FA
:100CF000FACFFC0124853585F901E05CFF4F808146
:100D000091812E5B3F4FF90120813181821B930B32
:100D10008F7399270895FC0184859585FC01E05C1B
:100D2000FF4F408151813296208131814217530714
:100D300041F020813181820F931FFC01808190E07E
:100D400008958FEF9FEF0895DC011C968D919C9183
:100D5000FC01E05CFF4F408151813296208131815E
:100D60004217530781F020813181820F931FDC01EC
:100D70008C91208131812F5F3F4F2F733327318337
:100D8000208390E008958FEF9FEF0895FC0191A1DB
:100D9000992329F0A489B5898C9186FFF9CF11A2F6
:100DA0000895CF93DF93FC0126853785D901A05C98
:100DB000BF4F8D919C91119701968F739927E901EF
:100DC000CE5BDF4F4881598148175907D9F34D91C0
:100DD0005C91240F351FD9016C93A685B785A05C63
:100DE000BF4F11969C938E93A689B7898C91978D4E
:100DF00021E030E001C0220F9A95EAF7822B8C9314
:100E000081E081A30488F589E02D8081806480835E
:100E100081E090E0DF91CF91089508951F920F92A5
:100E20000FB60F9211242F934F935F938F939F933D
:100E3000EF93FF938091C00082FD27C02091C600F0
:100E40008091EB049091EC044091ED045091EE04FC
:100E500001968F7399274817590759F0E091EB04D1
:100E6000F091EC04E555FB4F20839093EC048093C4
:100E7000EB04FF91EF919F918F915F914F912F9193
:100E80000F900FBE0F901F9018958091C600F1CF64
:100E900085E494E00E947906892B11F00C940D07EB
:100EA00008951F920F920FB60F9211242F933F9324
:100EB0008F939F93EF93FF932091A7043091A80401
:100EC0008091A9049091AA042817390781F4809190
:100ED000C1008F7D8093C100FF91EF919F918F9111
:100EE0003F912F910F900FBE0F901F901895E0919A
:100EF000A904F091AA04E959FB4F20818091A9042B
:100F00009091AA0401968F7399279093AA048093D5
:100F1000A9042093C600E0CF8F929F92AF92BF9218
:100F2000CF92DF92EF92FF920F931F93CF93DF93B5
:100F3000CDB7DEB7FC011382128288EE93E0A0E009
:100F4000B0E084839583A683B78388E194E091839E
:100F500080837587648757874687318B208B138BF7
:100F6000028BF58AE48AD78AC68AB18EA08E938EC8
:100F7000828E8F85848F8889858F8989868F8A89DB
:100F8000878F8B8980A3DF91CF911F910F91FF9065
:100F9000EF90DF90CF90BF90AF909F908F9008958B
:100FA000CF92DF92EF92FF92CF93DF93EC016A0131
:100FB0007B01C11481EED806E104F10409F04FC0B1
:100FC000EC89FD89108260E874E88EE190E0A70169
:100FD00096010E949D2021503109410951095695E1
:100FE000479537952795E889F9893083EA89FB8900
:100FF000208319A2EE89FF8920813C8D81E090E059
:10100000AC0101C0440F3A95EAF7242B2083EE8906
:10101000FF8920813D8DAC0101C0440F3A95EAF76C
:10102000242B2083EE89FF8920813E8DAC0101C0F5
:10103000440F3A95EAF7242B2083EE89FF8920811B
:101040003F8D01C0880F3A95EAF78095822380830F
:10105000DF91CF91FF90EF90DF90CF900895EC89D2
:10106000FD8928A181E090E001C0880F2A95EAF768
:10107000808360E079E08DE390E0A70196010E9413
:101080009D202150310941095109569547953795C1
:101090002795211580E1380708F092CFA4CFCF9291
:1010A000DF92EF92FF921F93CF93DF93EC016A01DF
:1010B0007B01122FC11481EED806E104F10409F07E
:1010C00052C0EC89FD89108260E874E88EE190E0FE
:1010D000A70196010E949D20215031094109510923
:1010E0005695479537952795E889F9893083EA8998
:1010F000FB892083E88DF98D1083EE89FF8920819B
:101100003C8D81E090E0AC0101C0440F3A95EAF7D4
:10111000242B2083EE89FF8920813D8DAC0101C005
:10112000440F3A95EAF7242B2083EE89FF8920812A
:101130003E8DAC0101C0440F3A95EAF7242B208381
:10114000EE89FF8920813F8D01C0880F3A95EAF72B
:10115000809582238083DF91CF911F91FF90EF9044
:10116000DF90CF900895EC89FD8928A181E090E07F
:1011700001C0880F2A95EAF7808360E079E08DE36B
:1011800090E0A70196010E949D202150310941095C
:1011900051095695479537952795211580E13807D0
:1011A00008F08FCFA1CFCF93DF93FC018685978581
:1011B000DC01A05CBF4F8E5B9F4F4D915C911197FE
:1011C000EC012881398142175307B9F7A689B789FD
:1011D0004C91248D81E090E0BC0102C0660F771F26
:1011E0002A95E2F79B01209524232C93A689B789A1
:1011F0004C91258DEC0102C0CC0FDD1F2A95E2F742
:101200009E01209524232C93A689B7894C91268D85
:10121000BC0102C0660F771F2A95E2F79B0120955B
:1012200024232C93A689B7892C91378D01C0880F70
:101230003A95EAF7809582238C9384859585FC0105
:10124000EE5BFF4F20813181805C9F4FEC01398341
:101250002883DF91CF91089581E00895CF92DF92A6
:10126000EF92FF920F931F93CF93DF936C017B015B
:10127000E40EF51E10E000E06E157F0571F0EB0145
:10128000D601ED91FC910190F081E02D6991C601AC
:101290000995080F191FBE01EFCFC801DF91CF914B
:1012A0001F910F91FF90EF90DF90CF900895EF92F4
:1012B000FF920F931F93CF93DF937C018B01D0E0BC
:1012C000C0E0F80164910F5F1F4F662359F0D7010A
:1012D000ED91FC910190F081E02DC7010995C80FB7
:1012E000D91FEFCFCE01DF91CF911F910F91FF90CA
:1012F000EF900895AF92BF92CF92DF92EF92FF925C
:101300000F931F93CF93DF937C016B01D0E0C0E07C
:1013100010E000E0D60114968D919C91C817D90772
:1013200088F4D701ED91FC91A080B180BE01C60187
:101330000E944711682FC701F5010995080F191F71
:101340002196E8CFC801DF91CF911F910F91FF90B7
:10135000EF90DF90CF90BF90AF9008950C947C20D9
:10136000DC01ED91FC910190F081E02D0994DB010D
:10137000ED91FC9111970190F081E02DBC01CD0120
:1013800009940F931F93CF93DF93EC016DE00E94BC
:10139000B0098C016AE0CE010E94B009800F911F54
:1013A000DF91CF911F910F9108950F931F93CF93CA
:1013B000DF93EC010E9457098C01CE010E94C10904
:1013C000800F911FDF91CF911F910F9108950F937F
:1013D0001F93CF93DF93EC010E947A098C01CE0119
:1013E0000E94C109800F911FDF91CF911F910F9132
:1013F00008950F931F93CF93DF93EC010E947C20FD
:101400008C01CE010E94C109800F911FDF91CF9105
:101410001F910F9108950F931F93CF93DF93EC01CA
:101420000E94B0098C01CE010E94C109800F911F5A
:10143000DF91CF911F910F9108950F931F93CF9339
:10144000DF93EC010E94B7098C01CE010E94C10913
:10145000800F911FDF91CF911F910F9108954F92AF
:101460005F926F927F929F92AF92BF92CF92DF92E4
:10147000EF92FF920F931F93CF93DF93CDB7DEB719
:10148000A1970FB6F894DEBF0FBECDBF5C016A0115
:101490007B01922E19A281E0821710F08AE0982E2B
:1014A0008E010F5D1F4F492C512C712C612CC701EF
:1014B000B601A30192010E949D208C2D929E80195D
:1014C00011248A3034F5805DF80182938F01C414B1
:1014D000D504E604F704D0F4BF01C5010E947C20C6
:1014E000A1960FB6F894DEBF0FBECDBFDF91CF91AE
:1014F0001F910F91FF90EF90DF90CF90BF90AF9032
:101500009F907F906F905F904F90089569017A014E
:10151000CECF895CD9CFCF92DF92EF92FF920F931B
:101520001F93CF93DF93EC016A017B0121153105F5
:1015300079F4E881F9810190F081E02D642FDF9149
:10154000CF911F910F91FF90EF90DF90CF90099472
:101550002A303105E9F42AE0F7FE1AC06DE20E9454
:10156000B0098C0144275527BA014C195D096E0951
:101570007F092AE0CE010E942F0A800F911FDF9180
:10158000CF911F910F91FF90EF90DF90CF90089532
:10159000B701A601CE01DF91CF911F910F91FF906E
:1015A000EF90DF90CF900C942F0A9A01AB01770F48
:1015B000660B770B0C948B0A0F931F93CF93DF93DB
:1015C000EC010E94D50A8C01CE010E94C109800F56
:1015D000911FDF91CF911F910F9108950F931F934A
:1015E000CF93DF93EC010E948B0A8C01CE010E9405
:1015F000C109800F911FDF91CF911F910F91089525
:101600002115310541F4DC01ED91FC910190F0814F
:10161000E02D642F09940C942F0A9A01462F50E074
:1016200070E060E00C94000B0F931F93CF93DF9357
:10163000EC010E940D0B8C01CE010E94C109800FAC
:10164000911FDF91CF911F910F9108959A01AB01E6
:1016500070E060E00C94000B0F931F93CF93DF9327
:10166000EC010E94260B8C01CE010E94C109800F63
:10167000911FDF91CF911F910F9108950F931F93A9
:10168000CF93DF93EC010E94000B8C01CE010E94EE
:10169000C109800F911FDF91CF911F910F91089584
:1016A0004F925F926F927F928F929F92AF92BF9272
:1016B000CF92DF92EF92FF921F93CF93DF93EC01D3
:1016C0006A017B01122FAB019601CB01B6010E948A
:1016D000032364E274E0811126C046015701E894B7
:1016E000B7F82FEF3FEF4FE75FE7C501B4010E9466
:1016F000032381110CC02FEF3FEF4FE75FE7C501D8
:10170000B4010E94322168E274E0181664F02FEFF1
:101710003FEF4FE75FE4C701B6010E949122181620
:10172000A4F46CE274E0CE01DF91CF911F91FF90A1
:10173000EF90DF90CF90BF90AF909F908F907F9071
:101740006F905F904F900C947C202FEF3FEF4FE70E
:101750005FECC701B6010E94322187FDE2CF20E095
:1017600030E0A901C701B6010E943221B12CA12CA1
:1017700087FF09C06DE2CE010E94B0095C01F7FA53
:10178000F094F7F8F094912C60E070E080E09FE333
:10179000191541F020E030E040E251E40E94372189
:1017A0009394F6CFA70196010E94C6202B013C011D
:1017B0000E94B0216B017C010E94DF219B01AC01E2
:1017C000C301B2010E94C5202B013C012AE0B701F0
:1017D000A601CE010E942F0A7C01EA0CFB1C1123FA
:1017E00039F062E272E0CE010E947C20E80EF91E20
:1017F000115018F120E030E040E251E4C301B201A1
:101800000E9496222B013C010E94A9214B014AE033
:1018100050E0CE010E94D50AE80EF91EB401990CE1
:10182000880B990B0E94E1219B01AC01C301B2011D
:101830000E94C5202B013C01DBCFC701DF91CF9176
:101840001F91FF90EF90DF90CF90BF90AF909F904F
:101850008F907F906F905F904F9008950C94500BF5
:101860000F931F93CF93DF93EC010E94500B8C01D9
:10187000CE010E94C109800F911FDF91CF911F916E
:101880000F910895FC01808191810C949D23CF9349
:10189000DF93EC0188819981009711F00E949D23CC
:1018A000198218821D821C821B821A82DF91CF91BD
:1018B00008950F931F93CF93DF93EC018B016F5F1C
:1018C0007F4F888199810E943524009751F0998338
:1018D00088831B830A8381E0DF91CF911F910F9151
:1018E000089580E0F9CFCF93DF93EC01888199814F
:1018F000892B49F08A819B818617970720F081E028
:10190000DF91CF910895CE010E94590C8823C1F335
:101910008C819D81892B99F7E881F9811082EFCF25
:10192000EF92FF920F931F93CF93DF93EC017B0114
:101930008A01BA010E94730C81110BC0CE010E9472
:10194000470CCE01DF91CF911F910F91FF90EF9047
:1019500008951D830C83B701888199810E94882690
:10196000F0CFFC0111821082138212821582148240
:1019700016826115710551F0FB0101900020E9F715
:101980003197AF01461B570B0C94900C08950F93A1
:101990001F93CF93DF938C01EB01FC018081918138
:1019A0000097C9F0428153812C813D814217530732
:1019B00080F0688179810E9488268C819D81F80160
:1019C000958384831D821C82DF91CF911F910F919B
:1019D00008950E949D2388819981F80191838083D5
:1019E0008A819B81938382838C819D81958384836B
:1019F000198218821B821A82E5CFFC0111821082A3
:101A0000138212821582148216820C94C70CFC0178
:101A100011821082138212821582148216820C9413
:101A2000C70CCF93DF93EC01FB018617970749F0B2
:101A3000608171816115710541F0448155810E9479
:101A4000900CCE01DF91CF9108950E94470CF9CF01
:101A5000FC01118210821382128215821482168276
:101A60000C94110DCF93DF93EC018617970711F0BB
:101A70000E94C70CCE01DF91CF910895CF93DF93E1
:101A8000EC016817790711F00E94C70CCE01DF91B5
:101A9000CF910895CF93DF93EC016115710571F03B
:101AA000FB0101900020E9F73197AF01461B570B6E
:101AB0000E94900CCE01DF91CF9108950E94470CB7
:101AC000F9CFCF93DF9300D0CDB7DEB7FC01118201
:101AD00010821382128215821482168269831A82FE
:101AE000BE016F5F7F4F0E944A0D0F900F90DF91F4
:101AF000CF9108950F931F93CF93DF93CDB7DEB7A8
:101B000029970FB6F894DEBF0FBECDBF8C01862F8C
:101B1000F8011182108213821282158214821682B9
:101B200050E0BE016F5F7F4F90E00E944327BE01EF
:101B30006F5F7F4FC8010E944A0D29960FB6F89437
:101B4000DEBF0FBECDBFDF91CF911F910F910895E2
:101B50000F931F93CF93DF93CDB7DEB762970FB686
:101B6000F894DEBF0FBECDBF8C01CB01F80111820E
:101B700010821382128215821482168250E0BE01F6
:101B80006F5F7F4F0E94D126BE016F5F7F4FC801FC
:101B90000E944A0D62960FB6F894DEBF0FBECDBF0D
:101BA000DF91CF911F910F9108950F931F93CF93C2
:101BB000DF93CDB7DEB761970FB6F894DEBF0FBEE7
:101BC000CDBF8C01CB01F8011182108213821282E9
:101BD00015821482168250E0BE016F5F7F4F0E9413
:101BE0004327BE016F5F7F4FC8010E944A0D619677
:101BF0000FB6F894DEBF0FBECDBFDF91CF911F911E
:101C00000F9108950F931F93CF93DF93CDB7DEB756
:101C1000A2970FB6F894DEBF0FBECDBF8C01CB01EB
:101C2000BA01F80111821082138212821582148285
:101C3000168230E0AE014F5F5F4F0E94E726BE0183
:101C40006F5F7F4FC8010E944A0DA2960FB6F894AD
:101C5000DEBF0FBECDBFDF91CF911F910F910895D1
:101C60000F931F93CF93DF93CDB7DEB7A1970FB636
:101C7000F894DEBF0FBECDBF8C01CB01BA01F801D5
:101C8000118210821382128215821482168230E031
:101C9000AE014F5F5F4F0E941627BE016F5F7F4FFF
:101CA000C8010E944A0DA1960FB6F894DEBF0FBE80
:101CB000CDBFDF91CF911F910F910895EF92FF92C9
:101CC0000F931F93CF93DF93EC017B01672B41F4BC
:101CD00080E0DF91CF911F910F91FF90EF900895D9
:101CE00041155105A1F00C811D81040F151FB8018C
:101CF0000E94730C882361F3288139818C819D8136
:101D0000B701820F931F0E9488261D830C8381E0F8
:101D1000E0CFFB0144815581608171810C945E0E9E
:101D20006115710551F0FB0101900020E9F7319731
:101D3000AF01461B570B0C945E0E80E00895CF93C5
:101D4000DF9300D0CDB7DEB769831A8241E050E05F
:101D5000BE016F5F7F4F0E945E0E0F900F90DF916C
:101D6000CF910895EF92FF920F931F93CF93DF933C
:101D700000D000D0CDB7DEB77C01862F4AE08E01BF
:101D80000F5F1F4FB80190E00E94DC26F801019020
:101D90000020E9F73197AF01401B510BB801C70193
:101DA0000E945E0E0F900F900F900F90DF91CF91D9
:101DB0001F910F91FF90EF900895EF92FF920F9374
:101DC0001F93CF93DF9300D000D000D00F92CDB7F8
:101DD000DEB77C01CB014AE08E010F5F1F4FB801D7
:101DE0000E94DC26F80101900020E9F73197AF014D
:101DF000401B510BB801C7010E945E0E27960FB61B
:101E0000F894DEBF0FBECDBFDF91CF911F910F9130
:101E1000FF90EF900895EF92FF920F931F93CF934F
:101E2000DF9300D000D000D0CDB7DEB77C01CB016E
:101E30004AE08E010F5F1F4FB8010E944E27F80144
:101E400001900020E9F73197AF01401B510BB80119
:101E5000C7010E945E0E26960FB6F894DEBF0FBE35
:101E6000CDBFDF91CF911F910F91FF90EF9008951B
:101E7000EF92FF920F931F93CF93DF93CDB7DEB70F
:101E80002C970FB6F894DEBF0FBECDBF7C01CB01FF
:101E9000BA012AE08E010F5F1F4FA8010E94F226AF
:101EA000F80101900020E9F73197AF01401B510B79
:101EB000B801C7010E945E0E2C960FB6F894DEBFE3
:101EC0000FBECDBFDF91CF911F910F91FF90EF908B
:101ED0000895EF92FF920F931F93CF93DF93CDB7A7
:101EE000DEB72B970FB6F894DEBF0FBECDBF7C01D7
:101EF000CB01BA012AE08E010F5F1F4FA8010E949B
:101F00002127F80101900020E9F73197AF01401B2C
:101F1000510BB801C7010E945E0E2B960FB6F894C4
:101F2000DEBF0FBECDBFDF91CF911F910F91FF900C
:101F3000EF900895CF93DF93EC01FB01448155812D
:101F4000608171810E945E0E811103C0CE010E94EA
:101F5000470CCE01DF91CF910895CF93DF93EC0131
:101F60006115710539F4CE010E94470CCE01DF9155
:101F7000CF910895FB0101900020E9F73197AF015F
:101F8000461B570B0E945E0E882369F3EFCFCF9359
:101F9000DF93EC010E949F0E811103C0CE010E94CD
:101FA000470CCE01DF91CF910895CF93DF93EC01E1
:101FB0000E94B20E811103C0CE010E94470CCE01D7
:101FC000DF91CF910895CF93DF93EC010E94DD0E56
:101FD000811103C0CE010E94470CCE01DF91CF9149
:101FE0000895CF93DF93EC010E940B0F811103C082
:101FF000CE010E94470CCE01DF91CF910895CF937F
:10200000DF93EC010E94380F811103C0CE010E94C2
:10201000470CCE01DF91CF910895CF93DF93EC0170
:102020000E94690F811103C0CE010E94470CCE01AE
:10203000DF91CF910895CF93DF93EC01A881B9810F
:10204000EB01E881F9811097F1F03097B1F4EC01E0
:102050008C819D81892BC9F08C9190E00BC0DB01B4
:1020600014968D919C91892B81F0808190E09195BF
:1020700081959109DF91CF910895BF01CD01DF9145
:10208000CF910C947F26309751F790E080E0F2CF0B
:10209000FC0144815581FB0124813581421753079E
:1020A00029F40E941B1021E0892B09F020E0822FE7
:1020B0000895FC0124813581232B31F421E0FB01BB
:1020C000672B49F4822F08958081918161157105F4
:1020D00039F421E0FC0180818823A1F320E0F2CFD4
:1020E0000E947F2621E0892B69F3F8CF0E941B1004
:1020F000892F881F8827881F08950E941B1021E0C0
:10210000181619060CF020E0822F08950E941B106B
:1021100021E0181619060CF420E0822F08950E9481
:102120001B10892F8095881F8827881F0895CF92BC
:10213000DF92EF92FF920F931F93CF93DF93FB01F8
:102140008617970789F1DC0114962D913C9115971C
:102150004481558124173507D9F4232B29F10081B7
:102160001181ED90FC90F70181917F018823E1F0CE
:10217000082E000C990B0E9440266C01E801899101
:10218000082E000C990B0E944026C816D90651F063
:1021900080E0DF91CF911F910F91FF90EF90DF9042
:1021A000CF9008958E01DFCF81E0F3CFFA01DB01FC
:1021B00014964D915C91DC0114962D913C911597EC
:1021C000241B350B2E173F0788F08D919C910097AB
:1021D00069F0DB016D917C916115710539F08E0F0D
:1021E0009F1F0E948F2621E0892B09F020E0822F7B
:1021F0000895FC0144815581FB01248135814217FA
:10220000530720F050E040E00C94D61080E0089591
:10221000FC0124813581FB01448155812417350758
:10222000A0F0FC0180819181009779F0FB01608131
:1022300071816115710549F0241B350B820F931FC5
:102240000E947F2621E0892B09F020E0822F08954B
:10225000FC01248135816217730730F480819181FC
:10226000860F971FFC0140830895FC01248135816E
:102270006217730720F480819181009729F41092EE
:10228000EF048FEE94E00895860F971F0895FC01E8
:10229000248135816217730748F48081918100970A
:1022A00029F0860F971FFC018081089580E0089532
:1022B0000C9447110F931F93CF93DF938B0141151C
:1022C000510559F06115710541F0FC01C481D581BA
:1022D0002C173D0738F0FB011082DF91CF911F9141
:1022E0000F91089541505109C21BD30B4C175D0744
:1022F00008F4EA01FC0160817181620F731FAE0175
:10230000C8010E949D26C00FD11F1882E6CFCF932F
:10231000DF93FC01248135814217530788F4C08183
:10232000D181062E000C770BCE01840F951F0E94E1
:102330007426009729F08C1B9D0BDF91CF91089597
:102340008FEF9FEFFACF50E040E00C948711CF93CE
:10235000DF93FC01248135814217530788F4C08143
:10236000D181FB0160817181CE01840F951F0E9494
:10237000B726009729F08C1B9D0BDF91CF91089514
:102380008FEF9FEFFACF50E040E00C94A711DF925F
:10239000EF92FF920F931F93CF93DF938C01DC0199
:1023A00014968D919C9115974817590750F08FEF0F
:1023B0009FEFDF91CF911F910F91FF90EF90DF90F2
:1023C0000895EA012196ED91FC911197EC0FFD1F04
:1023D000D0801082ED90FC90062E000C770BC70188
:1023E0000E94AC26CE0DDF1DD882009701F3F801C4
:1023F00020813181821B930BDCCFFC01448155810C
:10240000415051090C94C711AF92BF92CF92DF9205
:10241000EF92FF920F931F93CF93DF936B01EA012B
:10242000FB01448155814115510561F1FC01248175
:1024300035812115310531F12417350718F1C217FF
:10244000D30710F0E9012197FC0100811181C80137
:10245000AA24AA94BB24BA947801EC0EFD1EE816B7
:10246000F906A0F0F601608171810E94B7260097FD
:1024700069F09C01201B310BC217D30708F05901EA
:102480000196EDCFAA24AA94BB24BA94C501DF918A
:10249000CF911F910F91FF90EF90DF90CF90BF9061
:1024A000AF900895FC0144815581FB012481358161
:1024B000421B530B0C940412AF92BF92CF92DF9247
:1024C000EF92FF920F931F93CF93DF935C016B0109
:1024D0007A0189012417350720F48F2D7901042F03
:1024E000182F6FE472E0C5010E94B10CD60114965A
:1024F000CD91DC91CE15DF05C8F00C171D0708F44F
:10250000E801D601ED91FC911197EC0FFD1F1081B0
:1025100010826D917C916E0D7F1DC5010E944A0D48
:10252000F60180819181C80FD91F1883C501DF9101
:10253000CF911F910F91FF90EF90DF90CF90BF90C0
:10254000AF900895CF93DF93EC01FB012481358197
:102550000E945C12CE01DF91CF910895DC01ED91D4
:10256000FC91309749F08191882331F08613FBCF9D
:10257000DF0111974C93F7CF08952F923F924F921E
:102580005F926F927F928F929F92AF92BF92CF9203
:10259000DF92EF92FF920F931F93CF93DF938C0103
:1025A0005B017A01FC01448055804114510409F417
:1025B000CCC0FB01648075806114710409F4C5C04E
:1025C000FA01C480D580C618D708FC01C081D1812A
:1025D000C114D104B9F4F50160817181CE010E946A
:1025E000B726EC01009709F4B0C0F7016081718152
:1025F000448155810E945926F70184819581C80F35
:10260000D91FE9CFD7FC11C0FB01208031804201E6
:10261000B101CE010E94B726009709F44AC0EC012F
:10262000C60DD71D8C0C9D1CF3CF3E01F5016081BA
:102630007181CE010E94B7262C01009721F14C0137
:102640008C1A9D0AA401BE01C3010E945926680C80
:10265000791CF7016081718144815581C3010E9419
:102660005926F70184809580680C791CF501C48196
:10267000D581C40DD51DF801848195818C0D9D1DDA
:1026800095838483D3CFBE01C301DF91CF911F9186
:102690000F91FF90EF90DF90CF90BF90AF909F9001
:1026A0008F907F906F905F904F903F902F900C9401
:1026B00088264814590409F448C0F801828193819E
:1026C00088159905E0F1F80144815581415051097F
:1026D00057FD3BC0B501C8010E940412EC0197FDF3
:1026E00034C0F50124813581280F391FF80180811C
:1026F0009181820F931F44815581421B530BBC0172
:102700008C0D9D1D0E946226F801848195818C0D9F
:102710009D1D9583848320813181820F931FFC014D
:102720001082F80180819181F7016081718144817B
:1027300055818C0F9D1F0E945926AE01C7CFB40151
:10274000C8010E94590C8111BECFDF91CF911F911A
:102750000F91FF90EF90DF90CF90BF90AF909F9040
:102760008F907F906F905F904F903F902F90089543
:10277000CF93DF93FC01C081D181209761F08991D3
:10278000882349F0082E000C990B0E944026FE0178
:1027900031978083F4CFDF91CF910895CF93DF936A
:1027A000FC01C081D181209761F08991882349F093
:1027B000082E000C990B0E944826FE013197808359
:1027C000F4CFDF91CF910895AF92BF92CF92DF9275
:1027D000EF92FF920F931F93CF93DF938C01DC0155
:1027E000ED90FC901197E114F104E1F11496CD9174
:1027F000DC912097B9F157016501F50181915F01E5
:10280000082E000C990B0E943726892BA9F72197D7
:10281000CE0DDF1D8881082E000C990B0E943726F3
:10282000892B29F0CC15DD0510F02197F3CFAE01EF
:102830004F5F5F4F4C195D09D80115965C934E931D
:102840001497EC14FD0420F4B601C7010E94592628
:10285000D801ED91FC91119714968D919C91E80F00
:10286000F91F1082DF91CF911F910F91FF90EF9090
:10287000DF90CF90BF90AF900895FC01808191814F
:10288000009711F00C94102660E070E0CB010895E1
:102890000C9408230C9408230C949D230C949D23E2
:1028A000FC0181E090E02081222311F090E080E0A3
:1028B000089521E0FC012083089508950895CF93A1
:1028C000DF9300D0CDB7DEB78C0169017A0185E4D2
:1028D00094E00E94AE0967E071E085E494E00E9414
:1028E000AE092AE030E0B701A60185E494E00E9439
:1028F000EE0A6EE071E085E494E00E94AE09B80152
:1029000085E494E00E94AE096BE171E085E494E017
:102910000E94F9091A82198289819A8101969A8303
:102920008983FACFDC01EC91E63140F4F0E0E95024
:10293000FE4F8081082E000C990B089525E730E0AA
:1029400040E050E06FE371E086E491E00E945F14A4
:10295000CF93DF93EC0186179707D1F028812A30B7
:1029600049F423E130E040E050E060E671E082E7C6
:1029700091E00CC0FC013196211110C024E130E03F
:1029800040E050E060E671E08CE791E00E945F1467
:1029900060E070E0CB01DF91CF910895DF016E1709
:1029A0007F0799F021912A3029F420E230E040E0BD
:1029B00050E0DBCF211105C021E230E040E050E0E3
:1029C000E1CF203211F0293049F7BE01CD018C1B37
:1029D0009D0BE1CFDC011296ED91FC9113974D9187
:1029E0005C911197CA018770992721E030E002C0FD
:1029F000220F331F8A95E2F783E0569547958A9513
:102A0000E1F7E40FF51F9081662321F0922B90836C
:102A1000CD010895209530959223F9CFEF92FF9242
:102A20000F931F93CF93DF9300D000D0CDB7DEB7C5
:102A30008C017B0161307105D9F16230710561F063
:102A4000672BC1F029E930E040E050E06FE371E02E
:102A500086E491E00E945F14C8010E94921427E866
:102A600035E03C832B839A83898361E0CE01019614
:102A70000E94EA14C8010E9492142AE835E03C83BF
:102A80002B839A83898361E0CE0101960E94EA1428
:102A90006E2DF80180810E94E6050F900F900F9037
:102AA0000F90DF91CF911F910F91FF90EF900895BC
:102AB000C8010E94921427E835E03C832B839A8357
:102AC000898360E0CE0101960E94EA14C8010E9449
:102AD00092142AE835E03C832B839A83898360E053
:102AE000D3CF40E052EC61E070E085E494E00E94D6
:102AF000D00766E871E085E494E00E94F90970E08F
:102B000060E080E292E00E940E1570E060E08FE1EC
:102B100092E00E940E1570E060E08EE192E00E946B
:102B20000E1570E060E08DE192E00E940E1570E0FD
:102B300060E08CE192E00E940E1570E060E08BE1B5
:102B400092E00E940E1570E060E08AE192E00E943F
:102B50000E1570E060E089E192E00E940E1570E0D1
:102B600060E088E192E00E940E1570E060E087E18D
:102B700092E00E940E1570E060E086E192E00E9413
:102B80000E1570E060E085E192E00E940E1570E0A5
:102B900060E084E192E00E940E1570E060E083E165
:102BA00092E00E940E1570E060E082E192E00E94E7
:102BB0000E1570E060E081E192E00E940E1570E079
:102BC00060E080E192E00E940E1570E060E08FE02E
:102BD00092E00E940E1570E060E08EE092E00E94AC
:102BE0000E1570E060E08DE092E00E940E1541E06D
:102BF00050E064E87FE180E00C94D103CF92DF9253
:102C0000EF92FF920F931F93CF93DF9366E971E0EA
:102C100085E494E00E94AE09C4E0D5E085E494E048
:102C20000E94A4068F3F9807C9F381110AC02CE4C3
:102C300030E040E050E060E671E08CE991E00E9415
:102C40005F148A3081F51882C450D540D7FD38C052
:102C500080EFC82E84E0D82E04E015E0F12CE12CA2
:102C60002097F1F1B8016C0F7D1FC8010E94A814D4
:102C700061157105A9F1F601619371936F01080F58
:102C8000191FC81BD90BFFEFEF1AFF0A209741F15C
:102C9000F80111928F012197FAE0EF16F10401F784
:102CA00064ED71E00FC08830C9F4F5E0C430DF078F
:102CB00011F008F0219725E0C438D20708F4AECF10
:102CC0006BEB71E085E494E0DF91CF911F910F9160
:102CD000FF90EF90DF90CF900C94F9098993EBCFA0
:102CE00060EF74E0C701DF91CF911F910F91FF90CA
:102CF000EF90DF90CF900C94C61C0E9482050E943A
:102D00007115C8E4D7E00E94FE152097E1F30E94F8
:102D10004807F9CF6130710549F06230710551F013
:102D2000672B71F4BC0184E090E00895BC016B5FF7
:102D30007F4FF9CFBC01665F7F4F85E190E008953A
:102D40006130710549F06230710561F0672B81F4E3
:102D5000BC0187E090E00895BC01685F7F4F84E18B
:102D600090E00895BC01635E7F4F86E290E0089595
:102D70006130710549F06230710561F0672B81F4B3
:102D8000BC018BE090E00895BC01645F7F4F81E15E
:102D900090E00895BC01625E7F4F82E390E0089569
:102DA0006130710549F06230710561F0672B81F483
:102DB000BC018CE090E00895BC01635F7F4F8AE125
:102DC00090E00895BC01685D7F4F88E290E008952F
:102DD0006130710549F06230710561F0672B81F453
:102DE000BC018AE090E00895BC01655F7F4F80E1FF
:102DF00090E00895BC01645E7F4F83E490E0089505
:102E00006130710549F06230710561F0672B81F422
:102E1000BC018BE090E00895BC01645F7F4F89E1C5
:102E200090E00895BC016A5D7F4F81E490E00895D1
:102E30006130710549F06230710561F0672B81F4F2
:102E4000BC0186E090E00895BC01695F7F4F83E19B
:102E500090E00895BC01655E7F4F8FE190E008959A
:102E60006130710549F06230710561F0672B81F4C2
:102E7000BC018AE090E00895BC01655F7F4F83E16B
:102E800090E00895BC01615E7F4F8CE290E0089570
:102E90006130710549F06230710551F0672B71F4B2
:102EA000BC0182E190E00895BC016D5E7F4FF9CFD7
:102EB000BC016A5D7F4F89E590E00895613071053E
:102EC00049F06230710561F0672B81F4BC0181E14A
:102ED00090E00895BC016E5E7F4F8AE190E0089516
:102EE000BC01635D7F4F87E390E00895EF92FF920E
:102EF0000F931F93CF93DF938C017B01BC0185E47B
:102F000094E00E94AE09E80109900020E9F72197BA
:102F1000C01BD10BCE15DF0538F460E285E494E0E8
:102F20000E94B0092196F6CFDF91CF911F910F91AA
:102F3000FF90EF900895EF92FF920F931F93CF931E
:102F4000DF9300D000D000D0CDB7DEB77A018C017E
:102F50002DE733E03A8329836B837C838D839E83C3
:102F6000BE016F5F7F4F85E494E00E94B7090E15A4
:102F70001F0540F460E285E494E00E94B0090F5F11
:102F80001F4FF5CF26960FB6F894DEBF0FBECDBF0C
:102F9000DF91CF911F910F91FF90EF900895DC0189
:102FA000EC91E43140F4F0E0E95EFC4F8081082EC2
:102FB000000C990B089529E530E040E050E06FE304
:102FC00071E086E491E00E945F14CF93DF93EC01FF
:102FD0000E949214FC0133E0F695E7953A95E1F7EB
:102FE000E657FA4F2081022E000C330B8770992789
:102FF00002C0359527958A95E2F781E090E020FFA1
:103000001CC0CE010E949214FC0123E0F695E795C6
:103010002A95E1F7E957FA4F2081022E000C330B75
:103020008770992702C0359527958A95E2F790E039
:1030300080E020FF02C082E090E0DF91CF91089510
:10304000AF92BF92CF92DF92EF92FF920F931F93B6
:10305000CF93DF935C016B017A01E90168EA70E0CC
:1030600085E494E00E945709F5016081718185E44F
:1030700094E00E945709F6016081718185E494E033
:103080000E94AE09F7016081718185E494E00E949D
:103090005709688179814AE050E085E494E00E9414
:1030A000D50AF8016081718185E494E00E94570996
:1030B00085E494E00E94C1098FEF9FEFDF91CF91EB
:1030C0001F910F91FF90EF90DF90CF90BF90AF9046
:1030D0000895EF92FF920F931F93CF93DF937C019C
:1030E0008B01EA0160EA70E085E494E00E945709F0
:1030F000F7016081718185E494E00E945709F8012D
:103100006081718185E494E00E94AE09BE0185E48E
:1031100094E00E94AE0985E494E00E94C1098FEF1B
:103120009FEFDF91CF911F910F91FF90EF90089546
:103130008F929F92AF92BF92CF92DF92EF92FF92C7
:103140000F931F93CF93DF93CDB7DEB728970FB6BA
:10315000F894DEBF0FBECDBF7B0184179507B4F591
:1031600087E894E09A838983415051095C834B83BB
:1031700083E994E09E838D8387EA94E098878F8328
:103180008E010F5F1F4F9E012D5F3F4FAE014B5FC2
:103190005F4FB701CE0107960E942018892BE9F0F6
:1031A000D12CC12CC60128960FB6F894DEBF0FBEF5
:1031B000CDBFDF91CF911F910F91FF90EF90DF90E6
:1031C000CF90BF90AF909F908F9008952F3F320780
:1031D00009F0A9014817590704F1D70112968D90FB
:1031E0009C900FE713E093E9A92E93E0B92E6801B4
:1031F000D801ED918D01E431F8F4F0E0EE0FFF1FFE
:10320000EF5AFC4FB401808191810E947F26892B67
:10321000E9F4C114D10431F61CC08EE594E09A8320
:103220008983415051095C834B838AE694E09E83F5
:103230008D838DE794E0A2CF2DE330E040E050E0B5
:103240006FE371E086E491E00E945F14A016B1067E
:1032500071F68BE494E09A838983B7016E5F7F4FA8
:1032600041E252E0CE0101960E94691899CF2FEFFA
:103270003FEF42E050E00E949818009789F0FC016F
:1032800080810E94500664E373E0019711F467E3C4
:1032900073E085E494E00E94F90990E080E00895ED
:1032A0008FEF9FEF0895CF92DF92EF92FF920F93EF
:1032B0001F93CF93DF93EB012FEF3FEF43E050E0FD
:1032C0000E9498188C01892B81F14AE050E070E04F
:1032D00060E08C819D810E94FF246B017C01C11400
:1032E000D104E104F10421F5EC81FD81808180337A
:1032F000F9F060E970E085E494E00E94570964E227
:1033000072E085E494E00E94AE096C817D8185E4E1
:1033100094E00E94AE096BE973E085E494E00E94BA
:10332000570985E494E00E94C1098FEF9FEF30C0F8
:10333000C8010E94CF170197C9F060E870E085E4EA
:1033400094E00E94570963E372E085E494E00E94F0
:10335000AE096A817B8185E494E00E94AE0968E34E
:1033600072E085E494E00E94AE09DBCFC8010E94C0
:10337000E517019709F040C08FEFC816D10409F096
:1033800080F4B601F80180810E947A0490E080E028
:10339000DF91CF911F910F91FF90EF90DF90CF9031
:1033A000089568E870E085E494E00E9457096C8114
:1033B0007D8185E494E00E94AE0962E673E085E4D5
:1033C00094E00E9457094AE050E070E060E085E434
:1033D00094E00E94D50A6DE472E085E494E00E94D6
:1033E000AE094AE050E060E071E085E494E00E94BC
:1033F000D50A60E572E0B5CF68E770E085E494E057
:103400000E94570963E372E085E494E00E94AE09EC
:103410006A817B8185E494E00E94AE0965E572E0F3
:10342000A0CFCF92DF92EF92FF920F931F93CF9393
:10343000DF9300D0CDB7DEB78C017B0123E030E015
:1034400042E050E00E9498186C018FEF9FEFC1148A
:10345000D10409F463C002301105D1F4C6010E9401
:10346000E5178130910589F08230910539F06DE6DC
:1034700072E0892B29F090E080E050C063E772E0B1
:1034800085E494E00E94F909F6CF60E872E0F8CF95
:10349000F701048115816DE672E0C8010E947F2664
:1034A000892B39F067E872E0C8010E947F26892BDA
:1034B00031F470E060E0C6010E940E15DCCF60E8D8
:1034C00072E0C8010E947F26892B39F06DE872E016
:1034D000C8010E947F26892B19F461E070E0EBCFD0
:1034E00063E772E0C8010E947F26892B39F064E906
:1034F00072E0C8010E947F26892B19F462E070E017
:10350000DACF88E394E09A838983B7016C5F7F4FB9
:1035100041E252E0CE0101960E9469180F900F908F
:10352000DF91CF911F910F91FF90EF90DF90CF909F
:103530000895EF92FF920F931F93CF93DF937C0137
:103540008B01EA0168E970E085E494E00E94570984
:10355000B70185E494E00E94AE09F80160817181B1
:1035600085E494E00E94AE096881798185E494E065
:103570000E94570985E494E00E94C1098FEF9FEFF4
:10358000DF91CF911F910F91FF90EF900895EF92EF
:10359000FF920F931F93CF93DF9300D0CDB7DEB789
:1035A0008B012FEF3FEF42E050E00E9498187C0122
:1035B0008FEF9FEFE114F10431F1C7010E94CF17A3
:1035C000029779F089EE93E09A838983B8016E5F60
:1035D0007F4FAE014F5F5F4F83E392E00E94991AE5
:1035E00012C0C7010E94E5170197B1F0F701808171
:1035F0000E945F044AE050E0BC0185E494E00E9430
:10360000DC0A90E080E00F900F90DF91CF911F9146
:103610000F91FF90EF90089582EC93E0D5CFCF9279
:10362000DF92EF92FF920F931F93CF93DF9300D01F
:10363000CDB7DEB78B012FEF3FEF43E050E00E94A4
:1036400098186C018FEF9FEFC114D104D1F1F801EC
:10365000E480F58061EA72E0C7010E947F26892B31
:10366000D9F165EA72E0C7010E947F26892BA1F19A
:1036700064E373E0C7010E947F26892B69F169EA40
:1036800072E0C7010E947F26892BD9F16EEA72E0B1
:10369000C7010E947F26892BA1F167E373E0C70170
:1036A0000E947F26892B69F182E294E09A838983C4
:1036B000B8016C5F7F4F41E252E0CE0101960E945B
:1036C00069180F900F90DF91CF911F910F91FF908C
:1036D000EF90DF90CF900895F12CC6010E94E5177E
:1036E000019791F080E094E09A838983B8016E5F3E
:1036F0007F4FAE014F5F5F4F83E392E00E94991AC4
:10370000E0CFFF24F394E9CF6F2DF60180810E9472
:10371000220690E080E0D5CFCF93DF93EC0160E705
:1037200070E085E494E00E9457096881798185E41E
:1037300094E00E94570985E494E00E94C1098FEF4C
:103740009FEFDF91CF910895EF92FF920F931F9318
:10375000CF93DF9300D0CDB7DEB78C017B0161E062
:1037600089E00E94E60501301105D1F083E393E082
:1037700002301105B9F5F7010281138163EB72E0A4
:10378000C8010E947F26892B39F062ED72E0C801E2
:103790000E947F26892BA1F461E089E00E94220625
:1037A00089E00E94500663EB72E0019711F066EB2E
:1037B00072E085E494E00E94F90990E080E018C08E
:1037C00066EB72E0C8010E947F26892B39F46AEB10
:1037D00072E0C8010E947F26892B11F060E0DDCFE6
:1037E00086E093E09A838983CE0101960E948C1B28
:1037F0000F900F90DF91CF911F910F91FF90EF905D
:103800000895CF93DF93CDB7DEB762970FB6F894E4
:10381000DEBF0FBECDBFFC016081718118861F82A3
:103820001A8619861C861B8646E050E0CE01079654
:103830000E94502686E0FE013796DE011196019027
:103840000D928A95E1F786E0FE013196DE0117962A
:1038500001900D928A95E1F786E0FE013796DE0130
:103860001D9601900D928A95E1F72D853E854F8535
:10387000588969897A8980E090E062960FB6F89459
:10388000DEBF0FBECDBFDF91CF910895CF92DF9203
:10389000EF92FF920F931F93CF93DF93CDB7DEB7D5
:1038A00028970FB6F894DEBF0FBECDBF63E170E07E
:1038B0008EEB92E00E9476176BE170E083EC92E071
:1038C0000E9476176AE570E089EC92E00E94761714
:1038D0006FE472E085E494E00E94F90905E810E0E5
:1038E0006DE285E494E00E94B00901501109C1F72E
:1038F0006FE472E085E494E00E94F90900EB10E0C7
:1039000018870F83CE0107960E94011C4B835C83AE
:103910006D837E83ED80FE80CB80DC8070E060E094
:10392000C601F701099543E150E00E949B1761E051
:1039300070E0C601F70109954BE150E00E949B172A
:1039400062E070E0C601F70109954AE550E00E9487
:103950009B176FE472E085E494E00E94F9090A5F26
:103960001F4FF0E00C3E1F0759F690E080E02896CC
:103970000FB6F894DEBF0FBECDBFDF91CF911F9180
:103980000F91FF90EF90DF90CF9008956F927F920C
:10399000AF92BF92CF92DF92EF92FF920F931F935D
:1039A000CF93DF93CDB7DEB72E970FB6F894DEBF77
:1039B0000FBECDBF7C016B01892B09F491C0FB01C7
:1039C0008081918100EB10E0892B51F42AEA31E0EB
:1039D00040E050E065ED72E081EE92E00E945F14FD
:1039E00018870F83CE0107960E94011C29833A8312
:1039F0004B835C836D837E83F601A080B180ED8173
:103A0000FE8170E060E08B819C810995AB019C0197
:103A1000D501712C612CBD9026153705C1F1FA0135
:103A2000E60DF71DE491EB1134C0E1112CC09C01AF
:103A3000215031096216730661F5E0E00C3E1E0765
:103A400079F11E870D87CE010D960E94011C2F83F0
:103A5000388749875A876B877C87EF81F88530974D
:103A600049F089859A85892B29F08B859C85892B3E
:103A700009F04AC021E230E040E050E065ED72E03C
:103A80008BEF92E0ABCFFFEF6F1A7F0AC4CFBB2062
:103A9000A1F20A5F1F4F80E00C3E180709F0A0CF8B
:103AA00068E670E085E494E00E94570969EE72E0F0
:103AB00085E494E00E94AE09F6016081718185E49D
:103AC00094E00E94AE0961E272E085E494E00E9415
:103AD000AE0985E494E00E94C109EE24EA94FE2C2C
:103AE000C7012E960FB6F894DEBF0FBECDBFDF9193
:103AF000CF911F910F91FF90EF90DF90CF90BF90EB
:103B0000AF907F906F900895B601C70109957C0131
:103B1000E7CF6F927F928F929F92AF92BF92CF9298
:103B2000DF92EF92FF920F931F93CF93DF93CDB766
:103B3000DEB7A0970FB6F894DEBF0FBECDBF7B01F6
:103B4000DC016D907C90119712960D911C91630190
:103B50004801B12CA12CB601B0E2CB0ED11CE0E2A1
:103B60008E169104C8F040E250E0CE0101960E940A
:103B70005026D701ED91FC910280F381E02D40E2C7
:103B800050E0BE016F5F7F4FC7010995A80EB91EB7
:103B9000B0E28B1A9108DFCF980185E03695279522
:103BA0008A95E1F740EE42036001439FD00C112457
:103BB000C00ED11E007EB301600F711FA601CE01A1
:103BC00001960E945026D701ED91FC910280F3816D
:103BD000E02DA601BE016F5F7F4FC70109958A0DD9
:103BE0009B1DA0960FB6F894DEBF0FBECDBFDF9130
:103BF000CF911F910F91FF90EF90DF90CF90BF90EA
:103C0000AF909F908F907F906F90089502960C9444
:103C1000891DFC0180818370823069F0833089F0D6
:103C200060E0813009F461E084E00E94220660E0F7
:103C300087E00C94220661E084E00E94220661E0A5
:103C4000F7CF60E0F9CFFC018181811102C084E6E9
:103C50008183818181508183808181508083CF01E4
:103C60000C94091E0F931F93CF93DF93EC01862FC3
:103C700064E60E949120192F4981842F90E0212F22
:103C800030E0411760F5281B390B22333105B4F4BD
:103C900004E689811817F1F08F5F602F0E94912050
:103CA000998388818F5F8883CE010E94091E64E01A
:103CB00070E080E090E00E945205EBCFCE010E94C0
:103CC000231E64E070E080E090E00E94520589814C
:103CD0001813F4CFDF91CF911F910F910895821B9C
:103CE000930B04E6C2976CF48981181799F3CE01FF
:103CF0000E94231E64E070E080E090E00E94520584
:103D0000F3CF8981181731F38F5F602F0E949120C4
:103D1000998388818F5F8883CE010E94091E64E0A9
:103D200070E080E090E00E945205EBCFEF92FF92AE
:103D30000F931F93CF93DF9300D0CDB7DEB78C01E5
:103D40007B0180918405811123C061E084E00E94A1
:103D5000E60561E087E00E94E60561E085E00E94FB
:103D6000E60561E086E00E94E60560E084E00E94EE
:103D7000220660E087E00E94220661E085E00E9462
:103D8000220661E086E00E94220681E0809384059D
:103D90000130110531F18EE296E00230110509F093
:103DA00065C0F7010281138161EA73E0C8010E94D6
:103DB0007F26892B39F066EA73E0C8010E947F26CE
:103DC000892B71F58091860581111EC069E185E816
:103DD00095E00E94321E62E385E895E00E94321E63
:103DE00006C080918605882329F0823351F090E047
:103DF00080E042C063E973E085E494E00E94F90941
:103E0000F6CF6AE973E0F8CF823389F322E230E03B
:103E100040E050E06BEA73E08FEB93E00E945F14A8
:103E200069ED73E0C8010E947F26892B39F06FEDA0
:103E300073E0C8010E947F26892BB1F4809186052A
:103E4000823339F469E185E895E00E94321E60E032
:103E5000C3CF882361F22AE230E040E050E06BEA11
:103E600073E085EE93E0DACF81ED95E09A83898364
:103E7000CE0101960E948C1B0F900F90DF91CF9185
:103E80001F910F91FF90EF900895E5E8F5E0108203
:103E9000118208954AE050E0BC0185E494E00E945C
:103EA000D50A85E494E00E94C10990E080E008957D
:103EB0001F93CF93DF93EC01162F0E949214FC0105
:103EC00023E0F695E7952A95E1F7E657FA4F20812A
:103ED000022E000C330B8770992702C03595279569
:103EE0008A95E2F720FD0AC0612F88810E94220690
:103EF00090E080E0DF91CF911F910895CE010E9464
:103F000092148EEF9FEFF6CF70E060E080E292E0D7
:103F10000E940E1561E070E088E192E00E940E15AB
:103F200082E00E945006009719F0019739F0089539
:103F300070E060E088E192E00C94581F61E070E06E
:103F4000F9CF0F931F93CF93DF9300D0CDB7DEB798
:103F50008C0170E060E080E292E00E940E1501307A
:103F6000110579F08DEB96E09A838983CE01019655
:103F70000E948C1B0F900F90DF91CF911F910F919A
:103F8000089582E00E945006019729F481E090E0B4
:103F90000E944A1FEFCF90E080E0FACFEF92FF92AD
:103FA0000F931F93CF93DF9300D0CDB7DEB78C0173
:103FB0007B0161E070E088E192E00E940E15013023
:103FC000110501F187E896E002301105E9F5F701E6
:103FD0000281138163EB72E0C8010E947F26892B66
:103FE00039F062ED72E0C8010E947F26892BA1F4AE
:103FF00061E070E088E192E00E94581F61E08AE091
:104000000E9422068AE00E945006019761F581E035
:1040100090E00E944A1F1EC066EB72E0C8010E9439
:104020007F26892B39F46AEB72E0C8010E947F2653
:10403000892B41F070E060E088E192E00E94581F17
:1040400060E0DDCF8AE596E09A838983CE01019610
:104050000E948C1B0F900F90DF91CF911F910F91B9
:10406000FF90EF90089590E080E0D3CFEAE8F5E08C
:10407000108211821282E7E8F5E01082118212822A
:104080000895E5E4F4E01382128288EE93E0A0E064
:10409000B0E084839583A683B78388E194E091831D
:1040A00080838BEA94E09587848787E694E09787FE
:1040B000868785EC90E0918B808B84EC90E0938BED
:1040C000828B80EC90E0958B848B81EC90E0978BD9
:1040D000868B82EC90E0918F808F86EC90E0938FBE
:1040E000828F84E0848F83E0858F87E0868F85E0F0
:1040F000878F81E080A308956115710579F0FB0138
:1041000001900020E9F73197AF01461B570BDC0106
:10411000ED91FC910280F381E02D099490E080E024
:104120000895991B79E004C0991F961708F0961B13
:10413000881F7A95C9F780950895A1E21A2EAA1BC7
:10414000BB1BFD010DC0AA1FBB1FEE1FFF1FA21747
:10415000B307E407F50720F0A21BB30BE40BF50B44
:10416000661F771F881F991F1A9469F760957095CD
:10417000809590959B01AC01BD01CF010895EE0F94
:10418000FF1F0590F491E02D09945058BB27AA27F2
:104190000E94DD200C9457220E94492238F00E9490
:1041A000502220F039F49F3F19F426F40C94462253
:1041B0000EF4E095E7FB0C944022E92F0E94682260
:1041C00058F3BA17620773078407950720F079F44C
:1041D000A6F50C948A220EF4E0950B2EBA2FA02D92
:1041E0000B01B90190010C01CA01A0011124FF27A4
:1041F000591B99F0593F50F4503E68F11A16F0409F
:10420000A22F232F342F4427585FF3CF469537959D
:104210002795A795F0405395C9F77EF41F16BA0B62
:10422000620B730B840BBAF09150A1F0FF0FBB1F10
:10423000661F771F881FC2F70EC0BA0F621F731F59
:10424000841F48F4879577956795B795F7959E3FB6
:1042500008F0B0CF9395880F08F09927EE0F979547
:10426000879508950E941C2208F481E008950E9419
:104270004B210C9457220E94502258F00E94492250
:1042800040F029F45F3F29F00C94402251110C9426
:104290008B220C9446220E94682268F39923B1F382
:1042A000552391F3951B550BBB27AA27621773075C
:1042B000840738F09F5F5F4F220F331F441FAA1FF0
:1042C000A9F335D00E2E3AF0E0E832D091505040AC
:1042D000E695001CCAF72BD0FE2F29D0660F771F5A
:1042E000881FBB1F261737074807AB07B0E809F040
:1042F000BB0B802DBF01FF2793585F4F3AF09E3FC5
:10430000510578F00C9440220C948B225F3FE4F32B
:10431000983ED4F3869577956795B795F7959F5F07
:10432000C9F7880F911D9695879597F90895E1E053
:10433000660F771F881FBB1F621773078407BA07B2
:1043400020F0621B730B840BBA0BEE1F88F7E0950D
:1043500008950E94B0216894B1110C948B220895A5
:104360000E94702288F09F5798F0B92F9927B75173
:10437000B0F0E1F0660F771F881F991F1AF0BA9509
:10438000C9F714C0B13091F00E948A22B1E00895BB
:104390000C948A22672F782F8827B85F39F0B93FAD
:1043A000CCF3869577956795B395D9F73EF49095BC
:1043B0008095709561957F4F8F4F9F4F0895E8943A
:1043C00009C097FB3EF490958095709561957F4F5D
:1043D0008F4F9F4F9923A9F0F92F96E9BB2793950B
:1043E000F695879577956795B795F111F8CFFAF41B
:1043F000BB0F11F460FF1BC06F5F7F4F8F4F9F4F4C
:1044000016C0882311F096E911C0772321F09EE8A9
:10441000872F762F05C0662371F096E8862F70E00F
:1044200060E02AF09A95660F771F881FDAF7880FE9
:104430009695879597F90895990F0008550FAA0B3F
:10444000E0E8FEEF16161706E807F907C0F01216A7
:104450001306E407F50798F0621B730B840B950BAA
:1044600039F40A2661F0232B242B252B21F40895FF
:104470000A2609F4A140A6958FEF811D811D08959C
:1044800097F99F6780E870E060E008959FEF80EC07
:10449000089500240A9416161706180609060895AA
:1044A00000240A9412161306140605060895092E10
:1044B0000394000C11F4882352F0BB0F40F4BF2B7F
:1044C00011F460FF04C06F5F7F4F8F4F9F4F0895BF
:1044D00057FD9058440F551F59F05F3F71F04795B5
:1044E000880F97FB991F61F09F3F79F0879508959A
:1044F000121613061406551FF2CF4695F1DF08C0B9
:10450000161617061806991FF1CF869571056105D5
:1045100008940895E894BB2766277727CB0197F97D
:1045200008950E941C2208F48FEF08950E94A9228A
:104530000C9457220E94492238F00E94502220F009
:10454000952311F00C9440220C94462211240C94D3
:104550008B220E94682270F3959FC1F3950F50E063
:10456000551F629FF001729FBB27F00DB11D639F25
:10457000AA27F00DB11DAA1F649F6627B00DA11DCB
:10458000661F829F2227B00DA11D621F739FB00D71
:10459000A11D621F839FA00D611D221F749F3327E1
:1045A000A00D611D231F849F600D211D822F762F7A
:1045B0006A2F11249F5750409AF0F1F088234AF057
:1045C000EE0FFF1FBB1F661F771F881F91505040C3
:1045D000A9F79E3F510580F00C9440220C948B2249
:1045E0005F3FE4F3983ED4F3869577956795B7954A
:1045F000F795E7959F5FC1F7FE2B880F911D969564
:10460000879597F908950E941C22880B990B0895AD
:10461000CF93DF938230910510F482E090E0E09137
:104620008F05F091900520E030E0C0E0D0E03097B9
:1046300011F14081518148175907C0F048175907B7
:1046400061F482819381209719F09B838A832BC028
:104650009093900580938F0526C02115310519F0A0
:104660004217530718F49A01BE01DF01EF010280DF
:10467000F381E02DDCCF2115310509F1281B390B21
:104680002430310590F412968D919C911397611509
:10469000710521F0FB019383828304C09093900500
:1046A00080938F05FD01329644C0FD01E20FF31F98
:1046B00081939193225031092D933C933AC02091DC
:1046C0008D0530918E05232B41F42091030130910B
:1046D000040130938E0520938D05209101013091C6
:1046E00002012115310541F42DB73EB74091050176
:1046F00050910601241B350BE0918D05F0918E053C
:10470000E217F307A0F42E1B3F0B2817390778F0A8
:10471000AC014E5F5F4F2417350748F04E0F5F1F07
:1047200050938E0540938D058193919302C0E0E0F4
:10473000F0E0CF01DF91CF9108950F931F93CF93B6
:10474000DF93009709F48CC0FC0132971382128228
:1047500000918F05109190050115110581F42081BC
:104760003181820F931F20918D0530918E0528177E
:10477000390779F5F0938E05E0938D0571C0D80166
:1047800040E050E0AE17BF0750F412962D913C91D7
:104790001397AD012115310509F1D901F3CF9D0121
:1047A000DA013383228360817181860F971F82171C
:1047B000930769F4EC0128813981260F371F2E5F9A
:1047C0003F4F318320838A819B8193838283452B52
:1047D00029F4F0939005E0938F0542C01396FC9363
:1047E000EE931297ED01499159919E01240F351FC7
:1047F000E217F30771F480819181840F951F02966F
:1048000011969C938E938281938113969C938E93A1
:104810001297E0E0F0E0D80112968D919C911397E9
:10482000009719F0F8018C01F6CF8D919C919801B9
:104830002E5F3F4F820F931F20918D0530918E0583
:104840002817390769F4309729F4109290051092CF
:104850008F0502C01382128210938E0500938D057E
:10486000DF91CF911F910F910895A0E0B0E0EBE3AD
:10487000F4E20C949A27EC01009721F4CB010E94FA
:104880000823B8C0FC01E60FF71F9C012250310934
:10489000E217F30708F4ACC0D9010D911C911197F0
:1048A00006171707B0F00530110508F49FC0C801BE
:1048B00004978617970708F499C002501109061B40
:1048C000170B019311936D937C93CF010E949D234D
:1048D0008DC05B01A01AB10A4C01800E911EA091FF
:1048E0008F05B091900540E050E0E12CF12C10973D
:1048F00009F44AC0A815B905D1F56D907C901197BF
:10490000630182E0C80ED11CCA14DB0480F1A3014C
:104910004A195B096A0182E0C80ED11C1296BC904C
:1049200012971396AC91B5E0CB16D10440F0B28249
:10493000A38351834083D9016D937C930AC00E5F9A
:104940001F4FC301800F911FF90191838083EB2DCD
:10495000FA2FE114F10431F0D7011396FC93EE9392
:10496000129744C0F0939005E0938F053FC08D915E
:104970009C9111974817590708F4AC017D011296D4
:104980000D90BC91A02DB3CF80918D0590918E0597
:1049900088159905E1F446175707C8F4809101017D
:1049A00090910201009741F48DB79EB740910501A7
:1049B00050910601841B950BE817F907C8F4F09392
:1049C0008E05E0938D05F901718360830FC0CB01E3
:1049D0000E9408237C01009759F0A801BE010E94A3
:1049E0005926CE010E949D23C70104C0CE0102C0FA
:1049F00080E090E0CDB7DEB7EEE00C94B627A0E003
:104A0000B0E0E5E0F5E20C9496275C016B017A01D9
:104A10006115710519F0FB0191838083E114F104A4
:104A200029F0C7010297839708F0F1C0E5012196AC
:104A3000F5011081812F90E00E943726892B11F01B
:104A40005E01F4CF1D3229F42196F501118101E0B8
:104A500007C01B3221F4E5012296F501118100E027
:104A6000E114F10459F1F0E1EF16F10461F41033AF
:104A7000E1F488818F7D883569F51981229602607D
:104A800070E1E72EF12C88E0E816F10439F12CF4FE
:104A9000F2E0EF16F104C9F12AC08AE0E816F10449
:104AA00079F0E0E1EE16F10411F550E1E52EF12C7C
:104AB000812C912CA12C68E0B62E2CC01033C9F2A9
:104AC0003AE0E32EF12C4CEC842E982CA82C4CE0F0
:104AD000B42E20C010E3E114F104A9F698E0E92E09
:104AE000F12C812C912CA12C20E1B22E13C060E07E
:104AF00070E080E090E897010F2C000C440B550B00
:104B00000E949D2049015A0105C0812C912CA12CA5
:104B100080E4B82E60E020E030E0A90127010F2CEE
:104B2000000C660877081E01E0EDE10FEA3060F046
:104B30008FEB810F8A3110F4E9EC05C08FE9810F0A
:104B40008A3128F5E9EAE10F8E2F90E08E159F0556
:104B5000F4F467FD18C082169306A406B50690F01B
:104B6000C301B2010E947B279B01AC012E0F311DB6
:104B7000411D511D213031054105F0E85F0710F45A
:104B800061E001C06FEF2196F1011081CCCF802F41
:104B90008170C114D10471F0662329F02197F601C8
:104BA000D183C08307C001FF19C02297F601D183CA
:104BB000C08314C067FF12C0811105C02FEF3FEF03
:104BC0004FEF5FE704C020E030E040E050E882E2D1
:104BD00090E0909392058093910516C0882341F050
:104BE00050954095309521953F4F4F4F5F4F0CC0EA
:104BF00057FF0AC082E290E090939205809391055E
:104C00002FEF3FEF4FEF5FE7B901CA0104C060E04B
:104C100070E080E090E0CDB7DEB7E2E10C94B2271F
:104C20001F93FC0199278827BC01E8941191103249
:104C3000E9F3193010F01E30C8F31B3251F01D3269
:104C400049F4689406C00E940127610F711D811DFF
:104C5000911D119110531A30B0F33EF49095809548
:104C6000709561957F4F8F4F9F4F1F9108959111C0
:104C70000C946827803219F089508550C8F7089540
:104C80009111089581548A5108F4805E855A0895DF
:104C90009111089581568A5108F4805285580895DB
:104CA000FB01DC0102C005900D9241505040D8F745
:104CB0000895FB01DC0102C001900D92415050406B
:104CC000D8F708956817790768F4FB01DC01E40F51
:104CD000F51FA40FB51F02C002900E924150504024
:104CE000D8F708950C945926FC018191861721F07C
:104CF0008823D9F7992708953197CF010895FB01AB
:104D0000DC018D91019080190110D9F3990B089560
:104D1000FB01DC0101900D920020E1F70895FB01F9
:104D2000DC014150504030F08D910190801919F410
:104D30000020B9F7881B990B0895FB01DC01415055
:104D4000504048F001900D920020C9F701C01D921B
:104D500041505040E0F70895FC0181E090E001905F
:104D6000061609F4CF010020D1F701970895FB0141
:104D700051915523A9F0BF01DC014D914517411117
:104D8000E1F759F4CD010190002049F04D91401513
:104D90004111C9F3FB014111EFCF81E090E0019790
:104DA00008954532510520F4423010F00C94DC2671
:104DB000FB011082CB010895BB274A3031F49923BF
:104DC00022F4BDE2909581959F4F0C944F27253298
:104DD000310520F4223010F00C94F226FA011082F2
:104DE000CA010895BB272A3051F4992342F4BDE249
:104DF00090958095709561957F4F8F4F9F4F0C9444
:104E00002227592F482F372F262F660F771F881FED
:104E1000991F660F771F881F991F620F731F841FCA
:104E2000951F660F771F881F991F0895253231053A
:104E300020F4223010F00C942127FA011082CA01CC
:104E40000895BB27FA01A62F621771058105910508
:104E5000330B30FB66F0AA27660F771F881F991F58
:104E6000AA1FA21710F0A21B63953850A9F7A05DE6
:104E7000AA3308F0A95DA19336F7B111B19310825E
:104E8000CA010C946B274532510520F4423010F0D2
:104E90000C944E27FB011082CB010895BB27FB0128
:104EA0005527AA27880F991FAA1FA41710F0A41B23
:104EB00083955051B9F7A05DAA3308F0A95DA1937D
:104EC000009779F7B111B1931192CB010C946B2734
:104ED000992788270895DC01FC01672F71917723BA
:104EE000E1F7329704C07C916D9370836291AE17A5
:104EF000BF07C8F30895DB018F939F930E948B2710
:104F0000BF91AF91A29F800D911DA39F900DB29F65
:104F1000900D112408950E94CD27A59F900DB49F58
:104F2000900DA49F800D911D112408952F923F9202
:104F30004F925F926F927F928F929F92AF92BF92A9
:104F4000CF92DF92EF92FF920F931F93CF93DF9355
:104F5000CDB7DEB7CA1BDB0B0FB6F894DEBF0FBEB2
:104F6000CDBF09942A88398848885F846E847D84FF
:104F70008C849B84AA84B984C884DF80EE80FD8001
:104F80000C811B81AA81B981CE0FD11D0FB6F89477
:104F9000DEBF0FBECDBFED010895A29FB001B39F4C
:104FA000C001A39F700D811D1124911DB29F700D32
:0C4FB000811D1124911D0895F894FFCF7D
:104FBC0001000093052000206C696E652000417390
:104FCC0073657274696F6E3A2022002220666169E3
:104FDC006C65642E20476F696E6720696E746F2054
:104FEC00696E66696E697465206C6F6F702E005007
:104FFC00696E732E68002122556E7265616368615B
:10500C00626C6520636F646520706174682E220089
:10501C00636F6D6D616E645F70617273696E672E24
:10502C0068006320213D20275C6E27006320213D12
:10503C0020275C302700496E697469616C697A6954
:10504C006E672E2E2E00696E6F3E20007374617495
:10505C0069635F636173743C636861723E28636863
:10506C00722920213D20275C3027004572726F7217
:10507C003A20436F6D6D616E6420746F6F206C6F9E
:10508C006E672E004572726F723A20546F6F206DEE
:10509C00616E7920746F6B656E7320696E20636F1F
:1050AC006D6D616E642E0000010203040506070895
:1050BC00090A0B0C0D0E0F101112131313151413E8
:1050CC001211100F0E0D0C0B0A090807060504032C
:1050DC0002272E0043616E6E6F74207061727365CF
:1050EC0020270050696E2000206973206E6F742099
:1050FC0050574D2D656E61626C65642E002C20003E
:10510C002920292E00206973206E6F7420696E206F
:10511C004F5554505554206D6F64652E00494E50B8
:10512C00555400494E5055545F50554C4C555000F9
:10513C004F555450555400696E707574006F7574EA
:10514C0070757400696E7075745F70756C6C7570C9
:10515C00006C6F77004C4F570068696768004849CE
:10516C004748004F4E004F4646006F6666004E6142
:10517C006D65005573616765004465736372697092
:10518C0074696F6E00436F6D6D616E642E63707029
:10519C0000617267765B305D00556E6B6E6F776E7B
:1051AC0020636F6D6D616E642027002A74686973CB
:1051BC0000000102030405060708090A0B0C0D0E7A
:1051CC000F10111213131300000001000101000055
:1051DC000001010000020202020202360037003810
:1051EC0000390031300031310031320031330041AF
:1051FC00300041310041320041330041340041352F
:10520C0000340337033A033D034C034F032B032DA8
:10521C00032F0331033303360339033C033F0342AB
:10522C0003450348034B034E0300000000061E0019
:10523C000102030405060708090A0B0C0D0E0F10DA
:10524C00111213434C4F534544004F50454E4544A7
:10525C00004F50454E006F70656E00737465707032
:10526C0065725F636F6E74726F6C2E637070007317
:10527C007465707065722E706F736974696F6E28C7
:10528C0029203D3D2035307500434C4F534500637C
:10529C006C6F736500737465707065722E706F73CC
:1052AC006974696F6E2829203D3D2030750000011E
:1052BC0002030405060708090A0B0C0D0E0F10114A
:1052CC001213131300000000D1062E097906A40650
:1052DC008B06C6066E616E00696E66006F766600A0
:0852EC00000000005E142E0911
:00000001FF
